{
	"level0/solidity_basic/DataLocations.sol": {
		"DataLocations": {
			"abi": [
				{
					"inputs": [
						{
							"internalType": "uint256",
							"name": "",
							"type": "uint256"
						}
					],
					"name": "arr",
					"outputs": [
						{
							"internalType": "uint256",
							"name": "",
							"type": "uint256"
						}
					],
					"stateMutability": "view",
					"type": "function"
				},
				{
					"inputs": [],
					"name": "f",
					"outputs": [],
					"stateMutability": "nonpayable",
					"type": "function"
				},
				{
					"inputs": [
						{
							"internalType": "uint256[]",
							"name": "_arr",
							"type": "uint256[]"
						}
					],
					"name": "g",
					"outputs": [
						{
							"internalType": "uint256[]",
							"name": "",
							"type": "uint256[]"
						}
					],
					"stateMutability": "nonpayable",
					"type": "function"
				},
				{
					"inputs": [
						{
							"internalType": "uint256[]",
							"name": "_arr",
							"type": "uint256[]"
						}
					],
					"name": "h",
					"outputs": [],
					"stateMutability": "nonpayable",
					"type": "function"
				}
			],
			"devdoc": {
				"kind": "dev",
				"methods": {},
				"version": 1
			},
			"evm": {
				"assembly": "    /* \"level0/solidity_basic/DataLocations.sol\":436:1378  contract DataLocations{... */\n  mstore(0x40, 0x80)\n  callvalue\n  dup1\n  iszero\n  tag_1\n  jumpi\n  0x00\n  dup1\n  revert\ntag_1:\n  pop\n  dataSize(sub_0)\n  dup1\n  dataOffset(sub_0)\n  0x00\n  codecopy\n  0x00\n  return\nstop\n\nsub_0: assembly {\n        /* \"level0/solidity_basic/DataLocations.sol\":436:1378  contract DataLocations{... */\n      mstore(0x40, 0x80)\n      callvalue\n      dup1\n      iszero\n      tag_1\n      jumpi\n      0x00\n      dup1\n      revert\n    tag_1:\n      pop\n      jumpi(tag_2, lt(calldatasize, 0x04))\n      shr(0xe0, calldataload(0x00))\n      dup1\n      0x26121ff0\n      eq\n      tag_3\n      jumpi\n      dup1\n      0x40dcbb08\n      eq\n      tag_4\n      jumpi\n      dup1\n      0x71e5ee5f\n      eq\n      tag_5\n      jumpi\n      dup1\n      0xbaf71609\n      eq\n      tag_6\n      jumpi\n    tag_2:\n      0x00\n      dup1\n      revert\n        /* \"level0/solidity_basic/DataLocations.sol\":625:906  function f() public {... */\n    tag_3:\n      tag_7\n      tag_8\n      jump\t// in\n    tag_7:\n      stop\n        /* \"level0/solidity_basic/DataLocations.sol\":1280:1376  function h(uint256[] calldata _arr) external {... */\n    tag_4:\n      tag_9\n      0x04\n      dup1\n      calldatasize\n      sub\n      dup2\n      add\n      swap1\n      tag_10\n      swap2\n      swap1\n      tag_11\n      jump\t// in\n    tag_10:\n      tag_12\n      jump\t// in\n    tag_9:\n      stop\n        /* \"level0/solidity_basic/DataLocations.sol\":464:484  uint256[] public arr */\n    tag_5:\n      tag_13\n      0x04\n      dup1\n      calldatasize\n      sub\n      dup2\n      add\n      swap1\n      tag_14\n      swap2\n      swap1\n      tag_15\n      jump\t// in\n    tag_14:\n      tag_16\n      jump\t// in\n    tag_13:\n      mload(0x40)\n      tag_17\n      swap2\n      swap1\n      tag_18\n      jump\t// in\n    tag_17:\n      mload(0x40)\n      dup1\n      swap2\n      sub\n      swap1\n      return\n        /* \"level0/solidity_basic/DataLocations.sol\":1157:1274  function g(uint256[] memory _arr) public returns (uint256[] memory) {... */\n    tag_6:\n      tag_19\n      0x04\n      dup1\n      calldatasize\n      sub\n      dup2\n      add\n      swap1\n      tag_20\n      swap2\n      swap1\n      tag_21\n      jump\t// in\n    tag_20:\n      tag_22\n      jump\t// in\n    tag_19:\n      mload(0x40)\n      tag_23\n      swap2\n      swap1\n      tag_24\n      jump\t// in\n    tag_23:\n      mload(0x40)\n      dup1\n      swap2\n      sub\n      swap1\n      return\n        /* \"level0/solidity_basic/DataLocations.sol\":625:906  function f() public {... */\n    tag_8:\n        /* \"level0/solidity_basic/DataLocations.sol\":695:721  _f(arr, map, myStructs[1]) */\n      tag_26\n        /* \"level0/solidity_basic/DataLocations.sol\":698:701  arr */\n      0x00\n        /* \"level0/solidity_basic/DataLocations.sol\":703:706  map */\n      0x01\n        /* \"level0/solidity_basic/DataLocations.sol\":708:717  myStructs */\n      0x02\n        /* \"level0/solidity_basic/DataLocations.sol\":708:720  myStructs[1] */\n      0x00\n        /* \"level0/solidity_basic/DataLocations.sol\":718:719  1 */\n      0x01\n        /* \"level0/solidity_basic/DataLocations.sol\":708:720  myStructs[1] */\n      dup2\n      mstore\n      0x20\n      add\n      swap1\n      dup2\n      mstore\n      0x20\n      add\n      0x00\n      keccak256\n        /* \"level0/solidity_basic/DataLocations.sol\":695:697  _f */\n      tag_27\n        /* \"level0/solidity_basic/DataLocations.sol\":695:721  _f(arr, map, myStructs[1]) */\n      jump\t// in\n    tag_26:\n        /* \"level0/solidity_basic/DataLocations.sol\":771:796  MyStruct storage myStruct */\n      0x00\n        /* \"level0/solidity_basic/DataLocations.sol\":799:808  myStructs */\n      0x02\n        /* \"level0/solidity_basic/DataLocations.sol\":799:811  myStructs[1] */\n      0x00\n        /* \"level0/solidity_basic/DataLocations.sol\":809:810  1 */\n      0x01\n        /* \"level0/solidity_basic/DataLocations.sol\":799:811  myStructs[1] */\n      dup2\n      mstore\n      0x20\n      add\n      swap1\n      dup2\n      mstore\n      0x20\n      add\n      0x00\n      keccak256\n        /* \"level0/solidity_basic/DataLocations.sol\":771:811  MyStruct storage myStruct = myStructs[1] */\n      swap1\n      pop\n        /* \"level0/solidity_basic/DataLocations.sol\":858:885  MyStruct memory myMemStruct */\n      0x00\n        /* \"level0/solidity_basic/DataLocations.sol\":888:899  MyStruct(0) */\n      mload(0x40)\n      dup1\n      0x20\n      add\n      0x40\n      mstore\n      dup1\n        /* \"level0/solidity_basic/DataLocations.sol\":897:898  0 */\n      0x00\n        /* \"level0/solidity_basic/DataLocations.sol\":888:899  MyStruct(0) */\n      dup2\n      mstore\n      pop\n        /* \"level0/solidity_basic/DataLocations.sol\":858:899  MyStruct memory myMemStruct = MyStruct(0) */\n      swap1\n      pop\n        /* \"level0/solidity_basic/DataLocations.sol\":645:906  {... */\n      pop\n      pop\n        /* \"level0/solidity_basic/DataLocations.sol\":625:906  function f() public {... */\n      jump\t// out\n        /* \"level0/solidity_basic/DataLocations.sol\":1280:1376  function h(uint256[] calldata _arr) external {... */\n    tag_12:\n      pop\n      pop\n      jump\t// out\n        /* \"level0/solidity_basic/DataLocations.sol\":464:484  uint256[] public arr */\n    tag_16:\n      0x00\n      dup2\n      dup2\n      sload\n      dup2\n      lt\n      tag_29\n      jumpi\n      0x00\n      dup1\n      revert\n    tag_29:\n      swap1\n      0x00\n      mstore\n      keccak256(0x00, 0x20)\n      add\n      0x00\n      swap2\n      pop\n      swap1\n      pop\n      sload\n      dup2\n      jump\t// out\n        /* \"level0/solidity_basic/DataLocations.sol\":1157:1274  function g(uint256[] memory _arr) public returns (uint256[] memory) {... */\n    tag_22:\n        /* \"level0/solidity_basic/DataLocations.sol\":1207:1223  uint256[] memory */\n      0x60\n        /* \"level0/solidity_basic/DataLocations.sol\":1157:1274  function g(uint256[] memory _arr) public returns (uint256[] memory) {... */\n      swap2\n      swap1\n      pop\n      jump\t// out\n        /* \"level0/solidity_basic/DataLocations.sol\":912:1111  function _f(... */\n    tag_27:\n      pop\n      pop\n      pop\n      jump\t// out\n        /* \"#utility.yul\":7:82   */\n    tag_33:\n        /* \"#utility.yul\":40:46   */\n      0x00\n        /* \"#utility.yul\":73:75   */\n      0x40\n        /* \"#utility.yul\":67:76   */\n      mload\n        /* \"#utility.yul\":57:76   */\n      swap1\n      pop\n        /* \"#utility.yul\":7:82   */\n      swap1\n      jump\t// out\n        /* \"#utility.yul\":88:205   */\n    tag_34:\n        /* \"#utility.yul\":197:198   */\n      0x00\n        /* \"#utility.yul\":194:195   */\n      dup1\n        /* \"#utility.yul\":187:199   */\n      revert\n        /* \"#utility.yul\":211:328   */\n    tag_35:\n        /* \"#utility.yul\":320:321   */\n      0x00\n        /* \"#utility.yul\":317:318   */\n      dup1\n        /* \"#utility.yul\":310:322   */\n      revert\n        /* \"#utility.yul\":334:451   */\n    tag_36:\n        /* \"#utility.yul\":443:444   */\n      0x00\n        /* \"#utility.yul\":440:441   */\n      dup1\n        /* \"#utility.yul\":433:445   */\n      revert\n        /* \"#utility.yul\":457:574   */\n    tag_37:\n        /* \"#utility.yul\":566:567   */\n      0x00\n        /* \"#utility.yul\":563:564   */\n      dup1\n        /* \"#utility.yul\":556:568   */\n      revert\n        /* \"#utility.yul\":580:697   */\n    tag_38:\n        /* \"#utility.yul\":689:690   */\n      0x00\n        /* \"#utility.yul\":686:687   */\n      dup1\n        /* \"#utility.yul\":679:691   */\n      revert\n        /* \"#utility.yul\":720:1288   */\n    tag_39:\n        /* \"#utility.yul\":793:801   */\n      0x00\n        /* \"#utility.yul\":803:809   */\n      dup1\n        /* \"#utility.yul\":853:856   */\n      dup4\n        /* \"#utility.yul\":846:850   */\n      0x1f\n        /* \"#utility.yul\":838:844   */\n      dup5\n        /* \"#utility.yul\":834:851   */\n      add\n        /* \"#utility.yul\":830:857   */\n      slt\n        /* \"#utility.yul\":820:942   */\n      tag_66\n      jumpi\n        /* \"#utility.yul\":861:940   */\n      tag_67\n      tag_36\n      jump\t// in\n    tag_67:\n        /* \"#utility.yul\":820:942   */\n    tag_66:\n        /* \"#utility.yul\":974:980   */\n      dup3\n        /* \"#utility.yul\":961:981   */\n      calldataload\n        /* \"#utility.yul\":951:981   */\n      swap1\n      pop\n        /* \"#utility.yul\":1004:1022   */\n      0xffffffffffffffff\n        /* \"#utility.yul\":996:1002   */\n      dup2\n        /* \"#utility.yul\":993:1023   */\n      gt\n        /* \"#utility.yul\":990:1107   */\n      iszero\n      tag_68\n      jumpi\n        /* \"#utility.yul\":1026:1105   */\n      tag_69\n      tag_37\n      jump\t// in\n    tag_69:\n        /* \"#utility.yul\":990:1107   */\n    tag_68:\n        /* \"#utility.yul\":1140:1144   */\n      0x20\n        /* \"#utility.yul\":1132:1138   */\n      dup4\n        /* \"#utility.yul\":1128:1145   */\n      add\n        /* \"#utility.yul\":1116:1145   */\n      swap2\n      pop\n        /* \"#utility.yul\":1194:1197   */\n      dup4\n        /* \"#utility.yul\":1186:1190   */\n      0x20\n        /* \"#utility.yul\":1178:1184   */\n      dup3\n        /* \"#utility.yul\":1174:1191   */\n      mul\n        /* \"#utility.yul\":1164:1172   */\n      dup4\n        /* \"#utility.yul\":1160:1192   */\n      add\n        /* \"#utility.yul\":1157:1198   */\n      gt\n        /* \"#utility.yul\":1154:1282   */\n      iszero\n      tag_70\n      jumpi\n        /* \"#utility.yul\":1201:1280   */\n      tag_71\n      tag_38\n      jump\t// in\n    tag_71:\n        /* \"#utility.yul\":1154:1282   */\n    tag_70:\n        /* \"#utility.yul\":720:1288   */\n      swap3\n      pop\n      swap3\n      swap1\n      pop\n      jump\t// out\n        /* \"#utility.yul\":1294:1853   */\n    tag_11:\n        /* \"#utility.yul\":1380:1386   */\n      0x00\n        /* \"#utility.yul\":1388:1394   */\n      dup1\n        /* \"#utility.yul\":1437:1439   */\n      0x20\n        /* \"#utility.yul\":1425:1434   */\n      dup4\n        /* \"#utility.yul\":1416:1423   */\n      dup6\n        /* \"#utility.yul\":1412:1435   */\n      sub\n        /* \"#utility.yul\":1408:1440   */\n      slt\n        /* \"#utility.yul\":1405:1524   */\n      iszero\n      tag_73\n      jumpi\n        /* \"#utility.yul\":1443:1522   */\n      tag_74\n      tag_34\n      jump\t// in\n    tag_74:\n        /* \"#utility.yul\":1405:1524   */\n    tag_73:\n        /* \"#utility.yul\":1591:1592   */\n      0x00\n        /* \"#utility.yul\":1580:1589   */\n      dup4\n        /* \"#utility.yul\":1576:1593   */\n      add\n        /* \"#utility.yul\":1563:1594   */\n      calldataload\n        /* \"#utility.yul\":1621:1639   */\n      0xffffffffffffffff\n        /* \"#utility.yul\":1613:1619   */\n      dup2\n        /* \"#utility.yul\":1610:1640   */\n      gt\n        /* \"#utility.yul\":1607:1724   */\n      iszero\n      tag_75\n      jumpi\n        /* \"#utility.yul\":1643:1722   */\n      tag_76\n      tag_35\n      jump\t// in\n    tag_76:\n        /* \"#utility.yul\":1607:1724   */\n    tag_75:\n        /* \"#utility.yul\":1756:1836   */\n      tag_77\n        /* \"#utility.yul\":1828:1835   */\n      dup6\n        /* \"#utility.yul\":1819:1825   */\n      dup3\n        /* \"#utility.yul\":1808:1817   */\n      dup7\n        /* \"#utility.yul\":1804:1826   */\n      add\n        /* \"#utility.yul\":1756:1836   */\n      tag_39\n      jump\t// in\n    tag_77:\n        /* \"#utility.yul\":1738:1836   */\n      swap3\n      pop\n      swap3\n      pop\n        /* \"#utility.yul\":1534:1846   */\n      pop\n        /* \"#utility.yul\":1294:1853   */\n      swap3\n      pop\n      swap3\n      swap1\n      pop\n      jump\t// out\n        /* \"#utility.yul\":1859:1936   */\n    tag_40:\n        /* \"#utility.yul\":1896:1903   */\n      0x00\n        /* \"#utility.yul\":1925:1930   */\n      dup2\n        /* \"#utility.yul\":1914:1930   */\n      swap1\n      pop\n        /* \"#utility.yul\":1859:1936   */\n      swap2\n      swap1\n      pop\n      jump\t// out\n        /* \"#utility.yul\":1942:2064   */\n    tag_41:\n        /* \"#utility.yul\":2015:2039   */\n      tag_80\n        /* \"#utility.yul\":2033:2038   */\n      dup2\n        /* \"#utility.yul\":2015:2039   */\n      tag_40\n      jump\t// in\n    tag_80:\n        /* \"#utility.yul\":2008:2013   */\n      dup2\n        /* \"#utility.yul\":2005:2040   */\n      eq\n        /* \"#utility.yul\":1995:2058   */\n      tag_81\n      jumpi\n        /* \"#utility.yul\":2054:2055   */\n      0x00\n        /* \"#utility.yul\":2051:2052   */\n      dup1\n        /* \"#utility.yul\":2044:2056   */\n      revert\n        /* \"#utility.yul\":1995:2058   */\n    tag_81:\n        /* \"#utility.yul\":1942:2064   */\n      pop\n      jump\t// out\n        /* \"#utility.yul\":2070:2209   */\n    tag_42:\n        /* \"#utility.yul\":2116:2121   */\n      0x00\n        /* \"#utility.yul\":2154:2160   */\n      dup2\n        /* \"#utility.yul\":2141:2161   */\n      calldataload\n        /* \"#utility.yul\":2132:2161   */\n      swap1\n      pop\n        /* \"#utility.yul\":2170:2203   */\n      tag_83\n        /* \"#utility.yul\":2197:2202   */\n      dup2\n        /* \"#utility.yul\":2170:2203   */\n      tag_41\n      jump\t// in\n    tag_83:\n        /* \"#utility.yul\":2070:2209   */\n      swap3\n      swap2\n      pop\n      pop\n      jump\t// out\n        /* \"#utility.yul\":2215:2544   */\n    tag_15:\n        /* \"#utility.yul\":2274:2280   */\n      0x00\n        /* \"#utility.yul\":2323:2325   */\n      0x20\n        /* \"#utility.yul\":2311:2320   */\n      dup3\n        /* \"#utility.yul\":2302:2309   */\n      dup5\n        /* \"#utility.yul\":2298:2321   */\n      sub\n        /* \"#utility.yul\":2294:2326   */\n      slt\n        /* \"#utility.yul\":2291:2410   */\n      iszero\n      tag_85\n      jumpi\n        /* \"#utility.yul\":2329:2408   */\n      tag_86\n      tag_34\n      jump\t// in\n    tag_86:\n        /* \"#utility.yul\":2291:2410   */\n    tag_85:\n        /* \"#utility.yul\":2449:2450   */\n      0x00\n        /* \"#utility.yul\":2474:2527   */\n      tag_87\n        /* \"#utility.yul\":2519:2526   */\n      dup5\n        /* \"#utility.yul\":2510:2516   */\n      dup3\n        /* \"#utility.yul\":2499:2508   */\n      dup6\n        /* \"#utility.yul\":2495:2517   */\n      add\n        /* \"#utility.yul\":2474:2527   */\n      tag_42\n      jump\t// in\n    tag_87:\n        /* \"#utility.yul\":2464:2527   */\n      swap2\n      pop\n        /* \"#utility.yul\":2420:2537   */\n      pop\n        /* \"#utility.yul\":2215:2544   */\n      swap3\n      swap2\n      pop\n      pop\n      jump\t// out\n        /* \"#utility.yul\":2550:2668   */\n    tag_43:\n        /* \"#utility.yul\":2637:2661   */\n      tag_89\n        /* \"#utility.yul\":2655:2660   */\n      dup2\n        /* \"#utility.yul\":2637:2661   */\n      tag_40\n      jump\t// in\n    tag_89:\n        /* \"#utility.yul\":2632:2635   */\n      dup3\n        /* \"#utility.yul\":2625:2662   */\n      mstore\n        /* \"#utility.yul\":2550:2668   */\n      pop\n      pop\n      jump\t// out\n        /* \"#utility.yul\":2674:2896   */\n    tag_18:\n        /* \"#utility.yul\":2767:2771   */\n      0x00\n        /* \"#utility.yul\":2805:2807   */\n      0x20\n        /* \"#utility.yul\":2794:2803   */\n      dup3\n        /* \"#utility.yul\":2790:2808   */\n      add\n        /* \"#utility.yul\":2782:2808   */\n      swap1\n      pop\n        /* \"#utility.yul\":2818:2889   */\n      tag_91\n        /* \"#utility.yul\":2886:2887   */\n      0x00\n        /* \"#utility.yul\":2875:2884   */\n      dup4\n        /* \"#utility.yul\":2871:2888   */\n      add\n        /* \"#utility.yul\":2862:2868   */\n      dup5\n        /* \"#utility.yul\":2818:2889   */\n      tag_43\n      jump\t// in\n    tag_91:\n        /* \"#utility.yul\":2674:2896   */\n      swap3\n      swap2\n      pop\n      pop\n      jump\t// out\n        /* \"#utility.yul\":2902:3004   */\n    tag_44:\n        /* \"#utility.yul\":2943:2949   */\n      0x00\n        /* \"#utility.yul\":2994:2996   */\n      0x1f\n        /* \"#utility.yul\":2990:2997   */\n      not\n        /* \"#utility.yul\":2985:2987   */\n      0x1f\n        /* \"#utility.yul\":2978:2983   */\n      dup4\n        /* \"#utility.yul\":2974:2988   */\n      add\n        /* \"#utility.yul\":2970:2998   */\n      and\n        /* \"#utility.yul\":2960:2998   */\n      swap1\n      pop\n        /* \"#utility.yul\":2902:3004   */\n      swap2\n      swap1\n      pop\n      jump\t// out\n        /* \"#utility.yul\":3010:3190   */\n    tag_45:\n        /* \"#utility.yul\":3058:3135   */\n      0x4e487b7100000000000000000000000000000000000000000000000000000000\n        /* \"#utility.yul\":3055:3056   */\n      0x00\n        /* \"#utility.yul\":3048:3136   */\n      mstore\n        /* \"#utility.yul\":3155:3159   */\n      0x41\n        /* \"#utility.yul\":3152:3153   */\n      0x04\n        /* \"#utility.yul\":3145:3160   */\n      mstore\n        /* \"#utility.yul\":3179:3183   */\n      0x24\n        /* \"#utility.yul\":3176:3177   */\n      0x00\n        /* \"#utility.yul\":3169:3184   */\n      revert\n        /* \"#utility.yul\":3196:3477   */\n    tag_46:\n        /* \"#utility.yul\":3279:3306   */\n      tag_95\n        /* \"#utility.yul\":3301:3305   */\n      dup3\n        /* \"#utility.yul\":3279:3306   */\n      tag_44\n      jump\t// in\n    tag_95:\n        /* \"#utility.yul\":3271:3277   */\n      dup2\n        /* \"#utility.yul\":3267:3307   */\n      add\n        /* \"#utility.yul\":3409:3415   */\n      dup2\n        /* \"#utility.yul\":3397:3407   */\n      dup2\n        /* \"#utility.yul\":3394:3416   */\n      lt\n        /* \"#utility.yul\":3373:3391   */\n      0xffffffffffffffff\n        /* \"#utility.yul\":3361:3371   */\n      dup3\n        /* \"#utility.yul\":3358:3392   */\n      gt\n        /* \"#utility.yul\":3355:3417   */\n      or\n        /* \"#utility.yul\":3352:3440   */\n      iszero\n      tag_96\n      jumpi\n        /* \"#utility.yul\":3420:3438   */\n      tag_97\n      tag_45\n      jump\t// in\n    tag_97:\n        /* \"#utility.yul\":3352:3440   */\n    tag_96:\n        /* \"#utility.yul\":3460:3470   */\n      dup1\n        /* \"#utility.yul\":3456:3458   */\n      0x40\n        /* \"#utility.yul\":3449:3471   */\n      mstore\n        /* \"#utility.yul\":3239:3477   */\n      pop\n        /* \"#utility.yul\":3196:3477   */\n      pop\n      pop\n      jump\t// out\n        /* \"#utility.yul\":3483:3612   */\n    tag_47:\n        /* \"#utility.yul\":3517:3523   */\n      0x00\n        /* \"#utility.yul\":3544:3564   */\n      tag_99\n      tag_33\n      jump\t// in\n    tag_99:\n        /* \"#utility.yul\":3534:3564   */\n      swap1\n      pop\n        /* \"#utility.yul\":3573:3606   */\n      tag_100\n        /* \"#utility.yul\":3601:3605   */\n      dup3\n        /* \"#utility.yul\":3593:3599   */\n      dup3\n        /* \"#utility.yul\":3573:3606   */\n      tag_46\n      jump\t// in\n    tag_100:\n        /* \"#utility.yul\":3483:3612   */\n      swap2\n      swap1\n      pop\n      jump\t// out\n        /* \"#utility.yul\":3618:3929   */\n    tag_48:\n        /* \"#utility.yul\":3695:3699   */\n      0x00\n        /* \"#utility.yul\":3785:3803   */\n      0xffffffffffffffff\n        /* \"#utility.yul\":3777:3783   */\n      dup3\n        /* \"#utility.yul\":3774:3804   */\n      gt\n        /* \"#utility.yul\":3771:3827   */\n      iszero\n      tag_102\n      jumpi\n        /* \"#utility.yul\":3807:3825   */\n      tag_103\n      tag_45\n      jump\t// in\n    tag_103:\n        /* \"#utility.yul\":3771:3827   */\n    tag_102:\n        /* \"#utility.yul\":3857:3861   */\n      0x20\n        /* \"#utility.yul\":3849:3855   */\n      dup3\n        /* \"#utility.yul\":3845:3862   */\n      mul\n        /* \"#utility.yul\":3837:3862   */\n      swap1\n      pop\n        /* \"#utility.yul\":3917:3921   */\n      0x20\n        /* \"#utility.yul\":3911:3915   */\n      dup2\n        /* \"#utility.yul\":3907:3922   */\n      add\n        /* \"#utility.yul\":3899:3922   */\n      swap1\n      pop\n        /* \"#utility.yul\":3618:3929   */\n      swap2\n      swap1\n      pop\n      jump\t// out\n        /* \"#utility.yul\":3952:4662   */\n    tag_49:\n        /* \"#utility.yul\":4048:4053   */\n      0x00\n        /* \"#utility.yul\":4073:4154   */\n      tag_105\n        /* \"#utility.yul\":4089:4153   */\n      tag_106\n        /* \"#utility.yul\":4146:4152   */\n      dup5\n        /* \"#utility.yul\":4089:4153   */\n      tag_48\n      jump\t// in\n    tag_106:\n        /* \"#utility.yul\":4073:4154   */\n      tag_47\n      jump\t// in\n    tag_105:\n        /* \"#utility.yul\":4064:4154   */\n      swap1\n      pop\n        /* \"#utility.yul\":4174:4179   */\n      dup1\n        /* \"#utility.yul\":4203:4209   */\n      dup4\n        /* \"#utility.yul\":4196:4201   */\n      dup3\n        /* \"#utility.yul\":4189:4210   */\n      mstore\n        /* \"#utility.yul\":4237:4241   */\n      0x20\n        /* \"#utility.yul\":4230:4235   */\n      dup3\n        /* \"#utility.yul\":4226:4242   */\n      add\n        /* \"#utility.yul\":4219:4242   */\n      swap1\n      pop\n        /* \"#utility.yul\":4290:4294   */\n      0x20\n        /* \"#utility.yul\":4282:4288   */\n      dup5\n        /* \"#utility.yul\":4278:4295   */\n      mul\n        /* \"#utility.yul\":4270:4276   */\n      dup4\n        /* \"#utility.yul\":4266:4296   */\n      add\n        /* \"#utility.yul\":4319:4322   */\n      dup6\n        /* \"#utility.yul\":4311:4317   */\n      dup2\n        /* \"#utility.yul\":4308:4323   */\n      gt\n        /* \"#utility.yul\":4305:4427   */\n      iszero\n      tag_107\n      jumpi\n        /* \"#utility.yul\":4338:4417   */\n      tag_108\n      tag_38\n      jump\t// in\n    tag_108:\n        /* \"#utility.yul\":4305:4427   */\n    tag_107:\n        /* \"#utility.yul\":4453:4459   */\n      dup4\n        /* \"#utility.yul\":4436:4656   */\n    tag_109:\n        /* \"#utility.yul\":4470:4476   */\n      dup2\n        /* \"#utility.yul\":4465:4468   */\n      dup2\n        /* \"#utility.yul\":4462:4477   */\n      lt\n        /* \"#utility.yul\":4436:4656   */\n      iszero\n      tag_111\n      jumpi\n        /* \"#utility.yul\":4545:4548   */\n      dup1\n        /* \"#utility.yul\":4574:4611   */\n      tag_112\n        /* \"#utility.yul\":4607:4610   */\n      dup9\n        /* \"#utility.yul\":4595:4605   */\n      dup3\n        /* \"#utility.yul\":4574:4611   */\n      tag_42\n      jump\t// in\n    tag_112:\n        /* \"#utility.yul\":4569:4572   */\n      dup5\n        /* \"#utility.yul\":4562:4612   */\n      mstore\n        /* \"#utility.yul\":4641:4645   */\n      0x20\n        /* \"#utility.yul\":4636:4639   */\n      dup5\n        /* \"#utility.yul\":4632:4646   */\n      add\n        /* \"#utility.yul\":4625:4646   */\n      swap4\n      pop\n        /* \"#utility.yul\":4512:4656   */\n      pop\n        /* \"#utility.yul\":4496:4500   */\n      0x20\n        /* \"#utility.yul\":4491:4494   */\n      dup2\n        /* \"#utility.yul\":4487:4501   */\n      add\n        /* \"#utility.yul\":4480:4501   */\n      swap1\n      pop\n        /* \"#utility.yul\":4436:4656   */\n      jump(tag_109)\n    tag_111:\n        /* \"#utility.yul\":4440:4461   */\n      pop\n        /* \"#utility.yul\":4054:4662   */\n      pop\n      pop\n        /* \"#utility.yul\":3952:4662   */\n      swap4\n      swap3\n      pop\n      pop\n      pop\n      jump\t// out\n        /* \"#utility.yul\":4685:5055   */\n    tag_50:\n        /* \"#utility.yul\":4756:4761   */\n      0x00\n        /* \"#utility.yul\":4805:4808   */\n      dup3\n        /* \"#utility.yul\":4798:4802   */\n      0x1f\n        /* \"#utility.yul\":4790:4796   */\n      dup4\n        /* \"#utility.yul\":4786:4803   */\n      add\n        /* \"#utility.yul\":4782:4809   */\n      slt\n        /* \"#utility.yul\":4772:4894   */\n      tag_114\n      jumpi\n        /* \"#utility.yul\":4813:4892   */\n      tag_115\n      tag_36\n      jump\t// in\n    tag_115:\n        /* \"#utility.yul\":4772:4894   */\n    tag_114:\n        /* \"#utility.yul\":4930:4936   */\n      dup2\n        /* \"#utility.yul\":4917:4937   */\n      calldataload\n        /* \"#utility.yul\":4955:5049   */\n      tag_116\n        /* \"#utility.yul\":5045:5048   */\n      dup5\n        /* \"#utility.yul\":5037:5043   */\n      dup3\n        /* \"#utility.yul\":5030:5034   */\n      0x20\n        /* \"#utility.yul\":5022:5028   */\n      dup7\n        /* \"#utility.yul\":5018:5035   */\n      add\n        /* \"#utility.yul\":4955:5049   */\n      tag_49\n      jump\t// in\n    tag_116:\n        /* \"#utility.yul\":4946:5049   */\n      swap2\n      pop\n        /* \"#utility.yul\":4762:5055   */\n      pop\n        /* \"#utility.yul\":4685:5055   */\n      swap3\n      swap2\n      pop\n      pop\n      jump\t// out\n        /* \"#utility.yul\":5061:5600   */\n    tag_21:\n        /* \"#utility.yul\":5145:5151   */\n      0x00\n        /* \"#utility.yul\":5194:5196   */\n      0x20\n        /* \"#utility.yul\":5182:5191   */\n      dup3\n        /* \"#utility.yul\":5173:5180   */\n      dup5\n        /* \"#utility.yul\":5169:5192   */\n      sub\n        /* \"#utility.yul\":5165:5197   */\n      slt\n        /* \"#utility.yul\":5162:5281   */\n      iszero\n      tag_118\n      jumpi\n        /* \"#utility.yul\":5200:5279   */\n      tag_119\n      tag_34\n      jump\t// in\n    tag_119:\n        /* \"#utility.yul\":5162:5281   */\n    tag_118:\n        /* \"#utility.yul\":5348:5349   */\n      0x00\n        /* \"#utility.yul\":5337:5346   */\n      dup3\n        /* \"#utility.yul\":5333:5350   */\n      add\n        /* \"#utility.yul\":5320:5351   */\n      calldataload\n        /* \"#utility.yul\":5378:5396   */\n      0xffffffffffffffff\n        /* \"#utility.yul\":5370:5376   */\n      dup2\n        /* \"#utility.yul\":5367:5397   */\n      gt\n        /* \"#utility.yul\":5364:5481   */\n      iszero\n      tag_120\n      jumpi\n        /* \"#utility.yul\":5400:5479   */\n      tag_121\n      tag_35\n      jump\t// in\n    tag_121:\n        /* \"#utility.yul\":5364:5481   */\n    tag_120:\n        /* \"#utility.yul\":5505:5583   */\n      tag_122\n        /* \"#utility.yul\":5575:5582   */\n      dup5\n        /* \"#utility.yul\":5566:5572   */\n      dup3\n        /* \"#utility.yul\":5555:5564   */\n      dup6\n        /* \"#utility.yul\":5551:5573   */\n      add\n        /* \"#utility.yul\":5505:5583   */\n      tag_50\n      jump\t// in\n    tag_122:\n        /* \"#utility.yul\":5495:5583   */\n      swap2\n      pop\n        /* \"#utility.yul\":5291:5593   */\n      pop\n        /* \"#utility.yul\":5061:5600   */\n      swap3\n      swap2\n      pop\n      pop\n      jump\t// out\n        /* \"#utility.yul\":5606:5720   */\n    tag_51:\n        /* \"#utility.yul\":5673:5679   */\n      0x00\n        /* \"#utility.yul\":5707:5712   */\n      dup2\n        /* \"#utility.yul\":5701:5713   */\n      mload\n        /* \"#utility.yul\":5691:5713   */\n      swap1\n      pop\n        /* \"#utility.yul\":5606:5720   */\n      swap2\n      swap1\n      pop\n      jump\t// out\n        /* \"#utility.yul\":5726:5910   */\n    tag_52:\n        /* \"#utility.yul\":5825:5836   */\n      0x00\n        /* \"#utility.yul\":5859:5865   */\n      dup3\n        /* \"#utility.yul\":5854:5857   */\n      dup3\n        /* \"#utility.yul\":5847:5866   */\n      mstore\n        /* \"#utility.yul\":5899:5903   */\n      0x20\n        /* \"#utility.yul\":5894:5897   */\n      dup3\n        /* \"#utility.yul\":5890:5904   */\n      add\n        /* \"#utility.yul\":5875:5904   */\n      swap1\n      pop\n        /* \"#utility.yul\":5726:5910   */\n      swap3\n      swap2\n      pop\n      pop\n      jump\t// out\n        /* \"#utility.yul\":5916:6048   */\n    tag_53:\n        /* \"#utility.yul\":5983:5987   */\n      0x00\n        /* \"#utility.yul\":6006:6009   */\n      dup2\n        /* \"#utility.yul\":5998:6009   */\n      swap1\n      pop\n        /* \"#utility.yul\":6036:6040   */\n      0x20\n        /* \"#utility.yul\":6031:6034   */\n      dup3\n        /* \"#utility.yul\":6027:6041   */\n      add\n        /* \"#utility.yul\":6019:6041   */\n      swap1\n      pop\n        /* \"#utility.yul\":5916:6048   */\n      swap2\n      swap1\n      pop\n      jump\t// out\n        /* \"#utility.yul\":6054:6162   */\n    tag_54:\n        /* \"#utility.yul\":6131:6155   */\n      tag_127\n        /* \"#utility.yul\":6149:6154   */\n      dup2\n        /* \"#utility.yul\":6131:6155   */\n      tag_40\n      jump\t// in\n    tag_127:\n        /* \"#utility.yul\":6126:6129   */\n      dup3\n        /* \"#utility.yul\":6119:6156   */\n      mstore\n        /* \"#utility.yul\":6054:6162   */\n      pop\n      pop\n      jump\t// out\n        /* \"#utility.yul\":6168:6347   */\n    tag_55:\n        /* \"#utility.yul\":6237:6247   */\n      0x00\n        /* \"#utility.yul\":6258:6304   */\n      tag_129\n        /* \"#utility.yul\":6300:6303   */\n      dup4\n        /* \"#utility.yul\":6292:6298   */\n      dup4\n        /* \"#utility.yul\":6258:6304   */\n      tag_54\n      jump\t// in\n    tag_129:\n        /* \"#utility.yul\":6336:6340   */\n      0x20\n        /* \"#utility.yul\":6331:6334   */\n      dup4\n        /* \"#utility.yul\":6327:6341   */\n      add\n        /* \"#utility.yul\":6313:6341   */\n      swap1\n      pop\n        /* \"#utility.yul\":6168:6347   */\n      swap3\n      swap2\n      pop\n      pop\n      jump\t// out\n        /* \"#utility.yul\":6353:6466   */\n    tag_56:\n        /* \"#utility.yul\":6423:6427   */\n      0x00\n        /* \"#utility.yul\":6455:6459   */\n      0x20\n        /* \"#utility.yul\":6450:6453   */\n      dup3\n        /* \"#utility.yul\":6446:6460   */\n      add\n        /* \"#utility.yul\":6438:6460   */\n      swap1\n      pop\n        /* \"#utility.yul\":6353:6466   */\n      swap2\n      swap1\n      pop\n      jump\t// out\n        /* \"#utility.yul\":6502:7234   */\n    tag_57:\n        /* \"#utility.yul\":6621:6624   */\n      0x00\n        /* \"#utility.yul\":6650:6704   */\n      tag_132\n        /* \"#utility.yul\":6698:6703   */\n      dup3\n        /* \"#utility.yul\":6650:6704   */\n      tag_51\n      jump\t// in\n    tag_132:\n        /* \"#utility.yul\":6720:6806   */\n      tag_133\n        /* \"#utility.yul\":6799:6805   */\n      dup2\n        /* \"#utility.yul\":6794:6797   */\n      dup6\n        /* \"#utility.yul\":6720:6806   */\n      tag_52\n      jump\t// in\n    tag_133:\n        /* \"#utility.yul\":6713:6806   */\n      swap4\n      pop\n        /* \"#utility.yul\":6830:6886   */\n      tag_134\n        /* \"#utility.yul\":6880:6885   */\n      dup4\n        /* \"#utility.yul\":6830:6886   */\n      tag_53\n      jump\t// in\n    tag_134:\n        /* \"#utility.yul\":6909:6916   */\n      dup1\n        /* \"#utility.yul\":6940:6941   */\n      0x00\n        /* \"#utility.yul\":6925:7209   */\n    tag_135:\n        /* \"#utility.yul\":6950:6956   */\n      dup4\n        /* \"#utility.yul\":6947:6948   */\n      dup2\n        /* \"#utility.yul\":6944:6957   */\n      lt\n        /* \"#utility.yul\":6925:7209   */\n      iszero\n      tag_137\n      jumpi\n        /* \"#utility.yul\":7026:7032   */\n      dup2\n        /* \"#utility.yul\":7020:7033   */\n      mload\n        /* \"#utility.yul\":7053:7116   */\n      tag_138\n        /* \"#utility.yul\":7112:7115   */\n      dup9\n        /* \"#utility.yul\":7097:7110   */\n      dup3\n        /* \"#utility.yul\":7053:7116   */\n      tag_55\n      jump\t// in\n    tag_138:\n        /* \"#utility.yul\":7046:7116   */\n      swap8\n      pop\n        /* \"#utility.yul\":7139:7199   */\n      tag_139\n        /* \"#utility.yul\":7192:7198   */\n      dup4\n        /* \"#utility.yul\":7139:7199   */\n      tag_56\n      jump\t// in\n    tag_139:\n        /* \"#utility.yul\":7129:7199   */\n      swap3\n      pop\n        /* \"#utility.yul\":6985:7209   */\n      pop\n        /* \"#utility.yul\":6972:6973   */\n      0x01\n        /* \"#utility.yul\":6969:6970   */\n      dup2\n        /* \"#utility.yul\":6965:6974   */\n      add\n        /* \"#utility.yul\":6960:6974   */\n      swap1\n      pop\n        /* \"#utility.yul\":6925:7209   */\n      jump(tag_135)\n    tag_137:\n        /* \"#utility.yul\":6929:6943   */\n      pop\n        /* \"#utility.yul\":7225:7228   */\n      dup6\n        /* \"#utility.yul\":7218:7228   */\n      swap4\n      pop\n        /* \"#utility.yul\":6626:7234   */\n      pop\n      pop\n      pop\n        /* \"#utility.yul\":6502:7234   */\n      swap3\n      swap2\n      pop\n      pop\n      jump\t// out\n        /* \"#utility.yul\":7240:7613   */\n    tag_24:\n        /* \"#utility.yul\":7383:7387   */\n      0x00\n        /* \"#utility.yul\":7421:7423   */\n      0x20\n        /* \"#utility.yul\":7410:7419   */\n      dup3\n        /* \"#utility.yul\":7406:7424   */\n      add\n        /* \"#utility.yul\":7398:7424   */\n      swap1\n      pop\n        /* \"#utility.yul\":7470:7479   */\n      dup2\n        /* \"#utility.yul\":7464:7468   */\n      dup2\n        /* \"#utility.yul\":7460:7480   */\n      sub\n        /* \"#utility.yul\":7456:7457   */\n      0x00\n        /* \"#utility.yul\":7445:7454   */\n      dup4\n        /* \"#utility.yul\":7441:7458   */\n      add\n        /* \"#utility.yul\":7434:7481   */\n      mstore\n        /* \"#utility.yul\":7498:7606   */\n      tag_141\n        /* \"#utility.yul\":7601:7605   */\n      dup2\n        /* \"#utility.yul\":7592:7598   */\n      dup5\n        /* \"#utility.yul\":7498:7606   */\n      tag_57\n      jump\t// in\n    tag_141:\n        /* \"#utility.yul\":7490:7606   */\n      swap1\n      pop\n        /* \"#utility.yul\":7240:7613   */\n      swap3\n      swap2\n      pop\n      pop\n      jump\t// out\n\n    auxdata: 0xa2646970667358221220c32f62b8d1e54e91bc645f5d57cc35aacf3683a452dd7d87d007dbc7cf4df32964736f6c63430008140033\n}\n",
				"bytecode": {
					"linkReferences": {},
					"object": "608060405234801561000f575f80fd5b5061052a8061001d5f395ff3fe608060405234801561000f575f80fd5b506004361061004a575f3560e01c806326121ff01461004e57806340dcbb081461005857806371e5ee5f14610074578063baf71609146100a4575b5f80fd5b6100566100d4565b005b610072600480360381019061006d91906101bd565b61011c565b005b61008e6004803603810190610089919061023b565b610120565b60405161009b9190610275565b60405180910390f35b6100be60048036038101906100b991906103d6565b61013f565b6040516100cb91906104d4565b60405180910390f35b6100f15f600160025f600181526020019081526020015f20610146565b5f60025f600181526020019081526020015f2090505f60405180602001604052805f81525090505050565b5050565b5f818154811061012e575f80fd5b905f5260205f20015f915090505481565b6060919050565b505050565b5f604051905090565b5f80fd5b5f80fd5b5f80fd5b5f80fd5b5f80fd5b5f8083601f84011261017d5761017c61015c565b5b8235905067ffffffffffffffff81111561019a57610199610160565b5b6020830191508360208202830111156101b6576101b5610164565b5b9250929050565b5f80602083850312156101d3576101d2610154565b5b5f83013567ffffffffffffffff8111156101f0576101ef610158565b5b6101fc85828601610168565b92509250509250929050565b5f819050919050565b61021a81610208565b8114610224575f80fd5b50565b5f8135905061023581610211565b92915050565b5f602082840312156102505761024f610154565b5b5f61025d84828501610227565b91505092915050565b61026f81610208565b82525050565b5f6020820190506102885f830184610266565b92915050565b5f601f19601f8301169050919050565b7f4e487b71000000000000000000000000000000000000000000000000000000005f52604160045260245ffd5b6102d48261028e565b810181811067ffffffffffffffff821117156102f3576102f261029e565b5b80604052505050565b5f61030561014b565b905061031182826102cb565b919050565b5f67ffffffffffffffff8211156103305761032f61029e565b5b602082029050602081019050919050565b5f61035361034e84610316565b6102fc565b9050808382526020820190506020840283018581111561037657610375610164565b5b835b8181101561039f578061038b8882610227565b845260208401935050602081019050610378565b5050509392505050565b5f82601f8301126103bd576103bc61015c565b5b81356103cd848260208601610341565b91505092915050565b5f602082840312156103eb576103ea610154565b5b5f82013567ffffffffffffffff81111561040857610407610158565b5b610414848285016103a9565b91505092915050565b5f81519050919050565b5f82825260208201905092915050565b5f819050602082019050919050565b61044f81610208565b82525050565b5f6104608383610446565b60208301905092915050565b5f602082019050919050565b5f6104828261041d565b61048c8185610427565b935061049783610437565b805f5b838110156104c75781516104ae8882610455565b97506104b98361046c565b92505060018101905061049a565b5085935050505092915050565b5f6020820190508181035f8301526104ec8184610478565b90509291505056fea2646970667358221220c32f62b8d1e54e91bc645f5d57cc35aacf3683a452dd7d87d007dbc7cf4df32964736f6c63430008140033",
					"opcodes": "PUSH1 0x80 PUSH1 0x40 MSTORE CALLVALUE DUP1 ISZERO PUSH2 0xF JUMPI PUSH0 DUP1 REVERT JUMPDEST POP PUSH2 0x52A DUP1 PUSH2 0x1D PUSH0 CODECOPY PUSH0 RETURN INVALID PUSH1 0x80 PUSH1 0x40 MSTORE CALLVALUE DUP1 ISZERO PUSH2 0xF JUMPI PUSH0 DUP1 REVERT JUMPDEST POP PUSH1 0x4 CALLDATASIZE LT PUSH2 0x4A JUMPI PUSH0 CALLDATALOAD PUSH1 0xE0 SHR DUP1 PUSH4 0x26121FF0 EQ PUSH2 0x4E JUMPI DUP1 PUSH4 0x40DCBB08 EQ PUSH2 0x58 JUMPI DUP1 PUSH4 0x71E5EE5F EQ PUSH2 0x74 JUMPI DUP1 PUSH4 0xBAF71609 EQ PUSH2 0xA4 JUMPI JUMPDEST PUSH0 DUP1 REVERT JUMPDEST PUSH2 0x56 PUSH2 0xD4 JUMP JUMPDEST STOP JUMPDEST PUSH2 0x72 PUSH1 0x4 DUP1 CALLDATASIZE SUB DUP2 ADD SWAP1 PUSH2 0x6D SWAP2 SWAP1 PUSH2 0x1BD JUMP JUMPDEST PUSH2 0x11C JUMP JUMPDEST STOP JUMPDEST PUSH2 0x8E PUSH1 0x4 DUP1 CALLDATASIZE SUB DUP2 ADD SWAP1 PUSH2 0x89 SWAP2 SWAP1 PUSH2 0x23B JUMP JUMPDEST PUSH2 0x120 JUMP JUMPDEST PUSH1 0x40 MLOAD PUSH2 0x9B SWAP2 SWAP1 PUSH2 0x275 JUMP JUMPDEST PUSH1 0x40 MLOAD DUP1 SWAP2 SUB SWAP1 RETURN JUMPDEST PUSH2 0xBE PUSH1 0x4 DUP1 CALLDATASIZE SUB DUP2 ADD SWAP1 PUSH2 0xB9 SWAP2 SWAP1 PUSH2 0x3D6 JUMP JUMPDEST PUSH2 0x13F JUMP JUMPDEST PUSH1 0x40 MLOAD PUSH2 0xCB SWAP2 SWAP1 PUSH2 0x4D4 JUMP JUMPDEST PUSH1 0x40 MLOAD DUP1 SWAP2 SUB SWAP1 RETURN JUMPDEST PUSH2 0xF1 PUSH0 PUSH1 0x1 PUSH1 0x2 PUSH0 PUSH1 0x1 DUP2 MSTORE PUSH1 0x20 ADD SWAP1 DUP2 MSTORE PUSH1 0x20 ADD PUSH0 KECCAK256 PUSH2 0x146 JUMP JUMPDEST PUSH0 PUSH1 0x2 PUSH0 PUSH1 0x1 DUP2 MSTORE PUSH1 0x20 ADD SWAP1 DUP2 MSTORE PUSH1 0x20 ADD PUSH0 KECCAK256 SWAP1 POP PUSH0 PUSH1 0x40 MLOAD DUP1 PUSH1 0x20 ADD PUSH1 0x40 MSTORE DUP1 PUSH0 DUP2 MSTORE POP SWAP1 POP POP POP JUMP JUMPDEST POP POP JUMP JUMPDEST PUSH0 DUP2 DUP2 SLOAD DUP2 LT PUSH2 0x12E JUMPI PUSH0 DUP1 REVERT JUMPDEST SWAP1 PUSH0 MSTORE PUSH1 0x20 PUSH0 KECCAK256 ADD PUSH0 SWAP2 POP SWAP1 POP SLOAD DUP2 JUMP JUMPDEST PUSH1 0x60 SWAP2 SWAP1 POP JUMP JUMPDEST POP POP POP JUMP JUMPDEST PUSH0 PUSH1 0x40 MLOAD SWAP1 POP SWAP1 JUMP JUMPDEST PUSH0 DUP1 REVERT JUMPDEST PUSH0 DUP1 REVERT JUMPDEST PUSH0 DUP1 REVERT JUMPDEST PUSH0 DUP1 REVERT JUMPDEST PUSH0 DUP1 REVERT JUMPDEST PUSH0 DUP1 DUP4 PUSH1 0x1F DUP5 ADD SLT PUSH2 0x17D JUMPI PUSH2 0x17C PUSH2 0x15C JUMP JUMPDEST JUMPDEST DUP3 CALLDATALOAD SWAP1 POP PUSH8 0xFFFFFFFFFFFFFFFF DUP2 GT ISZERO PUSH2 0x19A JUMPI PUSH2 0x199 PUSH2 0x160 JUMP JUMPDEST JUMPDEST PUSH1 0x20 DUP4 ADD SWAP2 POP DUP4 PUSH1 0x20 DUP3 MUL DUP4 ADD GT ISZERO PUSH2 0x1B6 JUMPI PUSH2 0x1B5 PUSH2 0x164 JUMP JUMPDEST JUMPDEST SWAP3 POP SWAP3 SWAP1 POP JUMP JUMPDEST PUSH0 DUP1 PUSH1 0x20 DUP4 DUP6 SUB SLT ISZERO PUSH2 0x1D3 JUMPI PUSH2 0x1D2 PUSH2 0x154 JUMP JUMPDEST JUMPDEST PUSH0 DUP4 ADD CALLDATALOAD PUSH8 0xFFFFFFFFFFFFFFFF DUP2 GT ISZERO PUSH2 0x1F0 JUMPI PUSH2 0x1EF PUSH2 0x158 JUMP JUMPDEST JUMPDEST PUSH2 0x1FC DUP6 DUP3 DUP7 ADD PUSH2 0x168 JUMP JUMPDEST SWAP3 POP SWAP3 POP POP SWAP3 POP SWAP3 SWAP1 POP JUMP JUMPDEST PUSH0 DUP2 SWAP1 POP SWAP2 SWAP1 POP JUMP JUMPDEST PUSH2 0x21A DUP2 PUSH2 0x208 JUMP JUMPDEST DUP2 EQ PUSH2 0x224 JUMPI PUSH0 DUP1 REVERT JUMPDEST POP JUMP JUMPDEST PUSH0 DUP2 CALLDATALOAD SWAP1 POP PUSH2 0x235 DUP2 PUSH2 0x211 JUMP JUMPDEST SWAP3 SWAP2 POP POP JUMP JUMPDEST PUSH0 PUSH1 0x20 DUP3 DUP5 SUB SLT ISZERO PUSH2 0x250 JUMPI PUSH2 0x24F PUSH2 0x154 JUMP JUMPDEST JUMPDEST PUSH0 PUSH2 0x25D DUP5 DUP3 DUP6 ADD PUSH2 0x227 JUMP JUMPDEST SWAP2 POP POP SWAP3 SWAP2 POP POP JUMP JUMPDEST PUSH2 0x26F DUP2 PUSH2 0x208 JUMP JUMPDEST DUP3 MSTORE POP POP JUMP JUMPDEST PUSH0 PUSH1 0x20 DUP3 ADD SWAP1 POP PUSH2 0x288 PUSH0 DUP4 ADD DUP5 PUSH2 0x266 JUMP JUMPDEST SWAP3 SWAP2 POP POP JUMP JUMPDEST PUSH0 PUSH1 0x1F NOT PUSH1 0x1F DUP4 ADD AND SWAP1 POP SWAP2 SWAP1 POP JUMP JUMPDEST PUSH32 0x4E487B7100000000000000000000000000000000000000000000000000000000 PUSH0 MSTORE PUSH1 0x41 PUSH1 0x4 MSTORE PUSH1 0x24 PUSH0 REVERT JUMPDEST PUSH2 0x2D4 DUP3 PUSH2 0x28E JUMP JUMPDEST DUP2 ADD DUP2 DUP2 LT PUSH8 0xFFFFFFFFFFFFFFFF DUP3 GT OR ISZERO PUSH2 0x2F3 JUMPI PUSH2 0x2F2 PUSH2 0x29E JUMP JUMPDEST JUMPDEST DUP1 PUSH1 0x40 MSTORE POP POP POP JUMP JUMPDEST PUSH0 PUSH2 0x305 PUSH2 0x14B JUMP JUMPDEST SWAP1 POP PUSH2 0x311 DUP3 DUP3 PUSH2 0x2CB JUMP JUMPDEST SWAP2 SWAP1 POP JUMP JUMPDEST PUSH0 PUSH8 0xFFFFFFFFFFFFFFFF DUP3 GT ISZERO PUSH2 0x330 JUMPI PUSH2 0x32F PUSH2 0x29E JUMP JUMPDEST JUMPDEST PUSH1 0x20 DUP3 MUL SWAP1 POP PUSH1 0x20 DUP2 ADD SWAP1 POP SWAP2 SWAP1 POP JUMP JUMPDEST PUSH0 PUSH2 0x353 PUSH2 0x34E DUP5 PUSH2 0x316 JUMP JUMPDEST PUSH2 0x2FC JUMP JUMPDEST SWAP1 POP DUP1 DUP4 DUP3 MSTORE PUSH1 0x20 DUP3 ADD SWAP1 POP PUSH1 0x20 DUP5 MUL DUP4 ADD DUP6 DUP2 GT ISZERO PUSH2 0x376 JUMPI PUSH2 0x375 PUSH2 0x164 JUMP JUMPDEST JUMPDEST DUP4 JUMPDEST DUP2 DUP2 LT ISZERO PUSH2 0x39F JUMPI DUP1 PUSH2 0x38B DUP9 DUP3 PUSH2 0x227 JUMP JUMPDEST DUP5 MSTORE PUSH1 0x20 DUP5 ADD SWAP4 POP POP PUSH1 0x20 DUP2 ADD SWAP1 POP PUSH2 0x378 JUMP JUMPDEST POP POP POP SWAP4 SWAP3 POP POP POP JUMP JUMPDEST PUSH0 DUP3 PUSH1 0x1F DUP4 ADD SLT PUSH2 0x3BD JUMPI PUSH2 0x3BC PUSH2 0x15C JUMP JUMPDEST JUMPDEST DUP2 CALLDATALOAD PUSH2 0x3CD DUP5 DUP3 PUSH1 0x20 DUP7 ADD PUSH2 0x341 JUMP JUMPDEST SWAP2 POP POP SWAP3 SWAP2 POP POP JUMP JUMPDEST PUSH0 PUSH1 0x20 DUP3 DUP5 SUB SLT ISZERO PUSH2 0x3EB JUMPI PUSH2 0x3EA PUSH2 0x154 JUMP JUMPDEST JUMPDEST PUSH0 DUP3 ADD CALLDATALOAD PUSH8 0xFFFFFFFFFFFFFFFF DUP2 GT ISZERO PUSH2 0x408 JUMPI PUSH2 0x407 PUSH2 0x158 JUMP JUMPDEST JUMPDEST PUSH2 0x414 DUP5 DUP3 DUP6 ADD PUSH2 0x3A9 JUMP JUMPDEST SWAP2 POP POP SWAP3 SWAP2 POP POP JUMP JUMPDEST PUSH0 DUP2 MLOAD SWAP1 POP SWAP2 SWAP1 POP JUMP JUMPDEST PUSH0 DUP3 DUP3 MSTORE PUSH1 0x20 DUP3 ADD SWAP1 POP SWAP3 SWAP2 POP POP JUMP JUMPDEST PUSH0 DUP2 SWAP1 POP PUSH1 0x20 DUP3 ADD SWAP1 POP SWAP2 SWAP1 POP JUMP JUMPDEST PUSH2 0x44F DUP2 PUSH2 0x208 JUMP JUMPDEST DUP3 MSTORE POP POP JUMP JUMPDEST PUSH0 PUSH2 0x460 DUP4 DUP4 PUSH2 0x446 JUMP JUMPDEST PUSH1 0x20 DUP4 ADD SWAP1 POP SWAP3 SWAP2 POP POP JUMP JUMPDEST PUSH0 PUSH1 0x20 DUP3 ADD SWAP1 POP SWAP2 SWAP1 POP JUMP JUMPDEST PUSH0 PUSH2 0x482 DUP3 PUSH2 0x41D JUMP JUMPDEST PUSH2 0x48C DUP2 DUP6 PUSH2 0x427 JUMP JUMPDEST SWAP4 POP PUSH2 0x497 DUP4 PUSH2 0x437 JUMP JUMPDEST DUP1 PUSH0 JUMPDEST DUP4 DUP2 LT ISZERO PUSH2 0x4C7 JUMPI DUP2 MLOAD PUSH2 0x4AE DUP9 DUP3 PUSH2 0x455 JUMP JUMPDEST SWAP8 POP PUSH2 0x4B9 DUP4 PUSH2 0x46C JUMP JUMPDEST SWAP3 POP POP PUSH1 0x1 DUP2 ADD SWAP1 POP PUSH2 0x49A JUMP JUMPDEST POP DUP6 SWAP4 POP POP POP POP SWAP3 SWAP2 POP POP JUMP JUMPDEST PUSH0 PUSH1 0x20 DUP3 ADD SWAP1 POP DUP2 DUP2 SUB PUSH0 DUP4 ADD MSTORE PUSH2 0x4EC DUP2 DUP5 PUSH2 0x478 JUMP JUMPDEST SWAP1 POP SWAP3 SWAP2 POP POP JUMP INVALID LOG2 PUSH5 0x6970667358 0x22 SLT KECCAK256 0xC3 0x2F PUSH3 0xB8D1E5 0x4E SWAP2 0xBC PUSH5 0x5F5D57CC35 0xAA 0xCF CALLDATASIZE DUP4 LOG4 MSTORE 0xDD PUSH30 0x87D007DBC7CF4DF32964736F6C6343000814003300000000000000000000 "
				},
				"gasEstimates": {
					"creation": {
						"codeDepositCost": "264400",
						"executionCost": "304",
						"totalCost": "264704"
					},
					"external": {
						"arr(uint256)": "infinite",
						"f()": "372",
						"g(uint256[])": "infinite",
						"h(uint256[])": "470"
					},
					"internal": {
						"_f(uint256[] storage pointer,mapping(uint256 => address),struct DataLocations.MyStruct storage pointer)": "15"
					}
				},
				"methodIdentifiers": {
					"arr(uint256)": "71e5ee5f",
					"f()": "26121ff0",
					"g(uint256[])": "baf71609",
					"h(uint256[])": "40dcbb08"
				}
			},
			"storageLayout": {
				"storage": [
					{
						"astId": 5,
						"contract": "level0/solidity_basic/DataLocations.sol:DataLocations",
						"label": "arr",
						"offset": 0,
						"slot": "0",
						"type": "t_array(t_uint256)dyn_storage"
					},
					{
						"astId": 9,
						"contract": "level0/solidity_basic/DataLocations.sol:DataLocations",
						"label": "map",
						"offset": 0,
						"slot": "1",
						"type": "t_mapping(t_uint256,t_address)"
					},
					{
						"astId": 17,
						"contract": "level0/solidity_basic/DataLocations.sol:DataLocations",
						"label": "myStructs",
						"offset": 0,
						"slot": "2",
						"type": "t_mapping(t_uint256,t_struct(MyStruct)12_storage)"
					}
				],
				"types": {
					"t_address": {
						"encoding": "inplace",
						"label": "address",
						"numberOfBytes": "20"
					},
					"t_array(t_uint256)dyn_storage": {
						"base": "t_uint256",
						"encoding": "dynamic_array",
						"label": "uint256[]",
						"numberOfBytes": "32"
					},
					"t_mapping(t_uint256,t_address)": {
						"encoding": "mapping",
						"key": "t_uint256",
						"label": "mapping(uint256 => address)",
						"numberOfBytes": "32",
						"value": "t_address"
					},
					"t_mapping(t_uint256,t_struct(MyStruct)12_storage)": {
						"encoding": "mapping",
						"key": "t_uint256",
						"label": "mapping(uint256 => struct DataLocations.MyStruct)",
						"numberOfBytes": "32",
						"value": "t_struct(MyStruct)12_storage"
					},
					"t_struct(MyStruct)12_storage": {
						"encoding": "inplace",
						"label": "struct DataLocations.MyStruct",
						"members": [
							{
								"astId": 11,
								"contract": "level0/solidity_basic/DataLocations.sol:DataLocations",
								"label": "foo",
								"offset": 0,
								"slot": "0",
								"type": "t_uint256"
							}
						],
						"numberOfBytes": "32"
					},
					"t_uint256": {
						"encoding": "inplace",
						"label": "uint256",
						"numberOfBytes": "32"
					}
				}
			},
			"userdoc": {
				"kind": "user",
				"methods": {},
				"notice": "Data Locations Data Locations - Storage, Memory and Calldata Variables are declared as either storage, memory or calldata to explicitly specify the location of the data. storage variable is a state variable (store on blockchain) memory variable is in memory and it exists while a function is being called calldata special data location that contains function arguments",
				"version": 1
			}
		}
	}
}