{
	"level0/solidity_basic/DataLocations.sol": {
		"TestStorage": {
			"abi": [
				{
					"inputs": [],
					"name": "test",
					"outputs": [],
					"stateMutability": "nonpayable",
					"type": "function"
				},
				{
					"inputs": [],
					"name": "val",
					"outputs": [
						{
							"internalType": "uint256",
							"name": "",
							"type": "uint256"
						}
					],
					"stateMutability": "view",
					"type": "function"
				}
			],
			"devdoc": {
				"kind": "dev",
				"methods": {},
				"version": 1
			},
			"evm": {
				"assembly": "    /* \"level0/solidity_basic/DataLocations.sol\":1916:2076  contract TestStorage {... */\n  mstore(0x40, 0x80)\n  callvalue\n  dup1\n  iszero\n  tag_1\n  jumpi\n  0x00\n  dup1\n  revert\ntag_1:\n  pop\n  dataSize(sub_0)\n  dup1\n  dataOffset(sub_0)\n  0x00\n  codecopy\n  0x00\n  return\nstop\n\nsub_0: assembly {\n        /* \"level0/solidity_basic/DataLocations.sol\":1916:2076  contract TestStorage {... */\n      mstore(0x40, 0x80)\n      callvalue\n      dup1\n      iszero\n      tag_1\n      jumpi\n      0x00\n      dup1\n      revert\n    tag_1:\n      pop\n      jumpi(tag_2, lt(calldatasize, 0x04))\n      shr(0xe0, calldataload(0x00))\n      dup1\n      0x3c6bb436\n      eq\n      tag_3\n      jumpi\n      dup1\n      0xf8a8fd6d\n      eq\n      tag_4\n      jumpi\n    tag_2:\n      0x00\n      dup1\n      revert\n        /* \"level0/solidity_basic/DataLocations.sol\":1943:1961  uint256 public val */\n    tag_3:\n      tag_5\n      tag_6\n      jump\t// in\n    tag_5:\n      mload(0x40)\n      tag_7\n      swap2\n      swap1\n      tag_8\n      jump\t// in\n    tag_7:\n      mload(0x40)\n      dup1\n      swap2\n      sub\n      swap1\n      return\n        /* \"level0/solidity_basic/DataLocations.sol\":1968:2074  function test() public {... */\n    tag_4:\n      tag_9\n      tag_10\n      jump\t// in\n    tag_9:\n      stop\n        /* \"level0/solidity_basic/DataLocations.sol\":1943:1961  uint256 public val */\n    tag_6:\n      sload(0x00)\n      dup2\n      jump\t// out\n        /* \"level0/solidity_basic/DataLocations.sol\":1968:2074  function test() public {... */\n    tag_10:\n        /* \"level0/solidity_basic/DataLocations.sol\":2007:2010  123 */\n      0x7b\n        /* \"level0/solidity_basic/DataLocations.sol\":2001:2004  val */\n      0x00\n        /* \"level0/solidity_basic/DataLocations.sol\":2001:2010  val = 123 */\n      dup2\n      swap1\n      sstore\n      pop\n        /* \"level0/solidity_basic/DataLocations.sol\":2020:2034  bytes memory b */\n      0x00\n        /* \"level0/solidity_basic/DataLocations.sol\":2020:2039  bytes memory b = \"\" */\n      mload(0x40)\n      dup1\n      0x20\n      add\n      0x40\n      mstore\n      dup1\n      0x00\n      dup2\n      mstore\n      pop\n      swap1\n      pop\n        /* \"level0/solidity_basic/DataLocations.sol\":2049:2059  msg.sender */\n      caller\n        /* \"level0/solidity_basic/DataLocations.sol\":2049:2064  msg.sender.call */\n      0xffffffffffffffffffffffffffffffffffffffff\n      and\n        /* \"level0/solidity_basic/DataLocations.sol\":2065:2066  b */\n      dup2\n        /* \"level0/solidity_basic/DataLocations.sol\":2049:2067  msg.sender.call(b) */\n      mload(0x40)\n      tag_12\n      swap2\n      swap1\n      tag_13\n      jump\t// in\n    tag_12:\n      0x00\n      mload(0x40)\n      dup1\n      dup4\n      sub\n      dup2\n      0x00\n      dup7\n      gas\n      call\n      swap2\n      pop\n      pop\n      returndatasize\n      dup1\n      0x00\n      dup2\n      eq\n      tag_16\n      jumpi\n      mload(0x40)\n      swap2\n      pop\n      and(add(returndatasize, 0x3f), not(0x1f))\n      dup3\n      add\n      0x40\n      mstore\n      returndatasize\n      dup3\n      mstore\n      returndatasize\n      0x00\n      0x20\n      dup5\n      add\n      returndatacopy\n      jump(tag_15)\n    tag_16:\n      0x60\n      swap2\n      pop\n    tag_15:\n      pop\n      pop\n      pop\n        /* \"level0/solidity_basic/DataLocations.sol\":1991:2074  {... */\n      pop\n        /* \"level0/solidity_basic/DataLocations.sol\":1968:2074  function test() public {... */\n      jump\t// out\n        /* \"#utility.yul\":7:84   */\n    tag_17:\n        /* \"#utility.yul\":44:51   */\n      0x00\n        /* \"#utility.yul\":73:78   */\n      dup2\n        /* \"#utility.yul\":62:78   */\n      swap1\n      pop\n        /* \"#utility.yul\":7:84   */\n      swap2\n      swap1\n      pop\n      jump\t// out\n        /* \"#utility.yul\":90:208   */\n    tag_18:\n        /* \"#utility.yul\":177:201   */\n      tag_26\n        /* \"#utility.yul\":195:200   */\n      dup2\n        /* \"#utility.yul\":177:201   */\n      tag_17\n      jump\t// in\n    tag_26:\n        /* \"#utility.yul\":172:175   */\n      dup3\n        /* \"#utility.yul\":165:202   */\n      mstore\n        /* \"#utility.yul\":90:208   */\n      pop\n      pop\n      jump\t// out\n        /* \"#utility.yul\":214:436   */\n    tag_8:\n        /* \"#utility.yul\":307:311   */\n      0x00\n        /* \"#utility.yul\":345:347   */\n      0x20\n        /* \"#utility.yul\":334:343   */\n      dup3\n        /* \"#utility.yul\":330:348   */\n      add\n        /* \"#utility.yul\":322:348   */\n      swap1\n      pop\n        /* \"#utility.yul\":358:429   */\n      tag_28\n        /* \"#utility.yul\":426:427   */\n      0x00\n        /* \"#utility.yul\":415:424   */\n      dup4\n        /* \"#utility.yul\":411:428   */\n      add\n        /* \"#utility.yul\":402:408   */\n      dup5\n        /* \"#utility.yul\":358:429   */\n      tag_18\n      jump\t// in\n    tag_28:\n        /* \"#utility.yul\":214:436   */\n      swap3\n      swap2\n      pop\n      pop\n      jump\t// out\n        /* \"#utility.yul\":442:540   */\n    tag_19:\n        /* \"#utility.yul\":493:499   */\n      0x00\n        /* \"#utility.yul\":527:532   */\n      dup2\n        /* \"#utility.yul\":521:533   */\n      mload\n        /* \"#utility.yul\":511:533   */\n      swap1\n      pop\n        /* \"#utility.yul\":442:540   */\n      swap2\n      swap1\n      pop\n      jump\t// out\n        /* \"#utility.yul\":546:693   */\n    tag_20:\n        /* \"#utility.yul\":647:658   */\n      0x00\n        /* \"#utility.yul\":684:687   */\n      dup2\n        /* \"#utility.yul\":669:687   */\n      swap1\n      pop\n        /* \"#utility.yul\":546:693   */\n      swap3\n      swap2\n      pop\n      pop\n      jump\t// out\n        /* \"#utility.yul\":699:945   */\n    tag_21:\n        /* \"#utility.yul\":780:781   */\n      0x00\n        /* \"#utility.yul\":790:903   */\n    tag_32:\n        /* \"#utility.yul\":804:810   */\n      dup4\n        /* \"#utility.yul\":801:802   */\n      dup2\n        /* \"#utility.yul\":798:811   */\n      lt\n        /* \"#utility.yul\":790:903   */\n      iszero\n      tag_34\n      jumpi\n        /* \"#utility.yul\":889:890   */\n      dup1\n        /* \"#utility.yul\":884:887   */\n      dup3\n        /* \"#utility.yul\":880:891   */\n      add\n        /* \"#utility.yul\":874:892   */\n      mload\n        /* \"#utility.yul\":870:871   */\n      dup2\n        /* \"#utility.yul\":865:868   */\n      dup5\n        /* \"#utility.yul\":861:872   */\n      add\n        /* \"#utility.yul\":854:893   */\n      mstore\n        /* \"#utility.yul\":826:828   */\n      0x20\n        /* \"#utility.yul\":823:824   */\n      dup2\n        /* \"#utility.yul\":819:829   */\n      add\n        /* \"#utility.yul\":814:829   */\n      swap1\n      pop\n        /* \"#utility.yul\":790:903   */\n      jump(tag_32)\n    tag_34:\n        /* \"#utility.yul\":937:938   */\n      0x00\n        /* \"#utility.yul\":928:934   */\n      dup5\n        /* \"#utility.yul\":923:926   */\n      dup5\n        /* \"#utility.yul\":919:935   */\n      add\n        /* \"#utility.yul\":912:939   */\n      mstore\n        /* \"#utility.yul\":761:945   */\n      pop\n        /* \"#utility.yul\":699:945   */\n      pop\n      pop\n      pop\n      jump\t// out\n        /* \"#utility.yul\":951:1337   */\n    tag_22:\n        /* \"#utility.yul\":1055:1058   */\n      0x00\n        /* \"#utility.yul\":1083:1121   */\n      tag_36\n        /* \"#utility.yul\":1115:1120   */\n      dup3\n        /* \"#utility.yul\":1083:1121   */\n      tag_19\n      jump\t// in\n    tag_36:\n        /* \"#utility.yul\":1137:1225   */\n      tag_37\n        /* \"#utility.yul\":1218:1224   */\n      dup2\n        /* \"#utility.yul\":1213:1216   */\n      dup6\n        /* \"#utility.yul\":1137:1225   */\n      tag_20\n      jump\t// in\n    tag_37:\n        /* \"#utility.yul\":1130:1225   */\n      swap4\n      pop\n        /* \"#utility.yul\":1234:1299   */\n      tag_38\n        /* \"#utility.yul\":1292:1298   */\n      dup2\n        /* \"#utility.yul\":1287:1290   */\n      dup6\n        /* \"#utility.yul\":1280:1284   */\n      0x20\n        /* \"#utility.yul\":1273:1278   */\n      dup7\n        /* \"#utility.yul\":1269:1285   */\n      add\n        /* \"#utility.yul\":1234:1299   */\n      tag_21\n      jump\t// in\n    tag_38:\n        /* \"#utility.yul\":1324:1330   */\n      dup1\n        /* \"#utility.yul\":1319:1322   */\n      dup5\n        /* \"#utility.yul\":1315:1331   */\n      add\n        /* \"#utility.yul\":1308:1331   */\n      swap2\n      pop\n        /* \"#utility.yul\":1059:1337   */\n      pop\n        /* \"#utility.yul\":951:1337   */\n      swap3\n      swap2\n      pop\n      pop\n      jump\t// out\n        /* \"#utility.yul\":1343:1614   */\n    tag_13:\n        /* \"#utility.yul\":1473:1476   */\n      0x00\n        /* \"#utility.yul\":1495:1588   */\n      tag_40\n        /* \"#utility.yul\":1584:1587   */\n      dup3\n        /* \"#utility.yul\":1575:1581   */\n      dup5\n        /* \"#utility.yul\":1495:1588   */\n      tag_22\n      jump\t// in\n    tag_40:\n        /* \"#utility.yul\":1488:1588   */\n      swap2\n      pop\n        /* \"#utility.yul\":1605:1608   */\n      dup2\n        /* \"#utility.yul\":1598:1608   */\n      swap1\n      pop\n        /* \"#utility.yul\":1343:1614   */\n      swap3\n      swap2\n      pop\n      pop\n      jump\t// out\n\n    auxdata: 0xa26469706673582212203677664e08362a2fd82e9004968b3a50ab24776a187fd5415af5d215629ee86d64736f6c63430008140033\n}\n",
				"bytecode": {
					"linkReferences": {},
					"object": "608060405234801561000f575f80fd5b506101d08061001d5f395ff3fe608060405234801561000f575f80fd5b5060043610610034575f3560e01c80633c6bb43614610038578063f8a8fd6d14610056575b5f80fd5b610040610060565b60405161004d91906100ff565b60405180910390f35b61005e610065565b005b5f5481565b607b5f819055505f60405180602001604052805f81525090503373ffffffffffffffffffffffffffffffffffffffff16816040516100a39190610184565b5f604051808303815f865af19150503d805f81146100dc576040519150601f19603f3d011682016040523d82523d5f602084013e6100e1565b606091505b50505050565b5f819050919050565b6100f9816100e7565b82525050565b5f6020820190506101125f8301846100f0565b92915050565b5f81519050919050565b5f81905092915050565b5f5b8381101561014957808201518184015260208101905061012e565b5f8484015250505050565b5f61015e82610118565b6101688185610122565b935061017881856020860161012c565b80840191505092915050565b5f61018f8284610154565b91508190509291505056fea26469706673582212203677664e08362a2fd82e9004968b3a50ab24776a187fd5415af5d215629ee86d64736f6c63430008140033",
					"opcodes": "PUSH1 0x80 PUSH1 0x40 MSTORE CALLVALUE DUP1 ISZERO PUSH2 0xF JUMPI PUSH0 DUP1 REVERT JUMPDEST POP PUSH2 0x1D0 DUP1 PUSH2 0x1D PUSH0 CODECOPY PUSH0 RETURN INVALID PUSH1 0x80 PUSH1 0x40 MSTORE CALLVALUE DUP1 ISZERO PUSH2 0xF JUMPI PUSH0 DUP1 REVERT JUMPDEST POP PUSH1 0x4 CALLDATASIZE LT PUSH2 0x34 JUMPI PUSH0 CALLDATALOAD PUSH1 0xE0 SHR DUP1 PUSH4 0x3C6BB436 EQ PUSH2 0x38 JUMPI DUP1 PUSH4 0xF8A8FD6D EQ PUSH2 0x56 JUMPI JUMPDEST PUSH0 DUP1 REVERT JUMPDEST PUSH2 0x40 PUSH2 0x60 JUMP JUMPDEST PUSH1 0x40 MLOAD PUSH2 0x4D SWAP2 SWAP1 PUSH2 0xFF JUMP JUMPDEST PUSH1 0x40 MLOAD DUP1 SWAP2 SUB SWAP1 RETURN JUMPDEST PUSH2 0x5E PUSH2 0x65 JUMP JUMPDEST STOP JUMPDEST PUSH0 SLOAD DUP2 JUMP JUMPDEST PUSH1 0x7B PUSH0 DUP2 SWAP1 SSTORE POP PUSH0 PUSH1 0x40 MLOAD DUP1 PUSH1 0x20 ADD PUSH1 0x40 MSTORE DUP1 PUSH0 DUP2 MSTORE POP SWAP1 POP CALLER PUSH20 0xFFFFFFFFFFFFFFFFFFFFFFFFFFFFFFFFFFFFFFFF AND DUP2 PUSH1 0x40 MLOAD PUSH2 0xA3 SWAP2 SWAP1 PUSH2 0x184 JUMP JUMPDEST PUSH0 PUSH1 0x40 MLOAD DUP1 DUP4 SUB DUP2 PUSH0 DUP7 GAS CALL SWAP2 POP POP RETURNDATASIZE DUP1 PUSH0 DUP2 EQ PUSH2 0xDC JUMPI PUSH1 0x40 MLOAD SWAP2 POP PUSH1 0x1F NOT PUSH1 0x3F RETURNDATASIZE ADD AND DUP3 ADD PUSH1 0x40 MSTORE RETURNDATASIZE DUP3 MSTORE RETURNDATASIZE PUSH0 PUSH1 0x20 DUP5 ADD RETURNDATACOPY PUSH2 0xE1 JUMP JUMPDEST PUSH1 0x60 SWAP2 POP JUMPDEST POP POP POP POP JUMP JUMPDEST PUSH0 DUP2 SWAP1 POP SWAP2 SWAP1 POP JUMP JUMPDEST PUSH2 0xF9 DUP2 PUSH2 0xE7 JUMP JUMPDEST DUP3 MSTORE POP POP JUMP JUMPDEST PUSH0 PUSH1 0x20 DUP3 ADD SWAP1 POP PUSH2 0x112 PUSH0 DUP4 ADD DUP5 PUSH2 0xF0 JUMP JUMPDEST SWAP3 SWAP2 POP POP JUMP JUMPDEST PUSH0 DUP2 MLOAD SWAP1 POP SWAP2 SWAP1 POP JUMP JUMPDEST PUSH0 DUP2 SWAP1 POP SWAP3 SWAP2 POP POP JUMP JUMPDEST PUSH0 JUMPDEST DUP4 DUP2 LT ISZERO PUSH2 0x149 JUMPI DUP1 DUP3 ADD MLOAD DUP2 DUP5 ADD MSTORE PUSH1 0x20 DUP2 ADD SWAP1 POP PUSH2 0x12E JUMP JUMPDEST PUSH0 DUP5 DUP5 ADD MSTORE POP POP POP POP JUMP JUMPDEST PUSH0 PUSH2 0x15E DUP3 PUSH2 0x118 JUMP JUMPDEST PUSH2 0x168 DUP2 DUP6 PUSH2 0x122 JUMP JUMPDEST SWAP4 POP PUSH2 0x178 DUP2 DUP6 PUSH1 0x20 DUP7 ADD PUSH2 0x12C JUMP JUMPDEST DUP1 DUP5 ADD SWAP2 POP POP SWAP3 SWAP2 POP POP JUMP JUMPDEST PUSH0 PUSH2 0x18F DUP3 DUP5 PUSH2 0x154 JUMP JUMPDEST SWAP2 POP DUP2 SWAP1 POP SWAP3 SWAP2 POP POP JUMP INVALID LOG2 PUSH5 0x6970667358 0x22 SLT KECCAK256 CALLDATASIZE PUSH24 0x664E08362A2FD82E9004968B3A50AB24776A187FD5415AF5 0xD2 ISZERO PUSH3 0x9EE86D PUSH5 0x736F6C6343 STOP ADDMOD EQ STOP CALLER "
				},
				"gasEstimates": {
					"creation": {
						"codeDepositCost": "92800",
						"executionCost": "139",
						"totalCost": "92939"
					},
					"external": {
						"test()": "infinite",
						"val()": "2402"
					}
				},
				"methodIdentifiers": {
					"test()": "f8a8fd6d",
					"val()": "3c6bb436"
				}
			},
			"storageLayout": {
				"storage": [
					{
						"astId": 114,
						"contract": "level0/solidity_basic/DataLocations.sol:TestStorage",
						"label": "val",
						"offset": 0,
						"slot": "0",
						"type": "t_uint256"
					}
				],
				"types": {
					"t_uint256": {
						"encoding": "inplace",
						"label": "uint256",
						"numberOfBytes": "32"
					}
				}
			},
			"userdoc": {
				"kind": "user",
				"methods": {},
				"version": 1
			}
		}
	}
}