{
	"level0/solidity_basic/ErrorHandlingExample.sol": {
		"ErrorHandlingExample": {
			"abi": [
				{
					"inputs": [],
					"name": "balance",
					"outputs": [
						{
							"internalType": "uint256",
							"name": "",
							"type": "uint256"
						}
					],
					"stateMutability": "view",
					"type": "function"
				},
				{
					"inputs": [
						{
							"internalType": "address payable",
							"name": "addr",
							"type": "address"
						}
					],
					"name": "sendHalf",
					"outputs": [],
					"stateMutability": "payable",
					"type": "function"
				}
			],
			"devdoc": {
				"kind": "dev",
				"methods": {},
				"version": 1
			},
			"evm": {
				"assembly": "    /* \"level0/solidity_basic/ErrorHandlingExample.sol\":59:443  contract ErrorHandlingExample{... */\n  mstore(0x40, 0x80)\n  callvalue\n  dup1\n  iszero\n  tag_1\n  jumpi\n  0x00\n  dup1\n  revert\ntag_1:\n  pop\n  dataSize(sub_0)\n  dup1\n  dataOffset(sub_0)\n  0x00\n  codecopy\n  0x00\n  return\nstop\n\nsub_0: assembly {\n        /* \"level0/solidity_basic/ErrorHandlingExample.sol\":59:443  contract ErrorHandlingExample{... */\n      mstore(0x40, 0x80)\n      jumpi(tag_1, lt(calldatasize, 0x04))\n      shr(0xe0, calldataload(0x00))\n      dup1\n      0x75949c13\n      eq\n      tag_2\n      jumpi\n      dup1\n      0xb69ef8a8\n      eq\n      tag_3\n      jumpi\n    tag_1:\n      0x00\n      dup1\n      revert\n        /* \"level0/solidity_basic/ErrorHandlingExample.sol\":126:440  function sendHalf(address payable  addr) public  payable {... */\n    tag_2:\n      tag_4\n      0x04\n      dup1\n      calldatasize\n      sub\n      dup2\n      add\n      swap1\n      tag_5\n      swap2\n      swap1\n      tag_6\n      jump\t// in\n    tag_5:\n      tag_7\n      jump\t// in\n    tag_4:\n      stop\n        /* \"level0/solidity_basic/ErrorHandlingExample.sol\":97:116  uint public balance */\n    tag_3:\n      callvalue\n      dup1\n      iszero\n      tag_8\n      jumpi\n      0x00\n      dup1\n      revert\n    tag_8:\n      pop\n      tag_9\n      tag_10\n      jump\t// in\n    tag_9:\n      mload(0x40)\n      tag_11\n      swap2\n      swap1\n      tag_12\n      jump\t// in\n    tag_11:\n      mload(0x40)\n      dup1\n      swap2\n      sub\n      swap1\n      return\n        /* \"level0/solidity_basic/ErrorHandlingExample.sol\":126:440  function sendHalf(address payable  addr) public  payable {... */\n    tag_7:\n        /* \"level0/solidity_basic/ErrorHandlingExample.sol\":219:220  0 */\n      0x00\n        /* \"level0/solidity_basic/ErrorHandlingExample.sol\":215:216  2 */\n      0x02\n        /* \"level0/solidity_basic/ErrorHandlingExample.sol\":203:212  msg.value */\n      callvalue\n        /* \"level0/solidity_basic/ErrorHandlingExample.sol\":203:216  msg.value % 2 */\n      tag_14\n      swap2\n      swap1\n      tag_15\n      jump\t// in\n    tag_14:\n        /* \"level0/solidity_basic/ErrorHandlingExample.sol\":203:220  msg.value % 2 ==0 */\n      eq\n        /* \"level0/solidity_basic/ErrorHandlingExample.sol\":195:244  require(msg.value % 2 ==0, \"Even value required\") */\n      tag_16\n      jumpi\n      mload(0x40)\n      0x08c379a000000000000000000000000000000000000000000000000000000000\n      dup2\n      mstore\n      0x04\n      add\n      tag_17\n      swap1\n      tag_18\n      jump\t// in\n    tag_17:\n      mload(0x40)\n      dup1\n      swap2\n      sub\n      swap1\n      revert\n    tag_16:\n        /* \"level0/solidity_basic/ErrorHandlingExample.sol\":257:283  uint balanceBeforeTransfer */\n      0x00\n        /* \"level0/solidity_basic/ErrorHandlingExample.sol\":286:307  address(this).balance */\n      selfbalance\n        /* \"level0/solidity_basic/ErrorHandlingExample.sol\":257:307  uint balanceBeforeTransfer = address(this).balance */\n      swap1\n      pop\n        /* \"level0/solidity_basic/ErrorHandlingExample.sol\":320:324  addr */\n      dup2\n        /* \"level0/solidity_basic/ErrorHandlingExample.sol\":320:333  addr.transfer */\n      0xffffffffffffffffffffffffffffffffffffffff\n      and\n        /* \"level0/solidity_basic/ErrorHandlingExample.sol\":320:348  addr.transfer(msg.value / 2) */\n      0x08fc\n        /* \"level0/solidity_basic/ErrorHandlingExample.sol\":346:347  2 */\n      0x02\n        /* \"level0/solidity_basic/ErrorHandlingExample.sol\":334:343  msg.value */\n      callvalue\n        /* \"level0/solidity_basic/ErrorHandlingExample.sol\":334:347  msg.value / 2 */\n      tag_19\n      swap2\n      swap1\n      tag_20\n      jump\t// in\n    tag_19:\n        /* \"level0/solidity_basic/ErrorHandlingExample.sol\":320:348  addr.transfer(msg.value / 2) */\n      swap1\n      dup2\n      iszero\n      mul\n      swap1\n      mload(0x40)\n      0x00\n      mload(0x40)\n      dup1\n      dup4\n      sub\n      dup2\n      dup6\n      dup9\n      dup9\n      call\n      swap4\n      pop\n      pop\n      pop\n      pop\n      iszero\n      dup1\n      iszero\n      tag_22\n      jumpi\n      returndatasize\n      0x00\n      dup1\n      returndatacopy\n      revert(0x00, returndatasize)\n    tag_22:\n      pop\n        /* \"level0/solidity_basic/ErrorHandlingExample.sol\":428:429  2 */\n      0x02\n        /* \"level0/solidity_basic/ErrorHandlingExample.sol\":417:426  msg.value */\n      callvalue\n        /* \"level0/solidity_basic/ErrorHandlingExample.sol\":417:429  msg.value /2 */\n      tag_23\n      swap2\n      swap1\n      tag_20\n      jump\t// in\n    tag_23:\n        /* \"level0/solidity_basic/ErrorHandlingExample.sol\":393:414  balanceBeforeTransfer */\n      dup2\n        /* \"level0/solidity_basic/ErrorHandlingExample.sol\":393:429  balanceBeforeTransfer - msg.value /2 */\n      tag_24\n      swap2\n      swap1\n      tag_25\n      jump\t// in\n    tag_24:\n        /* \"level0/solidity_basic/ErrorHandlingExample.sol\":368:389  address(this).balance */\n      selfbalance\n        /* \"level0/solidity_basic/ErrorHandlingExample.sol\":368:429  address(this).balance == balanceBeforeTransfer - msg.value /2 */\n      eq\n        /* \"level0/solidity_basic/ErrorHandlingExample.sol\":361:430  assert(address(this).balance == balanceBeforeTransfer - msg.value /2) */\n      tag_26\n      jumpi\n      tag_27\n      tag_28\n      jump\t// in\n    tag_27:\n    tag_26:\n        /* \"level0/solidity_basic/ErrorHandlingExample.sol\":183:440  {... */\n      pop\n        /* \"level0/solidity_basic/ErrorHandlingExample.sol\":126:440  function sendHalf(address payable  addr) public  payable {... */\n      pop\n      jump\t// out\n        /* \"level0/solidity_basic/ErrorHandlingExample.sol\":97:116  uint public balance */\n    tag_10:\n      sload(0x00)\n      dup2\n      jump\t// out\n        /* \"#utility.yul\":88:205   */\n    tag_30:\n        /* \"#utility.yul\":197:198   */\n      0x00\n        /* \"#utility.yul\":194:195   */\n      dup1\n        /* \"#utility.yul\":187:199   */\n      revert\n        /* \"#utility.yul\":334:460   */\n    tag_32:\n        /* \"#utility.yul\":371:378   */\n      0x00\n        /* \"#utility.yul\":411:453   */\n      0xffffffffffffffffffffffffffffffffffffffff\n        /* \"#utility.yul\":404:409   */\n      dup3\n        /* \"#utility.yul\":400:454   */\n      and\n        /* \"#utility.yul\":389:454   */\n      swap1\n      pop\n        /* \"#utility.yul\":334:460   */\n      swap2\n      swap1\n      pop\n      jump\t// out\n        /* \"#utility.yul\":466:570   */\n    tag_33:\n        /* \"#utility.yul\":511:518   */\n      0x00\n        /* \"#utility.yul\":540:564   */\n      tag_49\n        /* \"#utility.yul\":558:563   */\n      dup3\n        /* \"#utility.yul\":540:564   */\n      tag_32\n      jump\t// in\n    tag_49:\n        /* \"#utility.yul\":529:564   */\n      swap1\n      pop\n        /* \"#utility.yul\":466:570   */\n      swap2\n      swap1\n      pop\n      jump\t// out\n        /* \"#utility.yul\":576:714   */\n    tag_34:\n        /* \"#utility.yul\":657:689   */\n      tag_51\n        /* \"#utility.yul\":683:688   */\n      dup2\n        /* \"#utility.yul\":657:689   */\n      tag_33\n      jump\t// in\n    tag_51:\n        /* \"#utility.yul\":650:655   */\n      dup2\n        /* \"#utility.yul\":647:690   */\n      eq\n        /* \"#utility.yul\":637:708   */\n      tag_52\n      jumpi\n        /* \"#utility.yul\":704:705   */\n      0x00\n        /* \"#utility.yul\":701:702   */\n      dup1\n        /* \"#utility.yul\":694:706   */\n      revert\n        /* \"#utility.yul\":637:708   */\n    tag_52:\n        /* \"#utility.yul\":576:714   */\n      pop\n      jump\t// out\n        /* \"#utility.yul\":720:875   */\n    tag_35:\n        /* \"#utility.yul\":774:779   */\n      0x00\n        /* \"#utility.yul\":812:818   */\n      dup2\n        /* \"#utility.yul\":799:819   */\n      calldataload\n        /* \"#utility.yul\":790:819   */\n      swap1\n      pop\n        /* \"#utility.yul\":828:869   */\n      tag_54\n        /* \"#utility.yul\":863:868   */\n      dup2\n        /* \"#utility.yul\":828:869   */\n      tag_34\n      jump\t// in\n    tag_54:\n        /* \"#utility.yul\":720:875   */\n      swap3\n      swap2\n      pop\n      pop\n      jump\t// out\n        /* \"#utility.yul\":881:1226   */\n    tag_6:\n        /* \"#utility.yul\":948:954   */\n      0x00\n        /* \"#utility.yul\":997:999   */\n      0x20\n        /* \"#utility.yul\":985:994   */\n      dup3\n        /* \"#utility.yul\":976:983   */\n      dup5\n        /* \"#utility.yul\":972:995   */\n      sub\n        /* \"#utility.yul\":968:1000   */\n      slt\n        /* \"#utility.yul\":965:1084   */\n      iszero\n      tag_56\n      jumpi\n        /* \"#utility.yul\":1003:1082   */\n      tag_57\n      tag_30\n      jump\t// in\n    tag_57:\n        /* \"#utility.yul\":965:1084   */\n    tag_56:\n        /* \"#utility.yul\":1123:1124   */\n      0x00\n        /* \"#utility.yul\":1148:1209   */\n      tag_58\n        /* \"#utility.yul\":1201:1208   */\n      dup5\n        /* \"#utility.yul\":1192:1198   */\n      dup3\n        /* \"#utility.yul\":1181:1190   */\n      dup6\n        /* \"#utility.yul\":1177:1199   */\n      add\n        /* \"#utility.yul\":1148:1209   */\n      tag_35\n      jump\t// in\n    tag_58:\n        /* \"#utility.yul\":1138:1209   */\n      swap2\n      pop\n        /* \"#utility.yul\":1094:1219   */\n      pop\n        /* \"#utility.yul\":881:1226   */\n      swap3\n      swap2\n      pop\n      pop\n      jump\t// out\n        /* \"#utility.yul\":1232:1309   */\n    tag_36:\n        /* \"#utility.yul\":1269:1276   */\n      0x00\n        /* \"#utility.yul\":1298:1303   */\n      dup2\n        /* \"#utility.yul\":1287:1303   */\n      swap1\n      pop\n        /* \"#utility.yul\":1232:1309   */\n      swap2\n      swap1\n      pop\n      jump\t// out\n        /* \"#utility.yul\":1315:1433   */\n    tag_37:\n        /* \"#utility.yul\":1402:1426   */\n      tag_61\n        /* \"#utility.yul\":1420:1425   */\n      dup2\n        /* \"#utility.yul\":1402:1426   */\n      tag_36\n      jump\t// in\n    tag_61:\n        /* \"#utility.yul\":1397:1400   */\n      dup3\n        /* \"#utility.yul\":1390:1427   */\n      mstore\n        /* \"#utility.yul\":1315:1433   */\n      pop\n      pop\n      jump\t// out\n        /* \"#utility.yul\":1439:1661   */\n    tag_12:\n        /* \"#utility.yul\":1532:1536   */\n      0x00\n        /* \"#utility.yul\":1570:1572   */\n      0x20\n        /* \"#utility.yul\":1559:1568   */\n      dup3\n        /* \"#utility.yul\":1555:1573   */\n      add\n        /* \"#utility.yul\":1547:1573   */\n      swap1\n      pop\n        /* \"#utility.yul\":1583:1654   */\n      tag_63\n        /* \"#utility.yul\":1651:1652   */\n      0x00\n        /* \"#utility.yul\":1640:1649   */\n      dup4\n        /* \"#utility.yul\":1636:1653   */\n      add\n        /* \"#utility.yul\":1627:1633   */\n      dup5\n        /* \"#utility.yul\":1583:1654   */\n      tag_37\n      jump\t// in\n    tag_63:\n        /* \"#utility.yul\":1439:1661   */\n      swap3\n      swap2\n      pop\n      pop\n      jump\t// out\n        /* \"#utility.yul\":1667:1847   */\n    tag_38:\n        /* \"#utility.yul\":1715:1792   */\n      0x4e487b7100000000000000000000000000000000000000000000000000000000\n        /* \"#utility.yul\":1712:1713   */\n      0x00\n        /* \"#utility.yul\":1705:1793   */\n      mstore\n        /* \"#utility.yul\":1812:1816   */\n      0x12\n        /* \"#utility.yul\":1809:1810   */\n      0x04\n        /* \"#utility.yul\":1802:1817   */\n      mstore\n        /* \"#utility.yul\":1836:1840   */\n      0x24\n        /* \"#utility.yul\":1833:1834   */\n      0x00\n        /* \"#utility.yul\":1826:1841   */\n      revert\n        /* \"#utility.yul\":1853:2029   */\n    tag_15:\n        /* \"#utility.yul\":1885:1886   */\n      0x00\n        /* \"#utility.yul\":1902:1922   */\n      tag_66\n        /* \"#utility.yul\":1920:1921   */\n      dup3\n        /* \"#utility.yul\":1902:1922   */\n      tag_36\n      jump\t// in\n    tag_66:\n        /* \"#utility.yul\":1897:1922   */\n      swap2\n      pop\n        /* \"#utility.yul\":1936:1956   */\n      tag_67\n        /* \"#utility.yul\":1954:1955   */\n      dup4\n        /* \"#utility.yul\":1936:1956   */\n      tag_36\n      jump\t// in\n    tag_67:\n        /* \"#utility.yul\":1931:1956   */\n      swap3\n      pop\n        /* \"#utility.yul\":1975:1976   */\n      dup3\n        /* \"#utility.yul\":1965:2000   */\n      tag_68\n      jumpi\n        /* \"#utility.yul\":1980:1998   */\n      tag_69\n      tag_38\n      jump\t// in\n    tag_69:\n        /* \"#utility.yul\":1965:2000   */\n    tag_68:\n        /* \"#utility.yul\":2021:2022   */\n      dup3\n        /* \"#utility.yul\":2018:2019   */\n      dup3\n        /* \"#utility.yul\":2014:2023   */\n      mod\n        /* \"#utility.yul\":2009:2023   */\n      swap1\n      pop\n        /* \"#utility.yul\":1853:2029   */\n      swap3\n      swap2\n      pop\n      pop\n      jump\t// out\n        /* \"#utility.yul\":2035:2204   */\n    tag_39:\n        /* \"#utility.yul\":2119:2130   */\n      0x00\n        /* \"#utility.yul\":2153:2159   */\n      dup3\n        /* \"#utility.yul\":2148:2151   */\n      dup3\n        /* \"#utility.yul\":2141:2160   */\n      mstore\n        /* \"#utility.yul\":2193:2197   */\n      0x20\n        /* \"#utility.yul\":2188:2191   */\n      dup3\n        /* \"#utility.yul\":2184:2198   */\n      add\n        /* \"#utility.yul\":2169:2198   */\n      swap1\n      pop\n        /* \"#utility.yul\":2035:2204   */\n      swap3\n      swap2\n      pop\n      pop\n      jump\t// out\n        /* \"#utility.yul\":2210:2379   */\n    tag_40:\n        /* \"#utility.yul\":2350:2371   */\n      0x4576656e2076616c756520726571756972656400000000000000000000000000\n        /* \"#utility.yul\":2346:2347   */\n      0x00\n        /* \"#utility.yul\":2338:2344   */\n      dup3\n        /* \"#utility.yul\":2334:2348   */\n      add\n        /* \"#utility.yul\":2327:2372   */\n      mstore\n        /* \"#utility.yul\":2210:2379   */\n      pop\n      jump\t// out\n        /* \"#utility.yul\":2385:2751   */\n    tag_41:\n        /* \"#utility.yul\":2527:2530   */\n      0x00\n        /* \"#utility.yul\":2548:2615   */\n      tag_73\n        /* \"#utility.yul\":2612:2614   */\n      0x13\n        /* \"#utility.yul\":2607:2610   */\n      dup4\n        /* \"#utility.yul\":2548:2615   */\n      tag_39\n      jump\t// in\n    tag_73:\n        /* \"#utility.yul\":2541:2615   */\n      swap2\n      pop\n        /* \"#utility.yul\":2624:2717   */\n      tag_74\n        /* \"#utility.yul\":2713:2716   */\n      dup3\n        /* \"#utility.yul\":2624:2717   */\n      tag_40\n      jump\t// in\n    tag_74:\n        /* \"#utility.yul\":2742:2744   */\n      0x20\n        /* \"#utility.yul\":2737:2740   */\n      dup3\n        /* \"#utility.yul\":2733:2745   */\n      add\n        /* \"#utility.yul\":2726:2745   */\n      swap1\n      pop\n        /* \"#utility.yul\":2385:2751   */\n      swap2\n      swap1\n      pop\n      jump\t// out\n        /* \"#utility.yul\":2757:3176   */\n    tag_18:\n        /* \"#utility.yul\":2923:2927   */\n      0x00\n        /* \"#utility.yul\":2961:2963   */\n      0x20\n        /* \"#utility.yul\":2950:2959   */\n      dup3\n        /* \"#utility.yul\":2946:2964   */\n      add\n        /* \"#utility.yul\":2938:2964   */\n      swap1\n      pop\n        /* \"#utility.yul\":3010:3019   */\n      dup2\n        /* \"#utility.yul\":3004:3008   */\n      dup2\n        /* \"#utility.yul\":3000:3020   */\n      sub\n        /* \"#utility.yul\":2996:2997   */\n      0x00\n        /* \"#utility.yul\":2985:2994   */\n      dup4\n        /* \"#utility.yul\":2981:2998   */\n      add\n        /* \"#utility.yul\":2974:3021   */\n      mstore\n        /* \"#utility.yul\":3038:3169   */\n      tag_76\n        /* \"#utility.yul\":3164:3168   */\n      dup2\n        /* \"#utility.yul\":3038:3169   */\n      tag_41\n      jump\t// in\n    tag_76:\n        /* \"#utility.yul\":3030:3169   */\n      swap1\n      pop\n        /* \"#utility.yul\":2757:3176   */\n      swap2\n      swap1\n      pop\n      jump\t// out\n        /* \"#utility.yul\":3182:3362   */\n    tag_42:\n        /* \"#utility.yul\":3230:3307   */\n      0x4e487b7100000000000000000000000000000000000000000000000000000000\n        /* \"#utility.yul\":3227:3228   */\n      0x00\n        /* \"#utility.yul\":3220:3308   */\n      mstore\n        /* \"#utility.yul\":3327:3331   */\n      0x11\n        /* \"#utility.yul\":3324:3325   */\n      0x04\n        /* \"#utility.yul\":3317:3332   */\n      mstore\n        /* \"#utility.yul\":3351:3355   */\n      0x24\n        /* \"#utility.yul\":3348:3349   */\n      0x00\n        /* \"#utility.yul\":3341:3356   */\n      revert\n        /* \"#utility.yul\":3368:3553   */\n    tag_20:\n        /* \"#utility.yul\":3408:3409   */\n      0x00\n        /* \"#utility.yul\":3425:3445   */\n      tag_79\n        /* \"#utility.yul\":3443:3444   */\n      dup3\n        /* \"#utility.yul\":3425:3445   */\n      tag_36\n      jump\t// in\n    tag_79:\n        /* \"#utility.yul\":3420:3445   */\n      swap2\n      pop\n        /* \"#utility.yul\":3459:3479   */\n      tag_80\n        /* \"#utility.yul\":3477:3478   */\n      dup4\n        /* \"#utility.yul\":3459:3479   */\n      tag_36\n      jump\t// in\n    tag_80:\n        /* \"#utility.yul\":3454:3479   */\n      swap3\n      pop\n        /* \"#utility.yul\":3498:3499   */\n      dup3\n        /* \"#utility.yul\":3488:3523   */\n      tag_81\n      jumpi\n        /* \"#utility.yul\":3503:3521   */\n      tag_82\n      tag_38\n      jump\t// in\n    tag_82:\n        /* \"#utility.yul\":3488:3523   */\n    tag_81:\n        /* \"#utility.yul\":3545:3546   */\n      dup3\n        /* \"#utility.yul\":3542:3543   */\n      dup3\n        /* \"#utility.yul\":3538:3547   */\n      div\n        /* \"#utility.yul\":3533:3547   */\n      swap1\n      pop\n        /* \"#utility.yul\":3368:3553   */\n      swap3\n      swap2\n      pop\n      pop\n      jump\t// out\n        /* \"#utility.yul\":3559:3753   */\n    tag_25:\n        /* \"#utility.yul\":3599:3603   */\n      0x00\n        /* \"#utility.yul\":3619:3639   */\n      tag_84\n        /* \"#utility.yul\":3637:3638   */\n      dup3\n        /* \"#utility.yul\":3619:3639   */\n      tag_36\n      jump\t// in\n    tag_84:\n        /* \"#utility.yul\":3614:3639   */\n      swap2\n      pop\n        /* \"#utility.yul\":3653:3673   */\n      tag_85\n        /* \"#utility.yul\":3671:3672   */\n      dup4\n        /* \"#utility.yul\":3653:3673   */\n      tag_36\n      jump\t// in\n    tag_85:\n        /* \"#utility.yul\":3648:3673   */\n      swap3\n      pop\n        /* \"#utility.yul\":3697:3698   */\n      dup3\n        /* \"#utility.yul\":3694:3695   */\n      dup3\n        /* \"#utility.yul\":3690:3699   */\n      sub\n        /* \"#utility.yul\":3682:3699   */\n      swap1\n      pop\n        /* \"#utility.yul\":3721:3722   */\n      dup2\n        /* \"#utility.yul\":3715:3719   */\n      dup2\n        /* \"#utility.yul\":3712:3723   */\n      gt\n        /* \"#utility.yul\":3709:3746   */\n      iszero\n      tag_86\n      jumpi\n        /* \"#utility.yul\":3726:3744   */\n      tag_87\n      tag_42\n      jump\t// in\n    tag_87:\n        /* \"#utility.yul\":3709:3746   */\n    tag_86:\n        /* \"#utility.yul\":3559:3753   */\n      swap3\n      swap2\n      pop\n      pop\n      jump\t// out\n        /* \"#utility.yul\":3759:3939   */\n    tag_28:\n        /* \"#utility.yul\":3807:3884   */\n      0x4e487b7100000000000000000000000000000000000000000000000000000000\n        /* \"#utility.yul\":3804:3805   */\n      0x00\n        /* \"#utility.yul\":3797:3885   */\n      mstore\n        /* \"#utility.yul\":3904:3908   */\n      0x01\n        /* \"#utility.yul\":3901:3902   */\n      0x04\n        /* \"#utility.yul\":3894:3909   */\n      mstore\n        /* \"#utility.yul\":3928:3932   */\n      0x24\n        /* \"#utility.yul\":3925:3926   */\n      0x00\n        /* \"#utility.yul\":3918:3933   */\n      revert\n\n    auxdata: 0xa2646970667358221220a677063189792a70a0649a92570fac11f60f2a581333b8db9d57fc29fed0e44564736f6c63430008140033\n}\n",
				"bytecode": {
					"linkReferences": {},
					"object": "608060405234801561000f575f80fd5b506103c68061001d5f395ff3fe608060405260043610610028575f3560e01c806375949c131461002c578063b69ef8a814610048575b5f80fd5b610046600480360381019061004191906101a2565b610072565b005b348015610053575f80fd5b5061005c61013f565b60405161006991906101e5565b60405180910390f35b5f600234610080919061022b565b146100c0576040517f08c379a00000000000000000000000000000000000000000000000000000000081526004016100b7906102b5565b60405180910390fd5b5f4790508173ffffffffffffffffffffffffffffffffffffffff166108fc6002346100eb9190610300565b90811502906040515f60405180830381858888f19350505050158015610113573d5f803e3d5ffd5b506002346101219190610300565b8161012c9190610330565b471461013b5761013a610363565b5b5050565b5f5481565b5f80fd5b5f73ffffffffffffffffffffffffffffffffffffffff82169050919050565b5f61017182610148565b9050919050565b61018181610167565b811461018b575f80fd5b50565b5f8135905061019c81610178565b92915050565b5f602082840312156101b7576101b6610144565b5b5f6101c48482850161018e565b91505092915050565b5f819050919050565b6101df816101cd565b82525050565b5f6020820190506101f85f8301846101d6565b92915050565b7f4e487b71000000000000000000000000000000000000000000000000000000005f52601260045260245ffd5b5f610235826101cd565b9150610240836101cd565b9250826102505761024f6101fe565b5b828206905092915050565b5f82825260208201905092915050565b7f4576656e2076616c7565207265717569726564000000000000000000000000005f82015250565b5f61029f60138361025b565b91506102aa8261026b565b602082019050919050565b5f6020820190508181035f8301526102cc81610293565b9050919050565b7f4e487b71000000000000000000000000000000000000000000000000000000005f52601160045260245ffd5b5f61030a826101cd565b9150610315836101cd565b925082610325576103246101fe565b5b828204905092915050565b5f61033a826101cd565b9150610345836101cd565b925082820390508181111561035d5761035c6102d3565b5b92915050565b7f4e487b71000000000000000000000000000000000000000000000000000000005f52600160045260245ffdfea2646970667358221220a677063189792a70a0649a92570fac11f60f2a581333b8db9d57fc29fed0e44564736f6c63430008140033",
					"opcodes": "PUSH1 0x80 PUSH1 0x40 MSTORE CALLVALUE DUP1 ISZERO PUSH2 0xF JUMPI PUSH0 DUP1 REVERT JUMPDEST POP PUSH2 0x3C6 DUP1 PUSH2 0x1D PUSH0 CODECOPY PUSH0 RETURN INVALID PUSH1 0x80 PUSH1 0x40 MSTORE PUSH1 0x4 CALLDATASIZE LT PUSH2 0x28 JUMPI PUSH0 CALLDATALOAD PUSH1 0xE0 SHR DUP1 PUSH4 0x75949C13 EQ PUSH2 0x2C JUMPI DUP1 PUSH4 0xB69EF8A8 EQ PUSH2 0x48 JUMPI JUMPDEST PUSH0 DUP1 REVERT JUMPDEST PUSH2 0x46 PUSH1 0x4 DUP1 CALLDATASIZE SUB DUP2 ADD SWAP1 PUSH2 0x41 SWAP2 SWAP1 PUSH2 0x1A2 JUMP JUMPDEST PUSH2 0x72 JUMP JUMPDEST STOP JUMPDEST CALLVALUE DUP1 ISZERO PUSH2 0x53 JUMPI PUSH0 DUP1 REVERT JUMPDEST POP PUSH2 0x5C PUSH2 0x13F JUMP JUMPDEST PUSH1 0x40 MLOAD PUSH2 0x69 SWAP2 SWAP1 PUSH2 0x1E5 JUMP JUMPDEST PUSH1 0x40 MLOAD DUP1 SWAP2 SUB SWAP1 RETURN JUMPDEST PUSH0 PUSH1 0x2 CALLVALUE PUSH2 0x80 SWAP2 SWAP1 PUSH2 0x22B JUMP JUMPDEST EQ PUSH2 0xC0 JUMPI PUSH1 0x40 MLOAD PUSH32 0x8C379A000000000000000000000000000000000000000000000000000000000 DUP2 MSTORE PUSH1 0x4 ADD PUSH2 0xB7 SWAP1 PUSH2 0x2B5 JUMP JUMPDEST PUSH1 0x40 MLOAD DUP1 SWAP2 SUB SWAP1 REVERT JUMPDEST PUSH0 SELFBALANCE SWAP1 POP DUP2 PUSH20 0xFFFFFFFFFFFFFFFFFFFFFFFFFFFFFFFFFFFFFFFF AND PUSH2 0x8FC PUSH1 0x2 CALLVALUE PUSH2 0xEB SWAP2 SWAP1 PUSH2 0x300 JUMP JUMPDEST SWAP1 DUP2 ISZERO MUL SWAP1 PUSH1 0x40 MLOAD PUSH0 PUSH1 0x40 MLOAD DUP1 DUP4 SUB DUP2 DUP6 DUP9 DUP9 CALL SWAP4 POP POP POP POP ISZERO DUP1 ISZERO PUSH2 0x113 JUMPI RETURNDATASIZE PUSH0 DUP1 RETURNDATACOPY RETURNDATASIZE PUSH0 REVERT JUMPDEST POP PUSH1 0x2 CALLVALUE PUSH2 0x121 SWAP2 SWAP1 PUSH2 0x300 JUMP JUMPDEST DUP2 PUSH2 0x12C SWAP2 SWAP1 PUSH2 0x330 JUMP JUMPDEST SELFBALANCE EQ PUSH2 0x13B JUMPI PUSH2 0x13A PUSH2 0x363 JUMP JUMPDEST JUMPDEST POP POP JUMP JUMPDEST PUSH0 SLOAD DUP2 JUMP JUMPDEST PUSH0 DUP1 REVERT JUMPDEST PUSH0 PUSH20 0xFFFFFFFFFFFFFFFFFFFFFFFFFFFFFFFFFFFFFFFF DUP3 AND SWAP1 POP SWAP2 SWAP1 POP JUMP JUMPDEST PUSH0 PUSH2 0x171 DUP3 PUSH2 0x148 JUMP JUMPDEST SWAP1 POP SWAP2 SWAP1 POP JUMP JUMPDEST PUSH2 0x181 DUP2 PUSH2 0x167 JUMP JUMPDEST DUP2 EQ PUSH2 0x18B JUMPI PUSH0 DUP1 REVERT JUMPDEST POP JUMP JUMPDEST PUSH0 DUP2 CALLDATALOAD SWAP1 POP PUSH2 0x19C DUP2 PUSH2 0x178 JUMP JUMPDEST SWAP3 SWAP2 POP POP JUMP JUMPDEST PUSH0 PUSH1 0x20 DUP3 DUP5 SUB SLT ISZERO PUSH2 0x1B7 JUMPI PUSH2 0x1B6 PUSH2 0x144 JUMP JUMPDEST JUMPDEST PUSH0 PUSH2 0x1C4 DUP5 DUP3 DUP6 ADD PUSH2 0x18E JUMP JUMPDEST SWAP2 POP POP SWAP3 SWAP2 POP POP JUMP JUMPDEST PUSH0 DUP2 SWAP1 POP SWAP2 SWAP1 POP JUMP JUMPDEST PUSH2 0x1DF DUP2 PUSH2 0x1CD JUMP JUMPDEST DUP3 MSTORE POP POP JUMP JUMPDEST PUSH0 PUSH1 0x20 DUP3 ADD SWAP1 POP PUSH2 0x1F8 PUSH0 DUP4 ADD DUP5 PUSH2 0x1D6 JUMP JUMPDEST SWAP3 SWAP2 POP POP JUMP JUMPDEST PUSH32 0x4E487B7100000000000000000000000000000000000000000000000000000000 PUSH0 MSTORE PUSH1 0x12 PUSH1 0x4 MSTORE PUSH1 0x24 PUSH0 REVERT JUMPDEST PUSH0 PUSH2 0x235 DUP3 PUSH2 0x1CD JUMP JUMPDEST SWAP2 POP PUSH2 0x240 DUP4 PUSH2 0x1CD JUMP JUMPDEST SWAP3 POP DUP3 PUSH2 0x250 JUMPI PUSH2 0x24F PUSH2 0x1FE JUMP JUMPDEST JUMPDEST DUP3 DUP3 MOD SWAP1 POP SWAP3 SWAP2 POP POP JUMP JUMPDEST PUSH0 DUP3 DUP3 MSTORE PUSH1 0x20 DUP3 ADD SWAP1 POP SWAP3 SWAP2 POP POP JUMP JUMPDEST PUSH32 0x4576656E2076616C756520726571756972656400000000000000000000000000 PUSH0 DUP3 ADD MSTORE POP JUMP JUMPDEST PUSH0 PUSH2 0x29F PUSH1 0x13 DUP4 PUSH2 0x25B JUMP JUMPDEST SWAP2 POP PUSH2 0x2AA DUP3 PUSH2 0x26B JUMP JUMPDEST PUSH1 0x20 DUP3 ADD SWAP1 POP SWAP2 SWAP1 POP JUMP JUMPDEST PUSH0 PUSH1 0x20 DUP3 ADD SWAP1 POP DUP2 DUP2 SUB PUSH0 DUP4 ADD MSTORE PUSH2 0x2CC DUP2 PUSH2 0x293 JUMP JUMPDEST SWAP1 POP SWAP2 SWAP1 POP JUMP JUMPDEST PUSH32 0x4E487B7100000000000000000000000000000000000000000000000000000000 PUSH0 MSTORE PUSH1 0x11 PUSH1 0x4 MSTORE PUSH1 0x24 PUSH0 REVERT JUMPDEST PUSH0 PUSH2 0x30A DUP3 PUSH2 0x1CD JUMP JUMPDEST SWAP2 POP PUSH2 0x315 DUP4 PUSH2 0x1CD JUMP JUMPDEST SWAP3 POP DUP3 PUSH2 0x325 JUMPI PUSH2 0x324 PUSH2 0x1FE JUMP JUMPDEST JUMPDEST DUP3 DUP3 DIV SWAP1 POP SWAP3 SWAP2 POP POP JUMP JUMPDEST PUSH0 PUSH2 0x33A DUP3 PUSH2 0x1CD JUMP JUMPDEST SWAP2 POP PUSH2 0x345 DUP4 PUSH2 0x1CD JUMP JUMPDEST SWAP3 POP DUP3 DUP3 SUB SWAP1 POP DUP2 DUP2 GT ISZERO PUSH2 0x35D JUMPI PUSH2 0x35C PUSH2 0x2D3 JUMP JUMPDEST JUMPDEST SWAP3 SWAP2 POP POP JUMP JUMPDEST PUSH32 0x4E487B7100000000000000000000000000000000000000000000000000000000 PUSH0 MSTORE PUSH1 0x1 PUSH1 0x4 MSTORE PUSH1 0x24 PUSH0 REVERT INVALID LOG2 PUSH5 0x6970667358 0x22 SLT KECCAK256 0xA6 PUSH24 0x63189792A70A0649A92570FAC11F60F2A581333B8DB9D57 0xFC 0x29 INVALID 0xD0 0xE4 GASLIMIT PUSH5 0x736F6C6343 STOP ADDMOD EQ STOP CALLER "
				},
				"gasEstimates": {
					"creation": {
						"codeDepositCost": "193200",
						"executionCost": "236",
						"totalCost": "193436"
					},
					"external": {
						"balance()": "2424",
						"sendHalf(address)": "infinite"
					}
				},
				"methodIdentifiers": {
					"balance()": "b69ef8a8",
					"sendHalf(address)": "75949c13"
				}
			},
			"storageLayout": {
				"storage": [
					{
						"astId": 3,
						"contract": "level0/solidity_basic/ErrorHandlingExample.sol:ErrorHandlingExample",
						"label": "balance",
						"offset": 0,
						"slot": "0",
						"type": "t_uint256"
					}
				],
				"types": {
					"t_uint256": {
						"encoding": "inplace",
						"label": "uint256",
						"numberOfBytes": "32"
					}
				}
			},
			"userdoc": {
				"kind": "user",
				"methods": {},
				"version": 1
			}
		}
	}
}