{
	"level0/solidity/StructExample.sol": {
		"StructExample": {
			"abi": [
				{
					"inputs": [
						{
							"internalType": "string",
							"name": "_name",
							"type": "string"
						},
						{
							"internalType": "uint256",
							"name": "_price",
							"type": "uint256"
						},
						{
							"internalType": "uint256",
							"name": "_stock",
							"type": "uint256"
						}
					],
					"name": "addProduct",
					"outputs": [],
					"stateMutability": "nonpayable",
					"type": "function"
				},
				{
					"inputs": [
						{
							"internalType": "uint256",
							"name": "_productId",
							"type": "uint256"
						}
					],
					"name": "getProduct",
					"outputs": [
						{
							"internalType": "string",
							"name": "",
							"type": "string"
						},
						{
							"internalType": "uint256",
							"name": "",
							"type": "uint256"
						},
						{
							"internalType": "uint256",
							"name": "",
							"type": "uint256"
						}
					],
					"stateMutability": "view",
					"type": "function"
				},
				{
					"inputs": [],
					"name": "productCount",
					"outputs": [
						{
							"internalType": "uint256",
							"name": "",
							"type": "uint256"
						}
					],
					"stateMutability": "view",
					"type": "function"
				},
				{
					"inputs": [
						{
							"internalType": "uint256",
							"name": "",
							"type": "uint256"
						}
					],
					"name": "products",
					"outputs": [
						{
							"internalType": "uint256",
							"name": "id",
							"type": "uint256"
						},
						{
							"internalType": "string",
							"name": "name",
							"type": "string"
						},
						{
							"internalType": "uint256",
							"name": "price",
							"type": "uint256"
						},
						{
							"internalType": "uint256",
							"name": "stock",
							"type": "uint256"
						}
					],
					"stateMutability": "view",
					"type": "function"
				},
				{
					"inputs": [
						{
							"internalType": "uint256",
							"name": "_productId",
							"type": "uint256"
						},
						{
							"internalType": "uint256",
							"name": "_newStock",
							"type": "uint256"
						}
					],
					"name": "updateProductStock",
					"outputs": [],
					"stateMutability": "nonpayable",
					"type": "function"
				}
			],
			"devdoc": {
				"kind": "dev",
				"methods": {},
				"version": 1
			},
			"evm": {
				"assembly": "    /* \"level0/solidity/StructExample.sol\":26:817  contract StructExample {... */\n  mstore(0x40, 0x80)\n  callvalue\n  dup1\n  iszero\n  tag_1\n  jumpi\n  0x00\n  dup1\n  revert\ntag_1:\n  pop\n  dataSize(sub_0)\n  dup1\n  dataOffset(sub_0)\n  0x00\n  codecopy\n  0x00\n  return\nstop\n\nsub_0: assembly {\n        /* \"level0/solidity/StructExample.sol\":26:817  contract StructExample {... */\n      mstore(0x40, 0x80)\n      callvalue\n      dup1\n      iszero\n      tag_1\n      jumpi\n      0x00\n      dup1\n      revert\n    tag_1:\n      pop\n      jumpi(tag_2, lt(calldatasize, 0x04))\n      shr(0xe0, calldataload(0x00))\n      dup1\n      0x125b0b34\n      eq\n      tag_3\n      jumpi\n      dup1\n      0x7acc0b20\n      eq\n      tag_4\n      jumpi\n      dup1\n      0xb9db15b4\n      eq\n      tag_5\n      jumpi\n      dup1\n      0xe0f6ef87\n      eq\n      tag_6\n      jumpi\n      dup1\n      0xfd231411\n      eq\n      tag_7\n      jumpi\n    tag_2:\n      0x00\n      dup1\n      revert\n        /* \"level0/solidity/StructExample.sol\":240:424  function addProduct(string memory _name, uint _price, uint _stock) public {... */\n    tag_3:\n      tag_8\n      0x04\n      dup1\n      calldatasize\n      sub\n      dup2\n      add\n      swap1\n      tag_9\n      swap2\n      swap1\n      tag_10\n      jump\t// in\n    tag_9:\n      tag_11\n      jump\t// in\n    tag_8:\n      stop\n        /* \"level0/solidity/StructExample.sol\":162:202  mapping(uint => Product) public products */\n    tag_4:\n      tag_12\n      0x04\n      dup1\n      calldatasize\n      sub\n      dup2\n      add\n      swap1\n      tag_13\n      swap2\n      swap1\n      tag_14\n      jump\t// in\n    tag_13:\n      tag_15\n      jump\t// in\n    tag_12:\n      mload(0x40)\n      tag_16\n      swap5\n      swap4\n      swap3\n      swap2\n      swap1\n      tag_17\n      jump\t// in\n    tag_16:\n      mload(0x40)\n      dup1\n      swap2\n      sub\n      swap1\n      return\n        /* \"level0/solidity/StructExample.sol\":606:815  function getProduct(uint _productId) public view returns (string memory, uint, uint) {... */\n    tag_5:\n      tag_18\n      0x04\n      dup1\n      calldatasize\n      sub\n      dup2\n      add\n      swap1\n      tag_19\n      swap2\n      swap1\n      tag_14\n      jump\t// in\n    tag_19:\n      tag_20\n      jump\t// in\n    tag_18:\n      mload(0x40)\n      tag_21\n      swap4\n      swap3\n      swap2\n      swap1\n      tag_22\n      jump\t// in\n    tag_21:\n      mload(0x40)\n      dup1\n      swap2\n      sub\n      swap1\n      return\n        /* \"level0/solidity/StructExample.sol\":209:233  uint public productCount */\n    tag_6:\n      tag_23\n      tag_24\n      jump\t// in\n    tag_23:\n      mload(0x40)\n      tag_25\n      swap2\n      swap1\n      tag_26\n      jump\t// in\n    tag_25:\n      mload(0x40)\n      dup1\n      swap2\n      sub\n      swap1\n      return\n        /* \"level0/solidity/StructExample.sol\":430:596  function updateProductStock(uint _productId, uint _newStock) public {... */\n    tag_7:\n      tag_27\n      0x04\n      dup1\n      calldatasize\n      sub\n      dup2\n      add\n      swap1\n      tag_28\n      swap2\n      swap1\n      tag_29\n      jump\t// in\n    tag_28:\n      tag_30\n      jump\t// in\n    tag_27:\n      stop\n        /* \"level0/solidity/StructExample.sol\":240:424  function addProduct(string memory _name, uint _price, uint _stock) public {... */\n    tag_11:\n        /* \"level0/solidity/StructExample.sol\":324:336  productCount */\n      0x01\n      0x00\n        /* \"level0/solidity/StructExample.sol\":324:338  productCount++ */\n      dup2\n      sload\n      dup1\n      swap3\n      swap2\n      swap1\n      tag_32\n      swap1\n      tag_33\n      jump\t// in\n    tag_32:\n      swap2\n      swap1\n      pop\n      sstore\n      pop\n        /* \"level0/solidity/StructExample.sol\":373:417  Product(productCount, _name, _price, _stock) */\n      mload(0x40)\n      dup1\n      0x80\n      add\n      0x40\n      mstore\n      dup1\n        /* \"level0/solidity/StructExample.sol\":381:393  productCount */\n      sload(0x01)\n        /* \"level0/solidity/StructExample.sol\":373:417  Product(productCount, _name, _price, _stock) */\n      dup2\n      mstore\n      0x20\n      add\n        /* \"level0/solidity/StructExample.sol\":395:400  _name */\n      dup5\n        /* \"level0/solidity/StructExample.sol\":373:417  Product(productCount, _name, _price, _stock) */\n      dup2\n      mstore\n      0x20\n      add\n        /* \"level0/solidity/StructExample.sol\":402:408  _price */\n      dup4\n        /* \"level0/solidity/StructExample.sol\":373:417  Product(productCount, _name, _price, _stock) */\n      dup2\n      mstore\n      0x20\n      add\n        /* \"level0/solidity/StructExample.sol\":410:416  _stock */\n      dup3\n        /* \"level0/solidity/StructExample.sol\":373:417  Product(productCount, _name, _price, _stock) */\n      dup2\n      mstore\n      pop\n        /* \"level0/solidity/StructExample.sol\":348:356  products */\n      0x00\n        /* \"level0/solidity/StructExample.sol\":348:370  products[productCount] */\n      dup1\n        /* \"level0/solidity/StructExample.sol\":357:369  productCount */\n      sload(0x01)\n        /* \"level0/solidity/StructExample.sol\":348:370  products[productCount] */\n      dup2\n      mstore\n      0x20\n      add\n      swap1\n      dup2\n      mstore\n      0x20\n      add\n      0x00\n      keccak256\n        /* \"level0/solidity/StructExample.sol\":348:417  products[productCount] = Product(productCount, _name, _price, _stock) */\n      0x00\n      dup3\n      add\n      mload\n      dup2\n      0x00\n      add\n      sstore\n      0x20\n      dup3\n      add\n      mload\n      dup2\n      0x01\n      add\n      swap1\n      dup2\n      tag_34\n      swap2\n      swap1\n      tag_35\n      jump\t// in\n    tag_34:\n      pop\n      0x40\n      dup3\n      add\n      mload\n      dup2\n      0x02\n      add\n      sstore\n      0x60\n      dup3\n      add\n      mload\n      dup2\n      0x03\n      add\n      sstore\n      swap1\n      pop\n      pop\n        /* \"level0/solidity/StructExample.sol\":240:424  function addProduct(string memory _name, uint _price, uint _stock) public {... */\n      pop\n      pop\n      pop\n      jump\t// out\n        /* \"level0/solidity/StructExample.sol\":162:202  mapping(uint => Product) public products */\n    tag_15:\n      mstore(0x20, 0x00)\n      dup1\n      0x00\n      mstore\n      keccak256(0x00, 0x40)\n      0x00\n      swap2\n      pop\n      swap1\n      pop\n      dup1\n      0x00\n      add\n      sload\n      swap1\n      dup1\n      0x01\n      add\n      dup1\n      sload\n      tag_36\n      swap1\n      tag_37\n      jump\t// in\n    tag_36:\n      dup1\n      0x1f\n      add\n      0x20\n      dup1\n      swap2\n      div\n      mul\n      0x20\n      add\n      mload(0x40)\n      swap1\n      dup2\n      add\n      0x40\n      mstore\n      dup1\n      swap3\n      swap2\n      swap1\n      dup2\n      dup2\n      mstore\n      0x20\n      add\n      dup3\n      dup1\n      sload\n      tag_38\n      swap1\n      tag_37\n      jump\t// in\n    tag_38:\n      dup1\n      iszero\n      tag_39\n      jumpi\n      dup1\n      0x1f\n      lt\n      tag_40\n      jumpi\n      0x0100\n      dup1\n      dup4\n      sload\n      div\n      mul\n      dup4\n      mstore\n      swap2\n      0x20\n      add\n      swap2\n      jump(tag_39)\n    tag_40:\n      dup3\n      add\n      swap2\n      swap1\n      0x00\n      mstore\n      keccak256(0x00, 0x20)\n      swap1\n    tag_41:\n      dup2\n      sload\n      dup2\n      mstore\n      swap1\n      0x01\n      add\n      swap1\n      0x20\n      add\n      dup1\n      dup4\n      gt\n      tag_41\n      jumpi\n      dup3\n      swap1\n      sub\n      0x1f\n      and\n      dup3\n      add\n      swap2\n    tag_39:\n      pop\n      pop\n      pop\n      pop\n      pop\n      swap1\n      dup1\n      0x02\n      add\n      sload\n      swap1\n      dup1\n      0x03\n      add\n      sload\n      swap1\n      pop\n      dup5\n      jump\t// out\n        /* \"level0/solidity/StructExample.sol\":606:815  function getProduct(uint _productId) public view returns (string memory, uint, uint) {... */\n    tag_20:\n        /* \"level0/solidity/StructExample.sol\":664:677  string memory */\n      0x60\n        /* \"level0/solidity/StructExample.sol\":679:683  uint */\n      0x00\n        /* \"level0/solidity/StructExample.sol\":685:689  uint */\n      dup1\n        /* \"level0/solidity/StructExample.sol\":701:724  Product storage product */\n      0x00\n        /* \"level0/solidity/StructExample.sol\":727:735  products */\n      dup1\n        /* \"level0/solidity/StructExample.sol\":727:747  products[_productId] */\n      0x00\n        /* \"level0/solidity/StructExample.sol\":736:746  _productId */\n      dup7\n        /* \"level0/solidity/StructExample.sol\":727:747  products[_productId] */\n      dup2\n      mstore\n      0x20\n      add\n      swap1\n      dup2\n      mstore\n      0x20\n      add\n      0x00\n      keccak256\n        /* \"level0/solidity/StructExample.sol\":701:747  Product storage product = products[_productId] */\n      swap1\n      pop\n        /* \"level0/solidity/StructExample.sol\":765:772  product */\n      dup1\n        /* \"level0/solidity/StructExample.sol\":765:777  product.name */\n      0x01\n      add\n        /* \"level0/solidity/StructExample.sol\":779:786  product */\n      dup2\n        /* \"level0/solidity/StructExample.sol\":779:792  product.price */\n      0x02\n      add\n      sload\n        /* \"level0/solidity/StructExample.sol\":794:801  product */\n      dup3\n        /* \"level0/solidity/StructExample.sol\":794:807  product.stock */\n      0x03\n      add\n      sload\n        /* \"level0/solidity/StructExample.sol\":757:808  return (product.name, product.price, product.stock) */\n      dup3\n      dup1\n      sload\n      tag_43\n      swap1\n      tag_37\n      jump\t// in\n    tag_43:\n      dup1\n      0x1f\n      add\n      0x20\n      dup1\n      swap2\n      div\n      mul\n      0x20\n      add\n      mload(0x40)\n      swap1\n      dup2\n      add\n      0x40\n      mstore\n      dup1\n      swap3\n      swap2\n      swap1\n      dup2\n      dup2\n      mstore\n      0x20\n      add\n      dup3\n      dup1\n      sload\n      tag_44\n      swap1\n      tag_37\n      jump\t// in\n    tag_44:\n      dup1\n      iszero\n      tag_45\n      jumpi\n      dup1\n      0x1f\n      lt\n      tag_46\n      jumpi\n      0x0100\n      dup1\n      dup4\n      sload\n      div\n      mul\n      dup4\n      mstore\n      swap2\n      0x20\n      add\n      swap2\n      jump(tag_45)\n    tag_46:\n      dup3\n      add\n      swap2\n      swap1\n      0x00\n      mstore\n      keccak256(0x00, 0x20)\n      swap1\n    tag_47:\n      dup2\n      sload\n      dup2\n      mstore\n      swap1\n      0x01\n      add\n      swap1\n      0x20\n      add\n      dup1\n      dup4\n      gt\n      tag_47\n      jumpi\n      dup3\n      swap1\n      sub\n      0x1f\n      and\n      dup3\n      add\n      swap2\n    tag_45:\n      pop\n      pop\n      pop\n      pop\n      pop\n      swap3\n      pop\n      swap4\n      pop\n      swap4\n      pop\n      swap4\n      pop\n      pop\n        /* \"level0/solidity/StructExample.sol\":606:815  function getProduct(uint _productId) public view returns (string memory, uint, uint) {... */\n      swap2\n      swap4\n      swap1\n      swap3\n      pop\n      jump\t// out\n        /* \"level0/solidity/StructExample.sol\":209:233  uint public productCount */\n    tag_24:\n      sload(0x01)\n      dup2\n      jump\t// out\n        /* \"level0/solidity/StructExample.sol\":430:596  function updateProductStock(uint _productId, uint _newStock) public {... */\n    tag_30:\n        /* \"level0/solidity/StructExample.sol\":508:531  Product storage product */\n      0x00\n        /* \"level0/solidity/StructExample.sol\":534:542  products */\n      dup1\n        /* \"level0/solidity/StructExample.sol\":534:554  products[_productId] */\n      0x00\n        /* \"level0/solidity/StructExample.sol\":543:553  _productId */\n      dup5\n        /* \"level0/solidity/StructExample.sol\":534:554  products[_productId] */\n      dup2\n      mstore\n      0x20\n      add\n      swap1\n      dup2\n      mstore\n      0x20\n      add\n      0x00\n      keccak256\n        /* \"level0/solidity/StructExample.sol\":508:554  Product storage product = products[_productId] */\n      swap1\n      pop\n        /* \"level0/solidity/StructExample.sol\":580:589  _newStock */\n      dup2\n        /* \"level0/solidity/StructExample.sol\":564:571  product */\n      dup2\n        /* \"level0/solidity/StructExample.sol\":564:577  product.stock */\n      0x03\n      add\n        /* \"level0/solidity/StructExample.sol\":564:589  product.stock = _newStock */\n      dup2\n      swap1\n      sstore\n      pop\n        /* \"level0/solidity/StructExample.sol\":498:596  {... */\n      pop\n        /* \"level0/solidity/StructExample.sol\":430:596  function updateProductStock(uint _productId, uint _newStock) public {... */\n      pop\n      pop\n      jump\t// out\n        /* \"#utility.yul\":7:82   */\n    tag_49:\n        /* \"#utility.yul\":40:46   */\n      0x00\n        /* \"#utility.yul\":73:75   */\n      0x40\n        /* \"#utility.yul\":67:76   */\n      mload\n        /* \"#utility.yul\":57:76   */\n      swap1\n      pop\n        /* \"#utility.yul\":7:82   */\n      swap1\n      jump\t// out\n        /* \"#utility.yul\":88:205   */\n    tag_50:\n        /* \"#utility.yul\":197:198   */\n      0x00\n        /* \"#utility.yul\":194:195   */\n      dup1\n        /* \"#utility.yul\":187:199   */\n      revert\n        /* \"#utility.yul\":211:328   */\n    tag_51:\n        /* \"#utility.yul\":320:321   */\n      0x00\n        /* \"#utility.yul\":317:318   */\n      dup1\n        /* \"#utility.yul\":310:322   */\n      revert\n        /* \"#utility.yul\":334:451   */\n    tag_52:\n        /* \"#utility.yul\":443:444   */\n      0x00\n        /* \"#utility.yul\":440:441   */\n      dup1\n        /* \"#utility.yul\":433:445   */\n      revert\n        /* \"#utility.yul\":457:574   */\n    tag_53:\n        /* \"#utility.yul\":566:567   */\n      0x00\n        /* \"#utility.yul\":563:564   */\n      dup1\n        /* \"#utility.yul\":556:568   */\n      revert\n        /* \"#utility.yul\":580:682   */\n    tag_54:\n        /* \"#utility.yul\":621:627   */\n      0x00\n        /* \"#utility.yul\":672:674   */\n      0x1f\n        /* \"#utility.yul\":668:675   */\n      not\n        /* \"#utility.yul\":663:665   */\n      0x1f\n        /* \"#utility.yul\":656:661   */\n      dup4\n        /* \"#utility.yul\":652:666   */\n      add\n        /* \"#utility.yul\":648:676   */\n      and\n        /* \"#utility.yul\":638:676   */\n      swap1\n      pop\n        /* \"#utility.yul\":580:682   */\n      swap2\n      swap1\n      pop\n      jump\t// out\n        /* \"#utility.yul\":688:868   */\n    tag_55:\n        /* \"#utility.yul\":736:813   */\n      0x4e487b7100000000000000000000000000000000000000000000000000000000\n        /* \"#utility.yul\":733:734   */\n      0x00\n        /* \"#utility.yul\":726:814   */\n      mstore\n        /* \"#utility.yul\":833:837   */\n      0x41\n        /* \"#utility.yul\":830:831   */\n      0x04\n        /* \"#utility.yul\":823:838   */\n      mstore\n        /* \"#utility.yul\":857:861   */\n      0x24\n        /* \"#utility.yul\":854:855   */\n      0x00\n        /* \"#utility.yul\":847:862   */\n      revert\n        /* \"#utility.yul\":874:1155   */\n    tag_56:\n        /* \"#utility.yul\":957:984   */\n      tag_96\n        /* \"#utility.yul\":979:983   */\n      dup3\n        /* \"#utility.yul\":957:984   */\n      tag_54\n      jump\t// in\n    tag_96:\n        /* \"#utility.yul\":949:955   */\n      dup2\n        /* \"#utility.yul\":945:985   */\n      add\n        /* \"#utility.yul\":1087:1093   */\n      dup2\n        /* \"#utility.yul\":1075:1085   */\n      dup2\n        /* \"#utility.yul\":1072:1094   */\n      lt\n        /* \"#utility.yul\":1051:1069   */\n      0xffffffffffffffff\n        /* \"#utility.yul\":1039:1049   */\n      dup3\n        /* \"#utility.yul\":1036:1070   */\n      gt\n        /* \"#utility.yul\":1033:1095   */\n      or\n        /* \"#utility.yul\":1030:1118   */\n      iszero\n      tag_97\n      jumpi\n        /* \"#utility.yul\":1098:1116   */\n      tag_98\n      tag_55\n      jump\t// in\n    tag_98:\n        /* \"#utility.yul\":1030:1118   */\n    tag_97:\n        /* \"#utility.yul\":1138:1148   */\n      dup1\n        /* \"#utility.yul\":1134:1136   */\n      0x40\n        /* \"#utility.yul\":1127:1149   */\n      mstore\n        /* \"#utility.yul\":917:1155   */\n      pop\n        /* \"#utility.yul\":874:1155   */\n      pop\n      pop\n      jump\t// out\n        /* \"#utility.yul\":1161:1290   */\n    tag_57:\n        /* \"#utility.yul\":1195:1201   */\n      0x00\n        /* \"#utility.yul\":1222:1242   */\n      tag_100\n      tag_49\n      jump\t// in\n    tag_100:\n        /* \"#utility.yul\":1212:1242   */\n      swap1\n      pop\n        /* \"#utility.yul\":1251:1284   */\n      tag_101\n        /* \"#utility.yul\":1279:1283   */\n      dup3\n        /* \"#utility.yul\":1271:1277   */\n      dup3\n        /* \"#utility.yul\":1251:1284   */\n      tag_56\n      jump\t// in\n    tag_101:\n        /* \"#utility.yul\":1161:1290   */\n      swap2\n      swap1\n      pop\n      jump\t// out\n        /* \"#utility.yul\":1296:1604   */\n    tag_58:\n        /* \"#utility.yul\":1358:1362   */\n      0x00\n        /* \"#utility.yul\":1448:1466   */\n      0xffffffffffffffff\n        /* \"#utility.yul\":1440:1446   */\n      dup3\n        /* \"#utility.yul\":1437:1467   */\n      gt\n        /* \"#utility.yul\":1434:1490   */\n      iszero\n      tag_103\n      jumpi\n        /* \"#utility.yul\":1470:1488   */\n      tag_104\n      tag_55\n      jump\t// in\n    tag_104:\n        /* \"#utility.yul\":1434:1490   */\n    tag_103:\n        /* \"#utility.yul\":1508:1537   */\n      tag_105\n        /* \"#utility.yul\":1530:1536   */\n      dup3\n        /* \"#utility.yul\":1508:1537   */\n      tag_54\n      jump\t// in\n    tag_105:\n        /* \"#utility.yul\":1500:1537   */\n      swap1\n      pop\n        /* \"#utility.yul\":1592:1596   */\n      0x20\n        /* \"#utility.yul\":1586:1590   */\n      dup2\n        /* \"#utility.yul\":1582:1597   */\n      add\n        /* \"#utility.yul\":1574:1597   */\n      swap1\n      pop\n        /* \"#utility.yul\":1296:1604   */\n      swap2\n      swap1\n      pop\n      jump\t// out\n        /* \"#utility.yul\":1610:1756   */\n    tag_59:\n        /* \"#utility.yul\":1707:1713   */\n      dup3\n        /* \"#utility.yul\":1702:1705   */\n      dup2\n        /* \"#utility.yul\":1697:1700   */\n      dup4\n        /* \"#utility.yul\":1684:1714   */\n      calldatacopy\n        /* \"#utility.yul\":1748:1749   */\n      0x00\n        /* \"#utility.yul\":1739:1745   */\n      dup4\n        /* \"#utility.yul\":1734:1737   */\n      dup4\n        /* \"#utility.yul\":1730:1746   */\n      add\n        /* \"#utility.yul\":1723:1750   */\n      mstore\n        /* \"#utility.yul\":1610:1756   */\n      pop\n      pop\n      pop\n      jump\t// out\n        /* \"#utility.yul\":1762:2187   */\n    tag_60:\n        /* \"#utility.yul\":1840:1845   */\n      0x00\n        /* \"#utility.yul\":1865:1931   */\n      tag_108\n        /* \"#utility.yul\":1881:1930   */\n      tag_109\n        /* \"#utility.yul\":1923:1929   */\n      dup5\n        /* \"#utility.yul\":1881:1930   */\n      tag_58\n      jump\t// in\n    tag_109:\n        /* \"#utility.yul\":1865:1931   */\n      tag_57\n      jump\t// in\n    tag_108:\n        /* \"#utility.yul\":1856:1931   */\n      swap1\n      pop\n        /* \"#utility.yul\":1954:1960   */\n      dup3\n        /* \"#utility.yul\":1947:1952   */\n      dup2\n        /* \"#utility.yul\":1940:1961   */\n      mstore\n        /* \"#utility.yul\":1992:1996   */\n      0x20\n        /* \"#utility.yul\":1985:1990   */\n      dup2\n        /* \"#utility.yul\":1981:1997   */\n      add\n        /* \"#utility.yul\":2030:2033   */\n      dup5\n        /* \"#utility.yul\":2021:2027   */\n      dup5\n        /* \"#utility.yul\":2016:2019   */\n      dup5\n        /* \"#utility.yul\":2012:2028   */\n      add\n        /* \"#utility.yul\":2009:2034   */\n      gt\n        /* \"#utility.yul\":2006:2118   */\n      iszero\n      tag_110\n      jumpi\n        /* \"#utility.yul\":2037:2116   */\n      tag_111\n      tag_53\n      jump\t// in\n    tag_111:\n        /* \"#utility.yul\":2006:2118   */\n    tag_110:\n        /* \"#utility.yul\":2127:2181   */\n      tag_112\n        /* \"#utility.yul\":2174:2180   */\n      dup5\n        /* \"#utility.yul\":2169:2172   */\n      dup3\n        /* \"#utility.yul\":2164:2167   */\n      dup6\n        /* \"#utility.yul\":2127:2181   */\n      tag_59\n      jump\t// in\n    tag_112:\n        /* \"#utility.yul\":1846:2187   */\n      pop\n        /* \"#utility.yul\":1762:2187   */\n      swap4\n      swap3\n      pop\n      pop\n      pop\n      jump\t// out\n        /* \"#utility.yul\":2207:2547   */\n    tag_61:\n        /* \"#utility.yul\":2263:2268   */\n      0x00\n        /* \"#utility.yul\":2312:2315   */\n      dup3\n        /* \"#utility.yul\":2305:2309   */\n      0x1f\n        /* \"#utility.yul\":2297:2303   */\n      dup4\n        /* \"#utility.yul\":2293:2310   */\n      add\n        /* \"#utility.yul\":2289:2316   */\n      slt\n        /* \"#utility.yul\":2279:2401   */\n      tag_114\n      jumpi\n        /* \"#utility.yul\":2320:2399   */\n      tag_115\n      tag_52\n      jump\t// in\n    tag_115:\n        /* \"#utility.yul\":2279:2401   */\n    tag_114:\n        /* \"#utility.yul\":2437:2443   */\n      dup2\n        /* \"#utility.yul\":2424:2444   */\n      calldataload\n        /* \"#utility.yul\":2462:2541   */\n      tag_116\n        /* \"#utility.yul\":2537:2540   */\n      dup5\n        /* \"#utility.yul\":2529:2535   */\n      dup3\n        /* \"#utility.yul\":2522:2526   */\n      0x20\n        /* \"#utility.yul\":2514:2520   */\n      dup7\n        /* \"#utility.yul\":2510:2527   */\n      add\n        /* \"#utility.yul\":2462:2541   */\n      tag_60\n      jump\t// in\n    tag_116:\n        /* \"#utility.yul\":2453:2541   */\n      swap2\n      pop\n        /* \"#utility.yul\":2269:2547   */\n      pop\n        /* \"#utility.yul\":2207:2547   */\n      swap3\n      swap2\n      pop\n      pop\n      jump\t// out\n        /* \"#utility.yul\":2553:2630   */\n    tag_62:\n        /* \"#utility.yul\":2590:2597   */\n      0x00\n        /* \"#utility.yul\":2619:2624   */\n      dup2\n        /* \"#utility.yul\":2608:2624   */\n      swap1\n      pop\n        /* \"#utility.yul\":2553:2630   */\n      swap2\n      swap1\n      pop\n      jump\t// out\n        /* \"#utility.yul\":2636:2758   */\n    tag_63:\n        /* \"#utility.yul\":2709:2733   */\n      tag_119\n        /* \"#utility.yul\":2727:2732   */\n      dup2\n        /* \"#utility.yul\":2709:2733   */\n      tag_62\n      jump\t// in\n    tag_119:\n        /* \"#utility.yul\":2702:2707   */\n      dup2\n        /* \"#utility.yul\":2699:2734   */\n      eq\n        /* \"#utility.yul\":2689:2752   */\n      tag_120\n      jumpi\n        /* \"#utility.yul\":2748:2749   */\n      0x00\n        /* \"#utility.yul\":2745:2746   */\n      dup1\n        /* \"#utility.yul\":2738:2750   */\n      revert\n        /* \"#utility.yul\":2689:2752   */\n    tag_120:\n        /* \"#utility.yul\":2636:2758   */\n      pop\n      jump\t// out\n        /* \"#utility.yul\":2764:2903   */\n    tag_64:\n        /* \"#utility.yul\":2810:2815   */\n      0x00\n        /* \"#utility.yul\":2848:2854   */\n      dup2\n        /* \"#utility.yul\":2835:2855   */\n      calldataload\n        /* \"#utility.yul\":2826:2855   */\n      swap1\n      pop\n        /* \"#utility.yul\":2864:2897   */\n      tag_122\n        /* \"#utility.yul\":2891:2896   */\n      dup2\n        /* \"#utility.yul\":2864:2897   */\n      tag_63\n      jump\t// in\n    tag_122:\n        /* \"#utility.yul\":2764:2903   */\n      swap3\n      swap2\n      pop\n      pop\n      jump\t// out\n        /* \"#utility.yul\":2909:3708   */\n    tag_10:\n        /* \"#utility.yul\":2996:3002   */\n      0x00\n        /* \"#utility.yul\":3004:3010   */\n      dup1\n        /* \"#utility.yul\":3012:3018   */\n      0x00\n        /* \"#utility.yul\":3061:3063   */\n      0x60\n        /* \"#utility.yul\":3049:3058   */\n      dup5\n        /* \"#utility.yul\":3040:3047   */\n      dup7\n        /* \"#utility.yul\":3036:3059   */\n      sub\n        /* \"#utility.yul\":3032:3064   */\n      slt\n        /* \"#utility.yul\":3029:3148   */\n      iszero\n      tag_124\n      jumpi\n        /* \"#utility.yul\":3067:3146   */\n      tag_125\n      tag_50\n      jump\t// in\n    tag_125:\n        /* \"#utility.yul\":3029:3148   */\n    tag_124:\n        /* \"#utility.yul\":3215:3216   */\n      0x00\n        /* \"#utility.yul\":3204:3213   */\n      dup5\n        /* \"#utility.yul\":3200:3217   */\n      add\n        /* \"#utility.yul\":3187:3218   */\n      calldataload\n        /* \"#utility.yul\":3245:3263   */\n      0xffffffffffffffff\n        /* \"#utility.yul\":3237:3243   */\n      dup2\n        /* \"#utility.yul\":3234:3264   */\n      gt\n        /* \"#utility.yul\":3231:3348   */\n      iszero\n      tag_126\n      jumpi\n        /* \"#utility.yul\":3267:3346   */\n      tag_127\n      tag_51\n      jump\t// in\n    tag_127:\n        /* \"#utility.yul\":3231:3348   */\n    tag_126:\n        /* \"#utility.yul\":3372:3435   */\n      tag_128\n        /* \"#utility.yul\":3427:3434   */\n      dup7\n        /* \"#utility.yul\":3418:3424   */\n      dup3\n        /* \"#utility.yul\":3407:3416   */\n      dup8\n        /* \"#utility.yul\":3403:3425   */\n      add\n        /* \"#utility.yul\":3372:3435   */\n      tag_61\n      jump\t// in\n    tag_128:\n        /* \"#utility.yul\":3362:3435   */\n      swap4\n      pop\n        /* \"#utility.yul\":3158:3445   */\n      pop\n        /* \"#utility.yul\":3484:3486   */\n      0x20\n        /* \"#utility.yul\":3510:3563   */\n      tag_129\n        /* \"#utility.yul\":3555:3562   */\n      dup7\n        /* \"#utility.yul\":3546:3552   */\n      dup3\n        /* \"#utility.yul\":3535:3544   */\n      dup8\n        /* \"#utility.yul\":3531:3553   */\n      add\n        /* \"#utility.yul\":3510:3563   */\n      tag_64\n      jump\t// in\n    tag_129:\n        /* \"#utility.yul\":3500:3563   */\n      swap3\n      pop\n        /* \"#utility.yul\":3455:3573   */\n      pop\n        /* \"#utility.yul\":3612:3614   */\n      0x40\n        /* \"#utility.yul\":3638:3691   */\n      tag_130\n        /* \"#utility.yul\":3683:3690   */\n      dup7\n        /* \"#utility.yul\":3674:3680   */\n      dup3\n        /* \"#utility.yul\":3663:3672   */\n      dup8\n        /* \"#utility.yul\":3659:3681   */\n      add\n        /* \"#utility.yul\":3638:3691   */\n      tag_64\n      jump\t// in\n    tag_130:\n        /* \"#utility.yul\":3628:3691   */\n      swap2\n      pop\n        /* \"#utility.yul\":3583:3701   */\n      pop\n        /* \"#utility.yul\":2909:3708   */\n      swap3\n      pop\n      swap3\n      pop\n      swap3\n      jump\t// out\n        /* \"#utility.yul\":3714:4043   */\n    tag_14:\n        /* \"#utility.yul\":3773:3779   */\n      0x00\n        /* \"#utility.yul\":3822:3824   */\n      0x20\n        /* \"#utility.yul\":3810:3819   */\n      dup3\n        /* \"#utility.yul\":3801:3808   */\n      dup5\n        /* \"#utility.yul\":3797:3820   */\n      sub\n        /* \"#utility.yul\":3793:3825   */\n      slt\n        /* \"#utility.yul\":3790:3909   */\n      iszero\n      tag_132\n      jumpi\n        /* \"#utility.yul\":3828:3907   */\n      tag_133\n      tag_50\n      jump\t// in\n    tag_133:\n        /* \"#utility.yul\":3790:3909   */\n    tag_132:\n        /* \"#utility.yul\":3948:3949   */\n      0x00\n        /* \"#utility.yul\":3973:4026   */\n      tag_134\n        /* \"#utility.yul\":4018:4025   */\n      dup5\n        /* \"#utility.yul\":4009:4015   */\n      dup3\n        /* \"#utility.yul\":3998:4007   */\n      dup6\n        /* \"#utility.yul\":3994:4016   */\n      add\n        /* \"#utility.yul\":3973:4026   */\n      tag_64\n      jump\t// in\n    tag_134:\n        /* \"#utility.yul\":3963:4026   */\n      swap2\n      pop\n        /* \"#utility.yul\":3919:4036   */\n      pop\n        /* \"#utility.yul\":3714:4043   */\n      swap3\n      swap2\n      pop\n      pop\n      jump\t// out\n        /* \"#utility.yul\":4049:4167   */\n    tag_65:\n        /* \"#utility.yul\":4136:4160   */\n      tag_136\n        /* \"#utility.yul\":4154:4159   */\n      dup2\n        /* \"#utility.yul\":4136:4160   */\n      tag_62\n      jump\t// in\n    tag_136:\n        /* \"#utility.yul\":4131:4134   */\n      dup3\n        /* \"#utility.yul\":4124:4161   */\n      mstore\n        /* \"#utility.yul\":4049:4167   */\n      pop\n      pop\n      jump\t// out\n        /* \"#utility.yul\":4173:4272   */\n    tag_66:\n        /* \"#utility.yul\":4225:4231   */\n      0x00\n        /* \"#utility.yul\":4259:4264   */\n      dup2\n        /* \"#utility.yul\":4253:4265   */\n      mload\n        /* \"#utility.yul\":4243:4265   */\n      swap1\n      pop\n        /* \"#utility.yul\":4173:4272   */\n      swap2\n      swap1\n      pop\n      jump\t// out\n        /* \"#utility.yul\":4278:4447   */\n    tag_67:\n        /* \"#utility.yul\":4362:4373   */\n      0x00\n        /* \"#utility.yul\":4396:4402   */\n      dup3\n        /* \"#utility.yul\":4391:4394   */\n      dup3\n        /* \"#utility.yul\":4384:4403   */\n      mstore\n        /* \"#utility.yul\":4436:4440   */\n      0x20\n        /* \"#utility.yul\":4431:4434   */\n      dup3\n        /* \"#utility.yul\":4427:4441   */\n      add\n        /* \"#utility.yul\":4412:4441   */\n      swap1\n      pop\n        /* \"#utility.yul\":4278:4447   */\n      swap3\n      swap2\n      pop\n      pop\n      jump\t// out\n        /* \"#utility.yul\":4453:4699   */\n    tag_68:\n        /* \"#utility.yul\":4534:4535   */\n      0x00\n        /* \"#utility.yul\":4544:4657   */\n    tag_140:\n        /* \"#utility.yul\":4558:4564   */\n      dup4\n        /* \"#utility.yul\":4555:4556   */\n      dup2\n        /* \"#utility.yul\":4552:4565   */\n      lt\n        /* \"#utility.yul\":4544:4657   */\n      iszero\n      tag_142\n      jumpi\n        /* \"#utility.yul\":4643:4644   */\n      dup1\n        /* \"#utility.yul\":4638:4641   */\n      dup3\n        /* \"#utility.yul\":4634:4645   */\n      add\n        /* \"#utility.yul\":4628:4646   */\n      mload\n        /* \"#utility.yul\":4624:4625   */\n      dup2\n        /* \"#utility.yul\":4619:4622   */\n      dup5\n        /* \"#utility.yul\":4615:4626   */\n      add\n        /* \"#utility.yul\":4608:4647   */\n      mstore\n        /* \"#utility.yul\":4580:4582   */\n      0x20\n        /* \"#utility.yul\":4577:4578   */\n      dup2\n        /* \"#utility.yul\":4573:4583   */\n      add\n        /* \"#utility.yul\":4568:4583   */\n      swap1\n      pop\n        /* \"#utility.yul\":4544:4657   */\n      jump(tag_140)\n    tag_142:\n        /* \"#utility.yul\":4691:4692   */\n      0x00\n        /* \"#utility.yul\":4682:4688   */\n      dup5\n        /* \"#utility.yul\":4677:4680   */\n      dup5\n        /* \"#utility.yul\":4673:4689   */\n      add\n        /* \"#utility.yul\":4666:4693   */\n      mstore\n        /* \"#utility.yul\":4515:4699   */\n      pop\n        /* \"#utility.yul\":4453:4699   */\n      pop\n      pop\n      pop\n      jump\t// out\n        /* \"#utility.yul\":4705:5082   */\n    tag_69:\n        /* \"#utility.yul\":4793:4796   */\n      0x00\n        /* \"#utility.yul\":4821:4860   */\n      tag_144\n        /* \"#utility.yul\":4854:4859   */\n      dup3\n        /* \"#utility.yul\":4821:4860   */\n      tag_66\n      jump\t// in\n    tag_144:\n        /* \"#utility.yul\":4876:4947   */\n      tag_145\n        /* \"#utility.yul\":4940:4946   */\n      dup2\n        /* \"#utility.yul\":4935:4938   */\n      dup6\n        /* \"#utility.yul\":4876:4947   */\n      tag_67\n      jump\t// in\n    tag_145:\n        /* \"#utility.yul\":4869:4947   */\n      swap4\n      pop\n        /* \"#utility.yul\":4956:5021   */\n      tag_146\n        /* \"#utility.yul\":5014:5020   */\n      dup2\n        /* \"#utility.yul\":5009:5012   */\n      dup6\n        /* \"#utility.yul\":5002:5006   */\n      0x20\n        /* \"#utility.yul\":4995:5000   */\n      dup7\n        /* \"#utility.yul\":4991:5007   */\n      add\n        /* \"#utility.yul\":4956:5021   */\n      tag_68\n      jump\t// in\n    tag_146:\n        /* \"#utility.yul\":5046:5075   */\n      tag_147\n        /* \"#utility.yul\":5068:5074   */\n      dup2\n        /* \"#utility.yul\":5046:5075   */\n      tag_54\n      jump\t// in\n    tag_147:\n        /* \"#utility.yul\":5041:5044   */\n      dup5\n        /* \"#utility.yul\":5037:5076   */\n      add\n        /* \"#utility.yul\":5030:5076   */\n      swap2\n      pop\n        /* \"#utility.yul\":4797:5082   */\n      pop\n        /* \"#utility.yul\":4705:5082   */\n      swap3\n      swap2\n      pop\n      pop\n      jump\t// out\n        /* \"#utility.yul\":5088:5732   */\n    tag_17:\n        /* \"#utility.yul\":5285:5289   */\n      0x00\n        /* \"#utility.yul\":5323:5326   */\n      0x80\n        /* \"#utility.yul\":5312:5321   */\n      dup3\n        /* \"#utility.yul\":5308:5327   */\n      add\n        /* \"#utility.yul\":5300:5327   */\n      swap1\n      pop\n        /* \"#utility.yul\":5337:5408   */\n      tag_149\n        /* \"#utility.yul\":5405:5406   */\n      0x00\n        /* \"#utility.yul\":5394:5403   */\n      dup4\n        /* \"#utility.yul\":5390:5407   */\n      add\n        /* \"#utility.yul\":5381:5387   */\n      dup8\n        /* \"#utility.yul\":5337:5408   */\n      tag_65\n      jump\t// in\n    tag_149:\n        /* \"#utility.yul\":5455:5464   */\n      dup2\n        /* \"#utility.yul\":5449:5453   */\n      dup2\n        /* \"#utility.yul\":5445:5465   */\n      sub\n        /* \"#utility.yul\":5440:5442   */\n      0x20\n        /* \"#utility.yul\":5429:5438   */\n      dup4\n        /* \"#utility.yul\":5425:5443   */\n      add\n        /* \"#utility.yul\":5418:5466   */\n      mstore\n        /* \"#utility.yul\":5483:5561   */\n      tag_150\n        /* \"#utility.yul\":5556:5560   */\n      dup2\n        /* \"#utility.yul\":5547:5553   */\n      dup7\n        /* \"#utility.yul\":5483:5561   */\n      tag_69\n      jump\t// in\n    tag_150:\n        /* \"#utility.yul\":5475:5561   */\n      swap1\n      pop\n        /* \"#utility.yul\":5571:5643   */\n      tag_151\n        /* \"#utility.yul\":5639:5641   */\n      0x40\n        /* \"#utility.yul\":5628:5637   */\n      dup4\n        /* \"#utility.yul\":5624:5642   */\n      add\n        /* \"#utility.yul\":5615:5621   */\n      dup6\n        /* \"#utility.yul\":5571:5643   */\n      tag_65\n      jump\t// in\n    tag_151:\n        /* \"#utility.yul\":5653:5725   */\n      tag_152\n        /* \"#utility.yul\":5721:5723   */\n      0x60\n        /* \"#utility.yul\":5710:5719   */\n      dup4\n        /* \"#utility.yul\":5706:5724   */\n      add\n        /* \"#utility.yul\":5697:5703   */\n      dup5\n        /* \"#utility.yul\":5653:5725   */\n      tag_65\n      jump\t// in\n    tag_152:\n        /* \"#utility.yul\":5088:5732   */\n      swap6\n      swap5\n      pop\n      pop\n      pop\n      pop\n      pop\n      jump\t// out\n        /* \"#utility.yul\":5738:6271   */\n    tag_22:\n        /* \"#utility.yul\":5907:5911   */\n      0x00\n        /* \"#utility.yul\":5945:5947   */\n      0x60\n        /* \"#utility.yul\":5934:5943   */\n      dup3\n        /* \"#utility.yul\":5930:5948   */\n      add\n        /* \"#utility.yul\":5922:5948   */\n      swap1\n      pop\n        /* \"#utility.yul\":5994:6003   */\n      dup2\n        /* \"#utility.yul\":5988:5992   */\n      dup2\n        /* \"#utility.yul\":5984:6004   */\n      sub\n        /* \"#utility.yul\":5980:5981   */\n      0x00\n        /* \"#utility.yul\":5969:5978   */\n      dup4\n        /* \"#utility.yul\":5965:5982   */\n      add\n        /* \"#utility.yul\":5958:6005   */\n      mstore\n        /* \"#utility.yul\":6022:6100   */\n      tag_154\n        /* \"#utility.yul\":6095:6099   */\n      dup2\n        /* \"#utility.yul\":6086:6092   */\n      dup7\n        /* \"#utility.yul\":6022:6100   */\n      tag_69\n      jump\t// in\n    tag_154:\n        /* \"#utility.yul\":6014:6100   */\n      swap1\n      pop\n        /* \"#utility.yul\":6110:6182   */\n      tag_155\n        /* \"#utility.yul\":6178:6180   */\n      0x20\n        /* \"#utility.yul\":6167:6176   */\n      dup4\n        /* \"#utility.yul\":6163:6181   */\n      add\n        /* \"#utility.yul\":6154:6160   */\n      dup6\n        /* \"#utility.yul\":6110:6182   */\n      tag_65\n      jump\t// in\n    tag_155:\n        /* \"#utility.yul\":6192:6264   */\n      tag_156\n        /* \"#utility.yul\":6260:6262   */\n      0x40\n        /* \"#utility.yul\":6249:6258   */\n      dup4\n        /* \"#utility.yul\":6245:6263   */\n      add\n        /* \"#utility.yul\":6236:6242   */\n      dup5\n        /* \"#utility.yul\":6192:6264   */\n      tag_65\n      jump\t// in\n    tag_156:\n        /* \"#utility.yul\":5738:6271   */\n      swap5\n      swap4\n      pop\n      pop\n      pop\n      pop\n      jump\t// out\n        /* \"#utility.yul\":6277:6499   */\n    tag_26:\n        /* \"#utility.yul\":6370:6374   */\n      0x00\n        /* \"#utility.yul\":6408:6410   */\n      0x20\n        /* \"#utility.yul\":6397:6406   */\n      dup3\n        /* \"#utility.yul\":6393:6411   */\n      add\n        /* \"#utility.yul\":6385:6411   */\n      swap1\n      pop\n        /* \"#utility.yul\":6421:6492   */\n      tag_158\n        /* \"#utility.yul\":6489:6490   */\n      0x00\n        /* \"#utility.yul\":6478:6487   */\n      dup4\n        /* \"#utility.yul\":6474:6491   */\n      add\n        /* \"#utility.yul\":6465:6471   */\n      dup5\n        /* \"#utility.yul\":6421:6492   */\n      tag_65\n      jump\t// in\n    tag_158:\n        /* \"#utility.yul\":6277:6499   */\n      swap3\n      swap2\n      pop\n      pop\n      jump\t// out\n        /* \"#utility.yul\":6505:6979   */\n    tag_29:\n        /* \"#utility.yul\":6573:6579   */\n      0x00\n        /* \"#utility.yul\":6581:6587   */\n      dup1\n        /* \"#utility.yul\":6630:6632   */\n      0x40\n        /* \"#utility.yul\":6618:6627   */\n      dup4\n        /* \"#utility.yul\":6609:6616   */\n      dup6\n        /* \"#utility.yul\":6605:6628   */\n      sub\n        /* \"#utility.yul\":6601:6633   */\n      slt\n        /* \"#utility.yul\":6598:6717   */\n      iszero\n      tag_160\n      jumpi\n        /* \"#utility.yul\":6636:6715   */\n      tag_161\n      tag_50\n      jump\t// in\n    tag_161:\n        /* \"#utility.yul\":6598:6717   */\n    tag_160:\n        /* \"#utility.yul\":6756:6757   */\n      0x00\n        /* \"#utility.yul\":6781:6834   */\n      tag_162\n        /* \"#utility.yul\":6826:6833   */\n      dup6\n        /* \"#utility.yul\":6817:6823   */\n      dup3\n        /* \"#utility.yul\":6806:6815   */\n      dup7\n        /* \"#utility.yul\":6802:6824   */\n      add\n        /* \"#utility.yul\":6781:6834   */\n      tag_64\n      jump\t// in\n    tag_162:\n        /* \"#utility.yul\":6771:6834   */\n      swap3\n      pop\n        /* \"#utility.yul\":6727:6844   */\n      pop\n        /* \"#utility.yul\":6883:6885   */\n      0x20\n        /* \"#utility.yul\":6909:6962   */\n      tag_163\n        /* \"#utility.yul\":6954:6961   */\n      dup6\n        /* \"#utility.yul\":6945:6951   */\n      dup3\n        /* \"#utility.yul\":6934:6943   */\n      dup7\n        /* \"#utility.yul\":6930:6952   */\n      add\n        /* \"#utility.yul\":6909:6962   */\n      tag_64\n      jump\t// in\n    tag_163:\n        /* \"#utility.yul\":6899:6962   */\n      swap2\n      pop\n        /* \"#utility.yul\":6854:6972   */\n      pop\n        /* \"#utility.yul\":6505:6979   */\n      swap3\n      pop\n      swap3\n      swap1\n      pop\n      jump\t// out\n        /* \"#utility.yul\":6985:7165   */\n    tag_70:\n        /* \"#utility.yul\":7033:7110   */\n      0x4e487b7100000000000000000000000000000000000000000000000000000000\n        /* \"#utility.yul\":7030:7031   */\n      0x00\n        /* \"#utility.yul\":7023:7111   */\n      mstore\n        /* \"#utility.yul\":7130:7134   */\n      0x11\n        /* \"#utility.yul\":7127:7128   */\n      0x04\n        /* \"#utility.yul\":7120:7135   */\n      mstore\n        /* \"#utility.yul\":7154:7158   */\n      0x24\n        /* \"#utility.yul\":7151:7152   */\n      0x00\n        /* \"#utility.yul\":7144:7159   */\n      revert\n        /* \"#utility.yul\":7171:7404   */\n    tag_33:\n        /* \"#utility.yul\":7210:7213   */\n      0x00\n        /* \"#utility.yul\":7233:7257   */\n      tag_166\n        /* \"#utility.yul\":7251:7256   */\n      dup3\n        /* \"#utility.yul\":7233:7257   */\n      tag_62\n      jump\t// in\n    tag_166:\n        /* \"#utility.yul\":7224:7257   */\n      swap2\n      pop\n        /* \"#utility.yul\":7279:7345   */\n      0xffffffffffffffffffffffffffffffffffffffffffffffffffffffffffffffff\n        /* \"#utility.yul\":7272:7277   */\n      dup3\n        /* \"#utility.yul\":7269:7346   */\n      sub\n        /* \"#utility.yul\":7266:7369   */\n      tag_167\n      jumpi\n        /* \"#utility.yul\":7349:7367   */\n      tag_168\n      tag_70\n      jump\t// in\n    tag_168:\n        /* \"#utility.yul\":7266:7369   */\n    tag_167:\n        /* \"#utility.yul\":7396:7397   */\n      0x01\n        /* \"#utility.yul\":7389:7394   */\n      dup3\n        /* \"#utility.yul\":7385:7398   */\n      add\n        /* \"#utility.yul\":7378:7398   */\n      swap1\n      pop\n        /* \"#utility.yul\":7171:7404   */\n      swap2\n      swap1\n      pop\n      jump\t// out\n        /* \"#utility.yul\":7410:7590   */\n    tag_71:\n        /* \"#utility.yul\":7458:7535   */\n      0x4e487b7100000000000000000000000000000000000000000000000000000000\n        /* \"#utility.yul\":7455:7456   */\n      0x00\n        /* \"#utility.yul\":7448:7536   */\n      mstore\n        /* \"#utility.yul\":7555:7559   */\n      0x22\n        /* \"#utility.yul\":7552:7553   */\n      0x04\n        /* \"#utility.yul\":7545:7560   */\n      mstore\n        /* \"#utility.yul\":7579:7583   */\n      0x24\n        /* \"#utility.yul\":7576:7577   */\n      0x00\n        /* \"#utility.yul\":7569:7584   */\n      revert\n        /* \"#utility.yul\":7596:7916   */\n    tag_37:\n        /* \"#utility.yul\":7640:7646   */\n      0x00\n        /* \"#utility.yul\":7677:7678   */\n      0x02\n        /* \"#utility.yul\":7671:7675   */\n      dup3\n        /* \"#utility.yul\":7667:7679   */\n      div\n        /* \"#utility.yul\":7657:7679   */\n      swap1\n      pop\n        /* \"#utility.yul\":7724:7725   */\n      0x01\n        /* \"#utility.yul\":7718:7722   */\n      dup3\n        /* \"#utility.yul\":7714:7726   */\n      and\n        /* \"#utility.yul\":7745:7763   */\n      dup1\n        /* \"#utility.yul\":7735:7816   */\n      tag_171\n      jumpi\n        /* \"#utility.yul\":7801:7805   */\n      0x7f\n        /* \"#utility.yul\":7793:7799   */\n      dup3\n        /* \"#utility.yul\":7789:7806   */\n      and\n        /* \"#utility.yul\":7779:7806   */\n      swap2\n      pop\n        /* \"#utility.yul\":7735:7816   */\n    tag_171:\n        /* \"#utility.yul\":7863:7865   */\n      0x20\n        /* \"#utility.yul\":7855:7861   */\n      dup3\n        /* \"#utility.yul\":7852:7866   */\n      lt\n        /* \"#utility.yul\":7832:7850   */\n      dup2\n        /* \"#utility.yul\":7829:7867   */\n      sub\n        /* \"#utility.yul\":7826:7910   */\n      tag_172\n      jumpi\n        /* \"#utility.yul\":7882:7900   */\n      tag_173\n      tag_71\n      jump\t// in\n    tag_173:\n        /* \"#utility.yul\":7826:7910   */\n    tag_172:\n        /* \"#utility.yul\":7647:7916   */\n      pop\n        /* \"#utility.yul\":7596:7916   */\n      swap2\n      swap1\n      pop\n      jump\t// out\n        /* \"#utility.yul\":7922:8063   */\n    tag_72:\n        /* \"#utility.yul\":7971:7975   */\n      0x00\n        /* \"#utility.yul\":7994:7997   */\n      dup2\n        /* \"#utility.yul\":7986:7997   */\n      swap1\n      pop\n        /* \"#utility.yul\":8017:8020   */\n      dup2\n        /* \"#utility.yul\":8014:8015   */\n      0x00\n        /* \"#utility.yul\":8007:8021   */\n      mstore\n        /* \"#utility.yul\":8051:8055   */\n      0x20\n        /* \"#utility.yul\":8048:8049   */\n      0x00\n        /* \"#utility.yul\":8038:8056   */\n      keccak256\n        /* \"#utility.yul\":8030:8056   */\n      swap1\n      pop\n        /* \"#utility.yul\":7922:8063   */\n      swap2\n      swap1\n      pop\n      jump\t// out\n        /* \"#utility.yul\":8069:8162   */\n    tag_73:\n        /* \"#utility.yul\":8106:8112   */\n      0x00\n        /* \"#utility.yul\":8153:8155   */\n      0x20\n        /* \"#utility.yul\":8148:8150   */\n      0x1f\n        /* \"#utility.yul\":8141:8146   */\n      dup4\n        /* \"#utility.yul\":8137:8151   */\n      add\n        /* \"#utility.yul\":8133:8156   */\n      div\n        /* \"#utility.yul\":8123:8156   */\n      swap1\n      pop\n        /* \"#utility.yul\":8069:8162   */\n      swap2\n      swap1\n      pop\n      jump\t// out\n        /* \"#utility.yul\":8168:8275   */\n    tag_74:\n        /* \"#utility.yul\":8212:8220   */\n      0x00\n        /* \"#utility.yul\":8262:8267   */\n      dup3\n        /* \"#utility.yul\":8256:8260   */\n      dup3\n        /* \"#utility.yul\":8252:8268   */\n      shl\n        /* \"#utility.yul\":8231:8268   */\n      swap1\n      pop\n        /* \"#utility.yul\":8168:8275   */\n      swap3\n      swap2\n      pop\n      pop\n      jump\t// out\n        /* \"#utility.yul\":8281:8674   */\n    tag_75:\n        /* \"#utility.yul\":8350:8356   */\n      0x00\n        /* \"#utility.yul\":8400:8401   */\n      0x08\n        /* \"#utility.yul\":8388:8398   */\n      dup4\n        /* \"#utility.yul\":8384:8402   */\n      mul\n        /* \"#utility.yul\":8423:8520   */\n      tag_178\n        /* \"#utility.yul\":8453:8519   */\n      0xffffffffffffffffffffffffffffffffffffffffffffffffffffffffffffffff\n        /* \"#utility.yul\":8442:8451   */\n      dup3\n        /* \"#utility.yul\":8423:8520   */\n      tag_74\n      jump\t// in\n    tag_178:\n        /* \"#utility.yul\":8541:8580   */\n      tag_179\n        /* \"#utility.yul\":8571:8579   */\n      dup7\n        /* \"#utility.yul\":8560:8569   */\n      dup4\n        /* \"#utility.yul\":8541:8580   */\n      tag_74\n      jump\t// in\n    tag_179:\n        /* \"#utility.yul\":8529:8580   */\n      swap6\n      pop\n        /* \"#utility.yul\":8613:8617   */\n      dup1\n        /* \"#utility.yul\":8609:8618   */\n      not\n        /* \"#utility.yul\":8602:8607   */\n      dup5\n        /* \"#utility.yul\":8598:8619   */\n      and\n        /* \"#utility.yul\":8589:8619   */\n      swap4\n      pop\n        /* \"#utility.yul\":8662:8666   */\n      dup1\n        /* \"#utility.yul\":8652:8660   */\n      dup7\n        /* \"#utility.yul\":8648:8667   */\n      and\n        /* \"#utility.yul\":8641:8646   */\n      dup5\n        /* \"#utility.yul\":8638:8668   */\n      or\n        /* \"#utility.yul\":8628:8668   */\n      swap3\n      pop\n        /* \"#utility.yul\":8357:8674   */\n      pop\n      pop\n        /* \"#utility.yul\":8281:8674   */\n      swap4\n      swap3\n      pop\n      pop\n      pop\n      jump\t// out\n        /* \"#utility.yul\":8680:8740   */\n    tag_76:\n        /* \"#utility.yul\":8708:8711   */\n      0x00\n        /* \"#utility.yul\":8729:8734   */\n      dup2\n        /* \"#utility.yul\":8722:8734   */\n      swap1\n      pop\n        /* \"#utility.yul\":8680:8740   */\n      swap2\n      swap1\n      pop\n      jump\t// out\n        /* \"#utility.yul\":8746:8888   */\n    tag_77:\n        /* \"#utility.yul\":8796:8805   */\n      0x00\n        /* \"#utility.yul\":8829:8882   */\n      tag_182\n        /* \"#utility.yul\":8847:8881   */\n      tag_183\n        /* \"#utility.yul\":8856:8880   */\n      tag_184\n        /* \"#utility.yul\":8874:8879   */\n      dup5\n        /* \"#utility.yul\":8856:8880   */\n      tag_62\n      jump\t// in\n    tag_184:\n        /* \"#utility.yul\":8847:8881   */\n      tag_76\n      jump\t// in\n    tag_183:\n        /* \"#utility.yul\":8829:8882   */\n      tag_62\n      jump\t// in\n    tag_182:\n        /* \"#utility.yul\":8816:8882   */\n      swap1\n      pop\n        /* \"#utility.yul\":8746:8888   */\n      swap2\n      swap1\n      pop\n      jump\t// out\n        /* \"#utility.yul\":8894:8969   */\n    tag_78:\n        /* \"#utility.yul\":8937:8940   */\n      0x00\n        /* \"#utility.yul\":8958:8963   */\n      dup2\n        /* \"#utility.yul\":8951:8963   */\n      swap1\n      pop\n        /* \"#utility.yul\":8894:8969   */\n      swap2\n      swap1\n      pop\n      jump\t// out\n        /* \"#utility.yul\":8975:9244   */\n    tag_79:\n        /* \"#utility.yul\":9085:9124   */\n      tag_187\n        /* \"#utility.yul\":9116:9123   */\n      dup4\n        /* \"#utility.yul\":9085:9124   */\n      tag_77\n      jump\t// in\n    tag_187:\n        /* \"#utility.yul\":9146:9237   */\n      tag_188\n        /* \"#utility.yul\":9195:9236   */\n      tag_189\n        /* \"#utility.yul\":9219:9235   */\n      dup3\n        /* \"#utility.yul\":9195:9236   */\n      tag_78\n      jump\t// in\n    tag_189:\n        /* \"#utility.yul\":9187:9193   */\n      dup5\n        /* \"#utility.yul\":9180:9184   */\n      dup5\n        /* \"#utility.yul\":9174:9185   */\n      sload\n        /* \"#utility.yul\":9146:9237   */\n      tag_75\n      jump\t// in\n    tag_188:\n        /* \"#utility.yul\":9140:9144   */\n      dup3\n        /* \"#utility.yul\":9133:9238   */\n      sstore\n        /* \"#utility.yul\":9051:9244   */\n      pop\n        /* \"#utility.yul\":8975:9244   */\n      pop\n      pop\n      pop\n      jump\t// out\n        /* \"#utility.yul\":9250:9323   */\n    tag_80:\n        /* \"#utility.yul\":9295:9298   */\n      0x00\n        /* \"#utility.yul\":9250:9323   */\n      swap1\n      jump\t// out\n        /* \"#utility.yul\":9329:9518   */\n    tag_81:\n        /* \"#utility.yul\":9406:9438   */\n      tag_192\n      tag_80\n      jump\t// in\n    tag_192:\n        /* \"#utility.yul\":9447:9512   */\n      tag_193\n        /* \"#utility.yul\":9505:9511   */\n      dup2\n        /* \"#utility.yul\":9497:9503   */\n      dup5\n        /* \"#utility.yul\":9491:9495   */\n      dup5\n        /* \"#utility.yul\":9447:9512   */\n      tag_79\n      jump\t// in\n    tag_193:\n        /* \"#utility.yul\":9382:9518   */\n      pop\n        /* \"#utility.yul\":9329:9518   */\n      pop\n      pop\n      jump\t// out\n        /* \"#utility.yul\":9524:9710   */\n    tag_82:\n        /* \"#utility.yul\":9584:9704   */\n    tag_195:\n        /* \"#utility.yul\":9601:9604   */\n      dup2\n        /* \"#utility.yul\":9594:9599   */\n      dup2\n        /* \"#utility.yul\":9591:9605   */\n      lt\n        /* \"#utility.yul\":9584:9704   */\n      iszero\n      tag_197\n      jumpi\n        /* \"#utility.yul\":9655:9694   */\n      tag_198\n        /* \"#utility.yul\":9692:9693   */\n      0x00\n        /* \"#utility.yul\":9685:9690   */\n      dup3\n        /* \"#utility.yul\":9655:9694   */\n      tag_81\n      jump\t// in\n    tag_198:\n        /* \"#utility.yul\":9628:9629   */\n      0x01\n        /* \"#utility.yul\":9621:9626   */\n      dup2\n        /* \"#utility.yul\":9617:9630   */\n      add\n        /* \"#utility.yul\":9608:9630   */\n      swap1\n      pop\n        /* \"#utility.yul\":9584:9704   */\n      jump(tag_195)\n    tag_197:\n        /* \"#utility.yul\":9524:9710   */\n      pop\n      pop\n      jump\t// out\n        /* \"#utility.yul\":9716:10259   */\n    tag_83:\n        /* \"#utility.yul\":9817:9819   */\n      0x1f\n        /* \"#utility.yul\":9812:9815   */\n      dup3\n        /* \"#utility.yul\":9809:9820   */\n      gt\n        /* \"#utility.yul\":9806:10252   */\n      iszero\n      tag_200\n      jumpi\n        /* \"#utility.yul\":9851:9889   */\n      tag_201\n        /* \"#utility.yul\":9883:9888   */\n      dup2\n        /* \"#utility.yul\":9851:9889   */\n      tag_72\n      jump\t// in\n    tag_201:\n        /* \"#utility.yul\":9935:9964   */\n      tag_202\n        /* \"#utility.yul\":9953:9963   */\n      dup5\n        /* \"#utility.yul\":9935:9964   */\n      tag_73\n      jump\t// in\n    tag_202:\n        /* \"#utility.yul\":9925:9933   */\n      dup2\n        /* \"#utility.yul\":9921:9965   */\n      add\n        /* \"#utility.yul\":10118:10120   */\n      0x20\n        /* \"#utility.yul\":10106:10116   */\n      dup6\n        /* \"#utility.yul\":10103:10121   */\n      lt\n        /* \"#utility.yul\":10100:10149   */\n      iszero\n      tag_203\n      jumpi\n        /* \"#utility.yul\":10139:10147   */\n      dup2\n        /* \"#utility.yul\":10124:10147   */\n      swap1\n      pop\n        /* \"#utility.yul\":10100:10149   */\n    tag_203:\n        /* \"#utility.yul\":10162:10242   */\n      tag_204\n        /* \"#utility.yul\":10218:10240   */\n      tag_205\n        /* \"#utility.yul\":10236:10239   */\n      dup6\n        /* \"#utility.yul\":10218:10240   */\n      tag_73\n      jump\t// in\n    tag_205:\n        /* \"#utility.yul\":10208:10216   */\n      dup4\n        /* \"#utility.yul\":10204:10241   */\n      add\n        /* \"#utility.yul\":10191:10202   */\n      dup3\n        /* \"#utility.yul\":10162:10242   */\n      tag_82\n      jump\t// in\n    tag_204:\n        /* \"#utility.yul\":9821:10252   */\n      pop\n      pop\n        /* \"#utility.yul\":9806:10252   */\n    tag_200:\n        /* \"#utility.yul\":9716:10259   */\n      pop\n      pop\n      pop\n      jump\t// out\n        /* \"#utility.yul\":10265:10382   */\n    tag_84:\n        /* \"#utility.yul\":10319:10327   */\n      0x00\n        /* \"#utility.yul\":10369:10374   */\n      dup3\n        /* \"#utility.yul\":10363:10367   */\n      dup3\n        /* \"#utility.yul\":10359:10375   */\n      shr\n        /* \"#utility.yul\":10338:10375   */\n      swap1\n      pop\n        /* \"#utility.yul\":10265:10382   */\n      swap3\n      swap2\n      pop\n      pop\n      jump\t// out\n        /* \"#utility.yul\":10388:10557   */\n    tag_85:\n        /* \"#utility.yul\":10432:10438   */\n      0x00\n        /* \"#utility.yul\":10465:10516   */\n      tag_208\n        /* \"#utility.yul\":10513:10514   */\n      0x00\n        /* \"#utility.yul\":10509:10515   */\n      not\n        /* \"#utility.yul\":10501:10506   */\n      dup5\n        /* \"#utility.yul\":10498:10499   */\n      0x08\n        /* \"#utility.yul\":10494:10507   */\n      mul\n        /* \"#utility.yul\":10465:10516   */\n      tag_84\n      jump\t// in\n    tag_208:\n        /* \"#utility.yul\":10461:10517   */\n      not\n        /* \"#utility.yul\":10546:10550   */\n      dup1\n        /* \"#utility.yul\":10540:10544   */\n      dup4\n        /* \"#utility.yul\":10536:10551   */\n      and\n        /* \"#utility.yul\":10526:10551   */\n      swap2\n      pop\n        /* \"#utility.yul\":10439:10557   */\n      pop\n        /* \"#utility.yul\":10388:10557   */\n      swap3\n      swap2\n      pop\n      pop\n      jump\t// out\n        /* \"#utility.yul\":10562:10857   */\n    tag_86:\n        /* \"#utility.yul\":10638:10642   */\n      0x00\n        /* \"#utility.yul\":10784:10813   */\n      tag_210\n        /* \"#utility.yul\":10809:10812   */\n      dup4\n        /* \"#utility.yul\":10803:10807   */\n      dup4\n        /* \"#utility.yul\":10784:10813   */\n      tag_85\n      jump\t// in\n    tag_210:\n        /* \"#utility.yul\":10776:10813   */\n      swap2\n      pop\n        /* \"#utility.yul\":10846:10849   */\n      dup3\n        /* \"#utility.yul\":10843:10844   */\n      0x02\n        /* \"#utility.yul\":10839:10850   */\n      mul\n        /* \"#utility.yul\":10833:10837   */\n      dup3\n        /* \"#utility.yul\":10830:10851   */\n      or\n        /* \"#utility.yul\":10822:10851   */\n      swap1\n      pop\n        /* \"#utility.yul\":10562:10857   */\n      swap3\n      swap2\n      pop\n      pop\n      jump\t// out\n        /* \"#utility.yul\":10862:12257   */\n    tag_35:\n        /* \"#utility.yul\":10979:11016   */\n      tag_212\n        /* \"#utility.yul\":11012:11015   */\n      dup3\n        /* \"#utility.yul\":10979:11016   */\n      tag_66\n      jump\t// in\n    tag_212:\n        /* \"#utility.yul\":11081:11099   */\n      0xffffffffffffffff\n        /* \"#utility.yul\":11073:11079   */\n      dup2\n        /* \"#utility.yul\":11070:11100   */\n      gt\n        /* \"#utility.yul\":11067:11123   */\n      iszero\n      tag_213\n      jumpi\n        /* \"#utility.yul\":11103:11121   */\n      tag_214\n      tag_55\n      jump\t// in\n    tag_214:\n        /* \"#utility.yul\":11067:11123   */\n    tag_213:\n        /* \"#utility.yul\":11147:11185   */\n      tag_215\n        /* \"#utility.yul\":11179:11183   */\n      dup3\n        /* \"#utility.yul\":11173:11184   */\n      sload\n        /* \"#utility.yul\":11147:11185   */\n      tag_37\n      jump\t// in\n    tag_215:\n        /* \"#utility.yul\":11232:11299   */\n      tag_216\n        /* \"#utility.yul\":11292:11298   */\n      dup3\n        /* \"#utility.yul\":11284:11290   */\n      dup3\n        /* \"#utility.yul\":11278:11282   */\n      dup6\n        /* \"#utility.yul\":11232:11299   */\n      tag_83\n      jump\t// in\n    tag_216:\n        /* \"#utility.yul\":11326:11327   */\n      0x00\n        /* \"#utility.yul\":11350:11354   */\n      0x20\n        /* \"#utility.yul\":11337:11354   */\n      swap1\n      pop\n        /* \"#utility.yul\":11382:11384   */\n      0x1f\n        /* \"#utility.yul\":11374:11380   */\n      dup4\n        /* \"#utility.yul\":11371:11385   */\n      gt\n        /* \"#utility.yul\":11399:11400   */\n      0x01\n        /* \"#utility.yul\":11394:12012   */\n      dup2\n      eq\n      tag_218\n      jumpi\n        /* \"#utility.yul\":12056:12057   */\n      0x00\n        /* \"#utility.yul\":12073:12079   */\n      dup5\n        /* \"#utility.yul\":12070:12147   */\n      iszero\n      tag_219\n      jumpi\n        /* \"#utility.yul\":12122:12131   */\n      dup3\n        /* \"#utility.yul\":12117:12120   */\n      dup8\n        /* \"#utility.yul\":12113:12132   */\n      add\n        /* \"#utility.yul\":12107:12133   */\n      mload\n        /* \"#utility.yul\":12098:12133   */\n      swap1\n      pop\n        /* \"#utility.yul\":12070:12147   */\n    tag_219:\n        /* \"#utility.yul\":12173:12240   */\n      tag_220\n        /* \"#utility.yul\":12233:12239   */\n      dup6\n        /* \"#utility.yul\":12226:12231   */\n      dup3\n        /* \"#utility.yul\":12173:12240   */\n      tag_86\n      jump\t// in\n    tag_220:\n        /* \"#utility.yul\":12167:12171   */\n      dup7\n        /* \"#utility.yul\":12160:12241   */\n      sstore\n        /* \"#utility.yul\":12029:12251   */\n      pop\n        /* \"#utility.yul\":11364:12251   */\n      jump(tag_217)\n        /* \"#utility.yul\":11394:12012   */\n    tag_218:\n        /* \"#utility.yul\":11446:11450   */\n      0x1f\n        /* \"#utility.yul\":11442:11451   */\n      not\n        /* \"#utility.yul\":11434:11440   */\n      dup5\n        /* \"#utility.yul\":11430:11452   */\n      and\n        /* \"#utility.yul\":11480:11517   */\n      tag_221\n        /* \"#utility.yul\":11512:11516   */\n      dup7\n        /* \"#utility.yul\":11480:11517   */\n      tag_72\n      jump\t// in\n    tag_221:\n        /* \"#utility.yul\":11539:11540   */\n      0x00\n        /* \"#utility.yul\":11553:11761   */\n    tag_222:\n        /* \"#utility.yul\":11567:11574   */\n      dup3\n        /* \"#utility.yul\":11564:11565   */\n      dup2\n        /* \"#utility.yul\":11561:11575   */\n      lt\n        /* \"#utility.yul\":11553:11761   */\n      iszero\n      tag_224\n      jumpi\n        /* \"#utility.yul\":11646:11655   */\n      dup5\n        /* \"#utility.yul\":11641:11644   */\n      dup10\n        /* \"#utility.yul\":11637:11656   */\n      add\n        /* \"#utility.yul\":11631:11657   */\n      mload\n        /* \"#utility.yul\":11623:11629   */\n      dup3\n        /* \"#utility.yul\":11616:11658   */\n      sstore\n        /* \"#utility.yul\":11697:11698   */\n      0x01\n        /* \"#utility.yul\":11689:11695   */\n      dup3\n        /* \"#utility.yul\":11685:11699   */\n      add\n        /* \"#utility.yul\":11675:11699   */\n      swap2\n      pop\n        /* \"#utility.yul\":11744:11746   */\n      0x20\n        /* \"#utility.yul\":11733:11742   */\n      dup6\n        /* \"#utility.yul\":11729:11747   */\n      add\n        /* \"#utility.yul\":11716:11747   */\n      swap5\n      pop\n        /* \"#utility.yul\":11590:11594   */\n      0x20\n        /* \"#utility.yul\":11587:11588   */\n      dup2\n        /* \"#utility.yul\":11583:11595   */\n      add\n        /* \"#utility.yul\":11578:11595   */\n      swap1\n      pop\n        /* \"#utility.yul\":11553:11761   */\n      jump(tag_222)\n    tag_224:\n        /* \"#utility.yul\":11789:11795   */\n      dup7\n        /* \"#utility.yul\":11780:11787   */\n      dup4\n        /* \"#utility.yul\":11777:11796   */\n      lt\n        /* \"#utility.yul\":11774:11953   */\n      iszero\n      tag_225\n      jumpi\n        /* \"#utility.yul\":11847:11856   */\n      dup5\n        /* \"#utility.yul\":11842:11845   */\n      dup10\n        /* \"#utility.yul\":11838:11857   */\n      add\n        /* \"#utility.yul\":11832:11858   */\n      mload\n        /* \"#utility.yul\":11890:11938   */\n      tag_226\n        /* \"#utility.yul\":11932:11936   */\n      0x1f\n        /* \"#utility.yul\":11924:11930   */\n      dup10\n        /* \"#utility.yul\":11920:11937   */\n      and\n        /* \"#utility.yul\":11909:11918   */\n      dup3\n        /* \"#utility.yul\":11890:11938   */\n      tag_85\n      jump\t// in\n    tag_226:\n        /* \"#utility.yul\":11882:11888   */\n      dup4\n        /* \"#utility.yul\":11875:11939   */\n      sstore\n        /* \"#utility.yul\":11797:11953   */\n      pop\n        /* \"#utility.yul\":11774:11953   */\n    tag_225:\n        /* \"#utility.yul\":11999:12000   */\n      0x01\n        /* \"#utility.yul\":11995:11996   */\n      0x02\n        /* \"#utility.yul\":11987:11993   */\n      dup9\n        /* \"#utility.yul\":11983:11997   */\n      mul\n        /* \"#utility.yul\":11979:12001   */\n      add\n        /* \"#utility.yul\":11973:11977   */\n      dup9\n        /* \"#utility.yul\":11966:12002   */\n      sstore\n        /* \"#utility.yul\":11401:12012   */\n      pop\n      pop\n      pop\n        /* \"#utility.yul\":11364:12251   */\n    tag_217:\n      pop\n        /* \"#utility.yul\":10954:12257   */\n      pop\n      pop\n      pop\n        /* \"#utility.yul\":10862:12257   */\n      pop\n      pop\n      jump\t// out\n\n    auxdata: 0xa26469706673582212200712aa8b7edc2aeb5c00c86f57dad7b3f17d6a7bb5d50d201909d3621e032b6c64736f6c63430008140033\n}\n",
				"bytecode": {
					"linkReferences": {},
					"object": "608060405234801561000f575f80fd5b50610a1f8061001d5f395ff3fe608060405234801561000f575f80fd5b5060043610610055575f3560e01c8063125b0b34146100595780637acc0b2014610075578063b9db15b4146100a8578063e0f6ef87146100da578063fd231411146100f8575b5f80fd5b610073600480360381019061006e91906104af565b610114565b005b61008f600480360381019061008a919061051b565b61019a565b60405161009f94939291906105cf565b60405180910390f35b6100c260048036038101906100bd919061051b565b61024b565b6040516100d193929190610619565b60405180910390f35b6100e2610308565b6040516100ef9190610655565b60405180910390f35b610112600480360381019061010d919061066e565b61030e565b005b60015f815480929190610126906106d9565b919050555060405180608001604052806001548152602001848152602001838152602001828152505f8060015481526020019081526020015f205f820151815f0155602082015181600101908161017d919061091a565b506040820151816002015560608201518160030155905050505050565b5f602052805f5260405f205f91509050805f0154908060010180546101be9061074d565b80601f01602080910402602001604051908101604052809291908181526020018280546101ea9061074d565b80156102355780601f1061020c57610100808354040283529160200191610235565b820191905f5260205f20905b81548152906001019060200180831161021857829003601f168201915b5050505050908060020154908060030154905084565b60605f805f805f8681526020019081526020015f209050806001018160020154826003015482805461027c9061074d565b80601f01602080910402602001604051908101604052809291908181526020018280546102a89061074d565b80156102f35780601f106102ca576101008083540402835291602001916102f3565b820191905f5260205f20905b8154815290600101906020018083116102d657829003601f168201915b50505050509250935093509350509193909250565b60015481565b5f805f8481526020019081526020015f209050818160030181905550505050565b5f604051905090565b5f80fd5b5f80fd5b5f80fd5b5f80fd5b5f601f19601f8301169050919050565b7f4e487b71000000000000000000000000000000000000000000000000000000005f52604160045260245ffd5b61038e82610348565b810181811067ffffffffffffffff821117156103ad576103ac610358565b5b80604052505050565b5f6103bf61032f565b90506103cb8282610385565b919050565b5f67ffffffffffffffff8211156103ea576103e9610358565b5b6103f382610348565b9050602081019050919050565b828183375f83830152505050565b5f61042061041b846103d0565b6103b6565b90508281526020810184848401111561043c5761043b610344565b5b610447848285610400565b509392505050565b5f82601f83011261046357610462610340565b5b813561047384826020860161040e565b91505092915050565b5f819050919050565b61048e8161047c565b8114610498575f80fd5b50565b5f813590506104a981610485565b92915050565b5f805f606084860312156104c6576104c5610338565b5b5f84013567ffffffffffffffff8111156104e3576104e261033c565b5b6104ef8682870161044f565b93505060206105008682870161049b565b92505060406105118682870161049b565b9150509250925092565b5f602082840312156105305761052f610338565b5b5f61053d8482850161049b565b91505092915050565b61054f8161047c565b82525050565b5f81519050919050565b5f82825260208201905092915050565b5f5b8381101561058c578082015181840152602081019050610571565b5f8484015250505050565b5f6105a182610555565b6105ab818561055f565b93506105bb81856020860161056f565b6105c481610348565b840191505092915050565b5f6080820190506105e25f830187610546565b81810360208301526105f48186610597565b90506106036040830185610546565b6106106060830184610546565b95945050505050565b5f6060820190508181035f8301526106318186610597565b90506106406020830185610546565b61064d6040830184610546565b949350505050565b5f6020820190506106685f830184610546565b92915050565b5f806040838503121561068457610683610338565b5b5f6106918582860161049b565b92505060206106a28582860161049b565b9150509250929050565b7f4e487b71000000000000000000000000000000000000000000000000000000005f52601160045260245ffd5b5f6106e38261047c565b91507fffffffffffffffffffffffffffffffffffffffffffffffffffffffffffffffff8203610715576107146106ac565b5b600182019050919050565b7f4e487b71000000000000000000000000000000000000000000000000000000005f52602260045260245ffd5b5f600282049050600182168061076457607f821691505b60208210810361077757610776610720565b5b50919050565b5f819050815f5260205f209050919050565b5f6020601f8301049050919050565b5f82821b905092915050565b5f600883026107d97fffffffffffffffffffffffffffffffffffffffffffffffffffffffffffffffff8261079e565b6107e3868361079e565b95508019841693508086168417925050509392505050565b5f819050919050565b5f61081e6108196108148461047c565b6107fb565b61047c565b9050919050565b5f819050919050565b61083783610804565b61084b61084382610825565b8484546107aa565b825550505050565b5f90565b61085f610853565b61086a81848461082e565b505050565b5b8181101561088d576108825f82610857565b600181019050610870565b5050565b601f8211156108d2576108a38161077d565b6108ac8461078f565b810160208510156108bb578190505b6108cf6108c78561078f565b83018261086f565b50505b505050565b5f82821c905092915050565b5f6108f25f19846008026108d7565b1980831691505092915050565b5f61090a83836108e3565b9150826002028217905092915050565b61092382610555565b67ffffffffffffffff81111561093c5761093b610358565b5b610946825461074d565b610951828285610891565b5f60209050601f831160018114610982575f8415610970578287015190505b61097a85826108ff565b8655506109e1565b601f1984166109908661077d565b5f5b828110156109b757848901518255600182019150602085019450602081019050610992565b868310156109d457848901516109d0601f8916826108e3565b8355505b6001600288020188555050505b50505050505056fea26469706673582212200712aa8b7edc2aeb5c00c86f57dad7b3f17d6a7bb5d50d201909d3621e032b6c64736f6c63430008140033",
					"opcodes": "PUSH1 0x80 PUSH1 0x40 MSTORE CALLVALUE DUP1 ISZERO PUSH2 0xF JUMPI PUSH0 DUP1 REVERT JUMPDEST POP PUSH2 0xA1F DUP1 PUSH2 0x1D PUSH0 CODECOPY PUSH0 RETURN INVALID PUSH1 0x80 PUSH1 0x40 MSTORE CALLVALUE DUP1 ISZERO PUSH2 0xF JUMPI PUSH0 DUP1 REVERT JUMPDEST POP PUSH1 0x4 CALLDATASIZE LT PUSH2 0x55 JUMPI PUSH0 CALLDATALOAD PUSH1 0xE0 SHR DUP1 PUSH4 0x125B0B34 EQ PUSH2 0x59 JUMPI DUP1 PUSH4 0x7ACC0B20 EQ PUSH2 0x75 JUMPI DUP1 PUSH4 0xB9DB15B4 EQ PUSH2 0xA8 JUMPI DUP1 PUSH4 0xE0F6EF87 EQ PUSH2 0xDA JUMPI DUP1 PUSH4 0xFD231411 EQ PUSH2 0xF8 JUMPI JUMPDEST PUSH0 DUP1 REVERT JUMPDEST PUSH2 0x73 PUSH1 0x4 DUP1 CALLDATASIZE SUB DUP2 ADD SWAP1 PUSH2 0x6E SWAP2 SWAP1 PUSH2 0x4AF JUMP JUMPDEST PUSH2 0x114 JUMP JUMPDEST STOP JUMPDEST PUSH2 0x8F PUSH1 0x4 DUP1 CALLDATASIZE SUB DUP2 ADD SWAP1 PUSH2 0x8A SWAP2 SWAP1 PUSH2 0x51B JUMP JUMPDEST PUSH2 0x19A JUMP JUMPDEST PUSH1 0x40 MLOAD PUSH2 0x9F SWAP5 SWAP4 SWAP3 SWAP2 SWAP1 PUSH2 0x5CF JUMP JUMPDEST PUSH1 0x40 MLOAD DUP1 SWAP2 SUB SWAP1 RETURN JUMPDEST PUSH2 0xC2 PUSH1 0x4 DUP1 CALLDATASIZE SUB DUP2 ADD SWAP1 PUSH2 0xBD SWAP2 SWAP1 PUSH2 0x51B JUMP JUMPDEST PUSH2 0x24B JUMP JUMPDEST PUSH1 0x40 MLOAD PUSH2 0xD1 SWAP4 SWAP3 SWAP2 SWAP1 PUSH2 0x619 JUMP JUMPDEST PUSH1 0x40 MLOAD DUP1 SWAP2 SUB SWAP1 RETURN JUMPDEST PUSH2 0xE2 PUSH2 0x308 JUMP JUMPDEST PUSH1 0x40 MLOAD PUSH2 0xEF SWAP2 SWAP1 PUSH2 0x655 JUMP JUMPDEST PUSH1 0x40 MLOAD DUP1 SWAP2 SUB SWAP1 RETURN JUMPDEST PUSH2 0x112 PUSH1 0x4 DUP1 CALLDATASIZE SUB DUP2 ADD SWAP1 PUSH2 0x10D SWAP2 SWAP1 PUSH2 0x66E JUMP JUMPDEST PUSH2 0x30E JUMP JUMPDEST STOP JUMPDEST PUSH1 0x1 PUSH0 DUP2 SLOAD DUP1 SWAP3 SWAP2 SWAP1 PUSH2 0x126 SWAP1 PUSH2 0x6D9 JUMP JUMPDEST SWAP2 SWAP1 POP SSTORE POP PUSH1 0x40 MLOAD DUP1 PUSH1 0x80 ADD PUSH1 0x40 MSTORE DUP1 PUSH1 0x1 SLOAD DUP2 MSTORE PUSH1 0x20 ADD DUP5 DUP2 MSTORE PUSH1 0x20 ADD DUP4 DUP2 MSTORE PUSH1 0x20 ADD DUP3 DUP2 MSTORE POP PUSH0 DUP1 PUSH1 0x1 SLOAD DUP2 MSTORE PUSH1 0x20 ADD SWAP1 DUP2 MSTORE PUSH1 0x20 ADD PUSH0 KECCAK256 PUSH0 DUP3 ADD MLOAD DUP2 PUSH0 ADD SSTORE PUSH1 0x20 DUP3 ADD MLOAD DUP2 PUSH1 0x1 ADD SWAP1 DUP2 PUSH2 0x17D SWAP2 SWAP1 PUSH2 0x91A JUMP JUMPDEST POP PUSH1 0x40 DUP3 ADD MLOAD DUP2 PUSH1 0x2 ADD SSTORE PUSH1 0x60 DUP3 ADD MLOAD DUP2 PUSH1 0x3 ADD SSTORE SWAP1 POP POP POP POP POP JUMP JUMPDEST PUSH0 PUSH1 0x20 MSTORE DUP1 PUSH0 MSTORE PUSH1 0x40 PUSH0 KECCAK256 PUSH0 SWAP2 POP SWAP1 POP DUP1 PUSH0 ADD SLOAD SWAP1 DUP1 PUSH1 0x1 ADD DUP1 SLOAD PUSH2 0x1BE SWAP1 PUSH2 0x74D JUMP JUMPDEST DUP1 PUSH1 0x1F ADD PUSH1 0x20 DUP1 SWAP2 DIV MUL PUSH1 0x20 ADD PUSH1 0x40 MLOAD SWAP1 DUP2 ADD PUSH1 0x40 MSTORE DUP1 SWAP3 SWAP2 SWAP1 DUP2 DUP2 MSTORE PUSH1 0x20 ADD DUP3 DUP1 SLOAD PUSH2 0x1EA SWAP1 PUSH2 0x74D JUMP JUMPDEST DUP1 ISZERO PUSH2 0x235 JUMPI DUP1 PUSH1 0x1F LT PUSH2 0x20C JUMPI PUSH2 0x100 DUP1 DUP4 SLOAD DIV MUL DUP4 MSTORE SWAP2 PUSH1 0x20 ADD SWAP2 PUSH2 0x235 JUMP JUMPDEST DUP3 ADD SWAP2 SWAP1 PUSH0 MSTORE PUSH1 0x20 PUSH0 KECCAK256 SWAP1 JUMPDEST DUP2 SLOAD DUP2 MSTORE SWAP1 PUSH1 0x1 ADD SWAP1 PUSH1 0x20 ADD DUP1 DUP4 GT PUSH2 0x218 JUMPI DUP3 SWAP1 SUB PUSH1 0x1F AND DUP3 ADD SWAP2 JUMPDEST POP POP POP POP POP SWAP1 DUP1 PUSH1 0x2 ADD SLOAD SWAP1 DUP1 PUSH1 0x3 ADD SLOAD SWAP1 POP DUP5 JUMP JUMPDEST PUSH1 0x60 PUSH0 DUP1 PUSH0 DUP1 PUSH0 DUP7 DUP2 MSTORE PUSH1 0x20 ADD SWAP1 DUP2 MSTORE PUSH1 0x20 ADD PUSH0 KECCAK256 SWAP1 POP DUP1 PUSH1 0x1 ADD DUP2 PUSH1 0x2 ADD SLOAD DUP3 PUSH1 0x3 ADD SLOAD DUP3 DUP1 SLOAD PUSH2 0x27C SWAP1 PUSH2 0x74D JUMP JUMPDEST DUP1 PUSH1 0x1F ADD PUSH1 0x20 DUP1 SWAP2 DIV MUL PUSH1 0x20 ADD PUSH1 0x40 MLOAD SWAP1 DUP2 ADD PUSH1 0x40 MSTORE DUP1 SWAP3 SWAP2 SWAP1 DUP2 DUP2 MSTORE PUSH1 0x20 ADD DUP3 DUP1 SLOAD PUSH2 0x2A8 SWAP1 PUSH2 0x74D JUMP JUMPDEST DUP1 ISZERO PUSH2 0x2F3 JUMPI DUP1 PUSH1 0x1F LT PUSH2 0x2CA JUMPI PUSH2 0x100 DUP1 DUP4 SLOAD DIV MUL DUP4 MSTORE SWAP2 PUSH1 0x20 ADD SWAP2 PUSH2 0x2F3 JUMP JUMPDEST DUP3 ADD SWAP2 SWAP1 PUSH0 MSTORE PUSH1 0x20 PUSH0 KECCAK256 SWAP1 JUMPDEST DUP2 SLOAD DUP2 MSTORE SWAP1 PUSH1 0x1 ADD SWAP1 PUSH1 0x20 ADD DUP1 DUP4 GT PUSH2 0x2D6 JUMPI DUP3 SWAP1 SUB PUSH1 0x1F AND DUP3 ADD SWAP2 JUMPDEST POP POP POP POP POP SWAP3 POP SWAP4 POP SWAP4 POP SWAP4 POP POP SWAP2 SWAP4 SWAP1 SWAP3 POP JUMP JUMPDEST PUSH1 0x1 SLOAD DUP2 JUMP JUMPDEST PUSH0 DUP1 PUSH0 DUP5 DUP2 MSTORE PUSH1 0x20 ADD SWAP1 DUP2 MSTORE PUSH1 0x20 ADD PUSH0 KECCAK256 SWAP1 POP DUP2 DUP2 PUSH1 0x3 ADD DUP2 SWAP1 SSTORE POP POP POP POP JUMP JUMPDEST PUSH0 PUSH1 0x40 MLOAD SWAP1 POP SWAP1 JUMP JUMPDEST PUSH0 DUP1 REVERT JUMPDEST PUSH0 DUP1 REVERT JUMPDEST PUSH0 DUP1 REVERT JUMPDEST PUSH0 DUP1 REVERT JUMPDEST PUSH0 PUSH1 0x1F NOT PUSH1 0x1F DUP4 ADD AND SWAP1 POP SWAP2 SWAP1 POP JUMP JUMPDEST PUSH32 0x4E487B7100000000000000000000000000000000000000000000000000000000 PUSH0 MSTORE PUSH1 0x41 PUSH1 0x4 MSTORE PUSH1 0x24 PUSH0 REVERT JUMPDEST PUSH2 0x38E DUP3 PUSH2 0x348 JUMP JUMPDEST DUP2 ADD DUP2 DUP2 LT PUSH8 0xFFFFFFFFFFFFFFFF DUP3 GT OR ISZERO PUSH2 0x3AD JUMPI PUSH2 0x3AC PUSH2 0x358 JUMP JUMPDEST JUMPDEST DUP1 PUSH1 0x40 MSTORE POP POP POP JUMP JUMPDEST PUSH0 PUSH2 0x3BF PUSH2 0x32F JUMP JUMPDEST SWAP1 POP PUSH2 0x3CB DUP3 DUP3 PUSH2 0x385 JUMP JUMPDEST SWAP2 SWAP1 POP JUMP JUMPDEST PUSH0 PUSH8 0xFFFFFFFFFFFFFFFF DUP3 GT ISZERO PUSH2 0x3EA JUMPI PUSH2 0x3E9 PUSH2 0x358 JUMP JUMPDEST JUMPDEST PUSH2 0x3F3 DUP3 PUSH2 0x348 JUMP JUMPDEST SWAP1 POP PUSH1 0x20 DUP2 ADD SWAP1 POP SWAP2 SWAP1 POP JUMP JUMPDEST DUP3 DUP2 DUP4 CALLDATACOPY PUSH0 DUP4 DUP4 ADD MSTORE POP POP POP JUMP JUMPDEST PUSH0 PUSH2 0x420 PUSH2 0x41B DUP5 PUSH2 0x3D0 JUMP JUMPDEST PUSH2 0x3B6 JUMP JUMPDEST SWAP1 POP DUP3 DUP2 MSTORE PUSH1 0x20 DUP2 ADD DUP5 DUP5 DUP5 ADD GT ISZERO PUSH2 0x43C JUMPI PUSH2 0x43B PUSH2 0x344 JUMP JUMPDEST JUMPDEST PUSH2 0x447 DUP5 DUP3 DUP6 PUSH2 0x400 JUMP JUMPDEST POP SWAP4 SWAP3 POP POP POP JUMP JUMPDEST PUSH0 DUP3 PUSH1 0x1F DUP4 ADD SLT PUSH2 0x463 JUMPI PUSH2 0x462 PUSH2 0x340 JUMP JUMPDEST JUMPDEST DUP2 CALLDATALOAD PUSH2 0x473 DUP5 DUP3 PUSH1 0x20 DUP7 ADD PUSH2 0x40E JUMP JUMPDEST SWAP2 POP POP SWAP3 SWAP2 POP POP JUMP JUMPDEST PUSH0 DUP2 SWAP1 POP SWAP2 SWAP1 POP JUMP JUMPDEST PUSH2 0x48E DUP2 PUSH2 0x47C JUMP JUMPDEST DUP2 EQ PUSH2 0x498 JUMPI PUSH0 DUP1 REVERT JUMPDEST POP JUMP JUMPDEST PUSH0 DUP2 CALLDATALOAD SWAP1 POP PUSH2 0x4A9 DUP2 PUSH2 0x485 JUMP JUMPDEST SWAP3 SWAP2 POP POP JUMP JUMPDEST PUSH0 DUP1 PUSH0 PUSH1 0x60 DUP5 DUP7 SUB SLT ISZERO PUSH2 0x4C6 JUMPI PUSH2 0x4C5 PUSH2 0x338 JUMP JUMPDEST JUMPDEST PUSH0 DUP5 ADD CALLDATALOAD PUSH8 0xFFFFFFFFFFFFFFFF DUP2 GT ISZERO PUSH2 0x4E3 JUMPI PUSH2 0x4E2 PUSH2 0x33C JUMP JUMPDEST JUMPDEST PUSH2 0x4EF DUP7 DUP3 DUP8 ADD PUSH2 0x44F JUMP JUMPDEST SWAP4 POP POP PUSH1 0x20 PUSH2 0x500 DUP7 DUP3 DUP8 ADD PUSH2 0x49B JUMP JUMPDEST SWAP3 POP POP PUSH1 0x40 PUSH2 0x511 DUP7 DUP3 DUP8 ADD PUSH2 0x49B JUMP JUMPDEST SWAP2 POP POP SWAP3 POP SWAP3 POP SWAP3 JUMP JUMPDEST PUSH0 PUSH1 0x20 DUP3 DUP5 SUB SLT ISZERO PUSH2 0x530 JUMPI PUSH2 0x52F PUSH2 0x338 JUMP JUMPDEST JUMPDEST PUSH0 PUSH2 0x53D DUP5 DUP3 DUP6 ADD PUSH2 0x49B JUMP JUMPDEST SWAP2 POP POP SWAP3 SWAP2 POP POP JUMP JUMPDEST PUSH2 0x54F DUP2 PUSH2 0x47C JUMP JUMPDEST DUP3 MSTORE POP POP JUMP JUMPDEST PUSH0 DUP2 MLOAD SWAP1 POP SWAP2 SWAP1 POP JUMP JUMPDEST PUSH0 DUP3 DUP3 MSTORE PUSH1 0x20 DUP3 ADD SWAP1 POP SWAP3 SWAP2 POP POP JUMP JUMPDEST PUSH0 JUMPDEST DUP4 DUP2 LT ISZERO PUSH2 0x58C JUMPI DUP1 DUP3 ADD MLOAD DUP2 DUP5 ADD MSTORE PUSH1 0x20 DUP2 ADD SWAP1 POP PUSH2 0x571 JUMP JUMPDEST PUSH0 DUP5 DUP5 ADD MSTORE POP POP POP POP JUMP JUMPDEST PUSH0 PUSH2 0x5A1 DUP3 PUSH2 0x555 JUMP JUMPDEST PUSH2 0x5AB DUP2 DUP6 PUSH2 0x55F JUMP JUMPDEST SWAP4 POP PUSH2 0x5BB DUP2 DUP6 PUSH1 0x20 DUP7 ADD PUSH2 0x56F JUMP JUMPDEST PUSH2 0x5C4 DUP2 PUSH2 0x348 JUMP JUMPDEST DUP5 ADD SWAP2 POP POP SWAP3 SWAP2 POP POP JUMP JUMPDEST PUSH0 PUSH1 0x80 DUP3 ADD SWAP1 POP PUSH2 0x5E2 PUSH0 DUP4 ADD DUP8 PUSH2 0x546 JUMP JUMPDEST DUP2 DUP2 SUB PUSH1 0x20 DUP4 ADD MSTORE PUSH2 0x5F4 DUP2 DUP7 PUSH2 0x597 JUMP JUMPDEST SWAP1 POP PUSH2 0x603 PUSH1 0x40 DUP4 ADD DUP6 PUSH2 0x546 JUMP JUMPDEST PUSH2 0x610 PUSH1 0x60 DUP4 ADD DUP5 PUSH2 0x546 JUMP JUMPDEST SWAP6 SWAP5 POP POP POP POP POP JUMP JUMPDEST PUSH0 PUSH1 0x60 DUP3 ADD SWAP1 POP DUP2 DUP2 SUB PUSH0 DUP4 ADD MSTORE PUSH2 0x631 DUP2 DUP7 PUSH2 0x597 JUMP JUMPDEST SWAP1 POP PUSH2 0x640 PUSH1 0x20 DUP4 ADD DUP6 PUSH2 0x546 JUMP JUMPDEST PUSH2 0x64D PUSH1 0x40 DUP4 ADD DUP5 PUSH2 0x546 JUMP JUMPDEST SWAP5 SWAP4 POP POP POP POP JUMP JUMPDEST PUSH0 PUSH1 0x20 DUP3 ADD SWAP1 POP PUSH2 0x668 PUSH0 DUP4 ADD DUP5 PUSH2 0x546 JUMP JUMPDEST SWAP3 SWAP2 POP POP JUMP JUMPDEST PUSH0 DUP1 PUSH1 0x40 DUP4 DUP6 SUB SLT ISZERO PUSH2 0x684 JUMPI PUSH2 0x683 PUSH2 0x338 JUMP JUMPDEST JUMPDEST PUSH0 PUSH2 0x691 DUP6 DUP3 DUP7 ADD PUSH2 0x49B JUMP JUMPDEST SWAP3 POP POP PUSH1 0x20 PUSH2 0x6A2 DUP6 DUP3 DUP7 ADD PUSH2 0x49B JUMP JUMPDEST SWAP2 POP POP SWAP3 POP SWAP3 SWAP1 POP JUMP JUMPDEST PUSH32 0x4E487B7100000000000000000000000000000000000000000000000000000000 PUSH0 MSTORE PUSH1 0x11 PUSH1 0x4 MSTORE PUSH1 0x24 PUSH0 REVERT JUMPDEST PUSH0 PUSH2 0x6E3 DUP3 PUSH2 0x47C JUMP JUMPDEST SWAP2 POP PUSH32 0xFFFFFFFFFFFFFFFFFFFFFFFFFFFFFFFFFFFFFFFFFFFFFFFFFFFFFFFFFFFFFFFF DUP3 SUB PUSH2 0x715 JUMPI PUSH2 0x714 PUSH2 0x6AC JUMP JUMPDEST JUMPDEST PUSH1 0x1 DUP3 ADD SWAP1 POP SWAP2 SWAP1 POP JUMP JUMPDEST PUSH32 0x4E487B7100000000000000000000000000000000000000000000000000000000 PUSH0 MSTORE PUSH1 0x22 PUSH1 0x4 MSTORE PUSH1 0x24 PUSH0 REVERT JUMPDEST PUSH0 PUSH1 0x2 DUP3 DIV SWAP1 POP PUSH1 0x1 DUP3 AND DUP1 PUSH2 0x764 JUMPI PUSH1 0x7F DUP3 AND SWAP2 POP JUMPDEST PUSH1 0x20 DUP3 LT DUP2 SUB PUSH2 0x777 JUMPI PUSH2 0x776 PUSH2 0x720 JUMP JUMPDEST JUMPDEST POP SWAP2 SWAP1 POP JUMP JUMPDEST PUSH0 DUP2 SWAP1 POP DUP2 PUSH0 MSTORE PUSH1 0x20 PUSH0 KECCAK256 SWAP1 POP SWAP2 SWAP1 POP JUMP JUMPDEST PUSH0 PUSH1 0x20 PUSH1 0x1F DUP4 ADD DIV SWAP1 POP SWAP2 SWAP1 POP JUMP JUMPDEST PUSH0 DUP3 DUP3 SHL SWAP1 POP SWAP3 SWAP2 POP POP JUMP JUMPDEST PUSH0 PUSH1 0x8 DUP4 MUL PUSH2 0x7D9 PUSH32 0xFFFFFFFFFFFFFFFFFFFFFFFFFFFFFFFFFFFFFFFFFFFFFFFFFFFFFFFFFFFFFFFF DUP3 PUSH2 0x79E JUMP JUMPDEST PUSH2 0x7E3 DUP7 DUP4 PUSH2 0x79E JUMP JUMPDEST SWAP6 POP DUP1 NOT DUP5 AND SWAP4 POP DUP1 DUP7 AND DUP5 OR SWAP3 POP POP POP SWAP4 SWAP3 POP POP POP JUMP JUMPDEST PUSH0 DUP2 SWAP1 POP SWAP2 SWAP1 POP JUMP JUMPDEST PUSH0 PUSH2 0x81E PUSH2 0x819 PUSH2 0x814 DUP5 PUSH2 0x47C JUMP JUMPDEST PUSH2 0x7FB JUMP JUMPDEST PUSH2 0x47C JUMP JUMPDEST SWAP1 POP SWAP2 SWAP1 POP JUMP JUMPDEST PUSH0 DUP2 SWAP1 POP SWAP2 SWAP1 POP JUMP JUMPDEST PUSH2 0x837 DUP4 PUSH2 0x804 JUMP JUMPDEST PUSH2 0x84B PUSH2 0x843 DUP3 PUSH2 0x825 JUMP JUMPDEST DUP5 DUP5 SLOAD PUSH2 0x7AA JUMP JUMPDEST DUP3 SSTORE POP POP POP POP JUMP JUMPDEST PUSH0 SWAP1 JUMP JUMPDEST PUSH2 0x85F PUSH2 0x853 JUMP JUMPDEST PUSH2 0x86A DUP2 DUP5 DUP5 PUSH2 0x82E JUMP JUMPDEST POP POP POP JUMP JUMPDEST JUMPDEST DUP2 DUP2 LT ISZERO PUSH2 0x88D JUMPI PUSH2 0x882 PUSH0 DUP3 PUSH2 0x857 JUMP JUMPDEST PUSH1 0x1 DUP2 ADD SWAP1 POP PUSH2 0x870 JUMP JUMPDEST POP POP JUMP JUMPDEST PUSH1 0x1F DUP3 GT ISZERO PUSH2 0x8D2 JUMPI PUSH2 0x8A3 DUP2 PUSH2 0x77D JUMP JUMPDEST PUSH2 0x8AC DUP5 PUSH2 0x78F JUMP JUMPDEST DUP2 ADD PUSH1 0x20 DUP6 LT ISZERO PUSH2 0x8BB JUMPI DUP2 SWAP1 POP JUMPDEST PUSH2 0x8CF PUSH2 0x8C7 DUP6 PUSH2 0x78F JUMP JUMPDEST DUP4 ADD DUP3 PUSH2 0x86F JUMP JUMPDEST POP POP JUMPDEST POP POP POP JUMP JUMPDEST PUSH0 DUP3 DUP3 SHR SWAP1 POP SWAP3 SWAP2 POP POP JUMP JUMPDEST PUSH0 PUSH2 0x8F2 PUSH0 NOT DUP5 PUSH1 0x8 MUL PUSH2 0x8D7 JUMP JUMPDEST NOT DUP1 DUP4 AND SWAP2 POP POP SWAP3 SWAP2 POP POP JUMP JUMPDEST PUSH0 PUSH2 0x90A DUP4 DUP4 PUSH2 0x8E3 JUMP JUMPDEST SWAP2 POP DUP3 PUSH1 0x2 MUL DUP3 OR SWAP1 POP SWAP3 SWAP2 POP POP JUMP JUMPDEST PUSH2 0x923 DUP3 PUSH2 0x555 JUMP JUMPDEST PUSH8 0xFFFFFFFFFFFFFFFF DUP2 GT ISZERO PUSH2 0x93C JUMPI PUSH2 0x93B PUSH2 0x358 JUMP JUMPDEST JUMPDEST PUSH2 0x946 DUP3 SLOAD PUSH2 0x74D JUMP JUMPDEST PUSH2 0x951 DUP3 DUP3 DUP6 PUSH2 0x891 JUMP JUMPDEST PUSH0 PUSH1 0x20 SWAP1 POP PUSH1 0x1F DUP4 GT PUSH1 0x1 DUP2 EQ PUSH2 0x982 JUMPI PUSH0 DUP5 ISZERO PUSH2 0x970 JUMPI DUP3 DUP8 ADD MLOAD SWAP1 POP JUMPDEST PUSH2 0x97A DUP6 DUP3 PUSH2 0x8FF JUMP JUMPDEST DUP7 SSTORE POP PUSH2 0x9E1 JUMP JUMPDEST PUSH1 0x1F NOT DUP5 AND PUSH2 0x990 DUP7 PUSH2 0x77D JUMP JUMPDEST PUSH0 JUMPDEST DUP3 DUP2 LT ISZERO PUSH2 0x9B7 JUMPI DUP5 DUP10 ADD MLOAD DUP3 SSTORE PUSH1 0x1 DUP3 ADD SWAP2 POP PUSH1 0x20 DUP6 ADD SWAP5 POP PUSH1 0x20 DUP2 ADD SWAP1 POP PUSH2 0x992 JUMP JUMPDEST DUP7 DUP4 LT ISZERO PUSH2 0x9D4 JUMPI DUP5 DUP10 ADD MLOAD PUSH2 0x9D0 PUSH1 0x1F DUP10 AND DUP3 PUSH2 0x8E3 JUMP JUMPDEST DUP4 SSTORE POP JUMPDEST PUSH1 0x1 PUSH1 0x2 DUP9 MUL ADD DUP9 SSTORE POP POP POP JUMPDEST POP POP POP POP POP POP JUMP INVALID LOG2 PUSH5 0x6970667358 0x22 SLT KECCAK256 SMOD SLT 0xAA DUP12 PUSH31 0xDC2AEB5C00C86F57DAD7B3F17D6A7BB5D50D201909D3621E032B6C64736F6C PUSH4 0x43000814 STOP CALLER "
				},
				"gasEstimates": {
					"creation": {
						"codeDepositCost": "518200",
						"executionCost": "547",
						"totalCost": "518747"
					},
					"external": {
						"addProduct(string,uint256,uint256)": "infinite",
						"getProduct(uint256)": "infinite",
						"productCount()": "2469",
						"products(uint256)": "infinite",
						"updateProductStock(uint256,uint256)": "infinite"
					}
				},
				"methodIdentifiers": {
					"addProduct(string,uint256,uint256)": "125b0b34",
					"getProduct(uint256)": "b9db15b4",
					"productCount()": "e0f6ef87",
					"products(uint256)": "7acc0b20",
					"updateProductStock(uint256,uint256)": "fd231411"
				}
			},
			"storageLayout": {
				"storage": [
					{
						"astId": 15,
						"contract": "level0/solidity/StructExample.sol:StructExample",
						"label": "products",
						"offset": 0,
						"slot": "0",
						"type": "t_mapping(t_uint256,t_struct(Product)10_storage)"
					},
					{
						"astId": 17,
						"contract": "level0/solidity/StructExample.sol:StructExample",
						"label": "productCount",
						"offset": 0,
						"slot": "1",
						"type": "t_uint256"
					}
				],
				"types": {
					"t_mapping(t_uint256,t_struct(Product)10_storage)": {
						"encoding": "mapping",
						"key": "t_uint256",
						"label": "mapping(uint256 => struct StructExample.Product)",
						"numberOfBytes": "32",
						"value": "t_struct(Product)10_storage"
					},
					"t_string_storage": {
						"encoding": "bytes",
						"label": "string",
						"numberOfBytes": "32"
					},
					"t_struct(Product)10_storage": {
						"encoding": "inplace",
						"label": "struct StructExample.Product",
						"members": [
							{
								"astId": 3,
								"contract": "level0/solidity/StructExample.sol:StructExample",
								"label": "id",
								"offset": 0,
								"slot": "0",
								"type": "t_uint256"
							},
							{
								"astId": 5,
								"contract": "level0/solidity/StructExample.sol:StructExample",
								"label": "name",
								"offset": 0,
								"slot": "1",
								"type": "t_string_storage"
							},
							{
								"astId": 7,
								"contract": "level0/solidity/StructExample.sol:StructExample",
								"label": "price",
								"offset": 0,
								"slot": "2",
								"type": "t_uint256"
							},
							{
								"astId": 9,
								"contract": "level0/solidity/StructExample.sol:StructExample",
								"label": "stock",
								"offset": 0,
								"slot": "3",
								"type": "t_uint256"
							}
						],
						"numberOfBytes": "128"
					},
					"t_uint256": {
						"encoding": "inplace",
						"label": "uint256",
						"numberOfBytes": "32"
					}
				}
			},
			"userdoc": {
				"kind": "user",
				"methods": {},
				"version": 1
			}
		}
	}
}