{
	"level0/solidity/MappingExample.sol": {
		"MappingUser": {
			"abi": [
				{
					"inputs": [],
					"name": "f",
					"outputs": [
						{
							"internalType": "uint256",
							"name": "",
							"type": "uint256"
						}
					],
					"stateMutability": "nonpayable",
					"type": "function"
				}
			],
			"devdoc": {
				"kind": "dev",
				"methods": {},
				"version": 1
			},
			"evm": {
				"assembly": "    /* \"level0/solidity/MappingExample.sol\":203:388  contract MappingUser {... */\n  mstore(0x40, 0x80)\n  callvalue\n  dup1\n  iszero\n  tag_1\n  jumpi\n  0x00\n  dup1\n  revert\ntag_1:\n  pop\n  dataSize(sub_0)\n  dup1\n  dataOffset(sub_0)\n  0x00\n  codecopy\n  0x00\n  return\nstop\n\nsub_0: assembly {\n        /* \"level0/solidity/MappingExample.sol\":203:388  contract MappingUser {... */\n      mstore(0x40, 0x80)\n      callvalue\n      dup1\n      iszero\n      tag_1\n      jumpi\n      0x00\n      dup1\n      revert\n    tag_1:\n      pop\n      jumpi(tag_2, lt(calldatasize, 0x04))\n      shr(0xe0, calldataload(0x00))\n      dup1\n      0x26121ff0\n      eq\n      tag_3\n      jumpi\n    tag_2:\n      0x00\n      dup1\n      revert\n        /* \"level0/solidity/MappingExample.sol\":230:386  function f() public returns (uint) {... */\n    tag_3:\n      tag_4\n      tag_5\n      jump\t// in\n    tag_4:\n      mload(0x40)\n      tag_6\n      swap2\n      swap1\n      tag_7\n      jump\t// in\n    tag_6:\n      mload(0x40)\n      dup1\n      swap2\n      sub\n      swap1\n      return\n    tag_5:\n        /* \"level0/solidity/MappingExample.sol\":259:263  uint */\n      0x00\n        /* \"level0/solidity/MappingExample.sol\":275:291  MappingExample m */\n      dup1\n        /* \"level0/solidity/MappingExample.sol\":294:314  new MappingExample() */\n      mload(0x40)\n      tag_9\n      swap1\n      tag_10\n      jump\t// in\n    tag_9:\n      mload(0x40)\n      dup1\n      swap2\n      sub\n      swap1\n      0x00\n      create\n      dup1\n      iszero\n      dup1\n      iszero\n      tag_11\n      jumpi\n      returndatasize\n      0x00\n      dup1\n      returndatacopy\n      revert(0x00, returndatasize)\n    tag_11:\n      pop\n        /* \"level0/solidity/MappingExample.sol\":275:314  MappingExample m = new MappingExample() */\n      swap1\n      pop\n        /* \"level0/solidity/MappingExample.sol\":324:325  m */\n      dup1\n        /* \"level0/solidity/MappingExample.sol\":324:332  m.update */\n      0xffffffffffffffffffffffffffffffffffffffff\n      and\n      0x82ab890a\n        /* \"level0/solidity/MappingExample.sol\":333:336  100 */\n      0x64\n        /* \"level0/solidity/MappingExample.sol\":324:337  m.update(100) */\n      mload(0x40)\n      dup3\n      0xffffffff\n      and\n      0xe0\n      shl\n      dup2\n      mstore\n      0x04\n      add\n      tag_12\n      swap2\n      swap1\n      tag_13\n      jump\t// in\n    tag_12:\n      0x00\n      mload(0x40)\n      dup1\n      dup4\n      sub\n      dup2\n      0x00\n      dup8\n      dup1\n      extcodesize\n      iszero\n      dup1\n      iszero\n      tag_14\n      jumpi\n      0x00\n      dup1\n      revert\n    tag_14:\n      pop\n      gas\n      call\n      iszero\n      dup1\n      iszero\n      tag_16\n      jumpi\n      returndatasize\n      0x00\n      dup1\n      returndatacopy\n      revert(0x00, returndatasize)\n    tag_16:\n      pop\n      pop\n      pop\n      pop\n        /* \"level0/solidity/MappingExample.sol\":354:355  m */\n      dup1\n        /* \"level0/solidity/MappingExample.sol\":354:364  m.balances */\n      0xffffffffffffffffffffffffffffffffffffffff\n      and\n      0x27e235e3\n        /* \"level0/solidity/MappingExample.sol\":373:377  this */\n      address\n        /* \"level0/solidity/MappingExample.sol\":354:379  m.balances(address(this)) */\n      mload(0x40)\n      dup3\n      0xffffffff\n      and\n      0xe0\n      shl\n      dup2\n      mstore\n      0x04\n      add\n      tag_17\n      swap2\n      swap1\n      tag_18\n      jump\t// in\n    tag_17:\n      0x20\n      mload(0x40)\n      dup1\n      dup4\n      sub\n      dup2\n      dup7\n      gas\n      staticcall\n      iszero\n      dup1\n      iszero\n      tag_20\n      jumpi\n      returndatasize\n      0x00\n      dup1\n      returndatacopy\n      revert(0x00, returndatasize)\n    tag_20:\n      pop\n      pop\n      pop\n      pop\n      mload(0x40)\n      returndatasize\n      not(0x1f)\n      0x1f\n      dup3\n      add\n      and\n      dup3\n      add\n      dup1\n      0x40\n      mstore\n      pop\n      dup2\n      add\n      swap1\n      tag_21\n      swap2\n      swap1\n      tag_22\n      jump\t// in\n    tag_21:\n        /* \"level0/solidity/MappingExample.sol\":347:379  return m.balances(address(this)) */\n      swap2\n      pop\n      pop\n        /* \"level0/solidity/MappingExample.sol\":230:386  function f() public returns (uint) {... */\n      swap1\n      jump\t// out\n    tag_10:\n      dataSize(sub_0)\n      dup1\n      dataOffset(sub_0)\n      dup4\n      codecopy\n      add\n      swap1\n      jump\t// out\n        /* \"#utility.yul\":7:84   */\n    tag_23:\n        /* \"#utility.yul\":44:51   */\n      0x00\n        /* \"#utility.yul\":73:78   */\n      dup2\n        /* \"#utility.yul\":62:78   */\n      swap1\n      pop\n        /* \"#utility.yul\":7:84   */\n      swap2\n      swap1\n      pop\n      jump\t// out\n        /* \"#utility.yul\":90:208   */\n    tag_24:\n        /* \"#utility.yul\":177:201   */\n      tag_40\n        /* \"#utility.yul\":195:200   */\n      dup2\n        /* \"#utility.yul\":177:201   */\n      tag_23\n      jump\t// in\n    tag_40:\n        /* \"#utility.yul\":172:175   */\n      dup3\n        /* \"#utility.yul\":165:202   */\n      mstore\n        /* \"#utility.yul\":90:208   */\n      pop\n      pop\n      jump\t// out\n        /* \"#utility.yul\":214:436   */\n    tag_7:\n        /* \"#utility.yul\":307:311   */\n      0x00\n        /* \"#utility.yul\":345:347   */\n      0x20\n        /* \"#utility.yul\":334:343   */\n      dup3\n        /* \"#utility.yul\":330:348   */\n      add\n        /* \"#utility.yul\":322:348   */\n      swap1\n      pop\n        /* \"#utility.yul\":358:429   */\n      tag_42\n        /* \"#utility.yul\":426:427   */\n      0x00\n        /* \"#utility.yul\":415:424   */\n      dup4\n        /* \"#utility.yul\":411:428   */\n      add\n        /* \"#utility.yul\":402:408   */\n      dup5\n        /* \"#utility.yul\":358:429   */\n      tag_24\n      jump\t// in\n    tag_42:\n        /* \"#utility.yul\":214:436   */\n      swap3\n      swap2\n      pop\n      pop\n      jump\t// out\n        /* \"#utility.yul\":442:529   */\n    tag_25:\n        /* \"#utility.yul\":489:496   */\n      0x00\n        /* \"#utility.yul\":518:523   */\n      dup2\n        /* \"#utility.yul\":507:523   */\n      swap1\n      pop\n        /* \"#utility.yul\":442:529   */\n      swap2\n      swap1\n      pop\n      jump\t// out\n        /* \"#utility.yul\":535:595   */\n    tag_26:\n        /* \"#utility.yul\":563:566   */\n      0x00\n        /* \"#utility.yul\":584:589   */\n      dup2\n        /* \"#utility.yul\":577:589   */\n      swap1\n      pop\n        /* \"#utility.yul\":535:595   */\n      swap2\n      swap1\n      pop\n      jump\t// out\n        /* \"#utility.yul\":601:763   */\n    tag_27:\n        /* \"#utility.yul\":661:670   */\n      0x00\n        /* \"#utility.yul\":694:757   */\n      tag_46\n        /* \"#utility.yul\":712:756   */\n      tag_47\n        /* \"#utility.yul\":721:755   */\n      tag_48\n        /* \"#utility.yul\":749:754   */\n      dup5\n        /* \"#utility.yul\":721:755   */\n      tag_25\n      jump\t// in\n    tag_48:\n        /* \"#utility.yul\":712:756   */\n      tag_26\n      jump\t// in\n    tag_47:\n        /* \"#utility.yul\":694:757   */\n      tag_23\n      jump\t// in\n    tag_46:\n        /* \"#utility.yul\":681:757   */\n      swap1\n      pop\n        /* \"#utility.yul\":601:763   */\n      swap2\n      swap1\n      pop\n      jump\t// out\n        /* \"#utility.yul\":769:920   */\n    tag_28:\n        /* \"#utility.yul\":866:913   */\n      tag_50\n        /* \"#utility.yul\":907:912   */\n      dup2\n        /* \"#utility.yul\":866:913   */\n      tag_27\n      jump\t// in\n    tag_50:\n        /* \"#utility.yul\":861:864   */\n      dup3\n        /* \"#utility.yul\":854:914   */\n      mstore\n        /* \"#utility.yul\":769:920   */\n      pop\n      pop\n      jump\t// out\n        /* \"#utility.yul\":926:1168   */\n    tag_13:\n        /* \"#utility.yul\":1029:1033   */\n      0x00\n        /* \"#utility.yul\":1067:1069   */\n      0x20\n        /* \"#utility.yul\":1056:1065   */\n      dup3\n        /* \"#utility.yul\":1052:1070   */\n      add\n        /* \"#utility.yul\":1044:1070   */\n      swap1\n      pop\n        /* \"#utility.yul\":1080:1161   */\n      tag_52\n        /* \"#utility.yul\":1158:1159   */\n      0x00\n        /* \"#utility.yul\":1147:1156   */\n      dup4\n        /* \"#utility.yul\":1143:1160   */\n      add\n        /* \"#utility.yul\":1134:1140   */\n      dup5\n        /* \"#utility.yul\":1080:1161   */\n      tag_28\n      jump\t// in\n    tag_52:\n        /* \"#utility.yul\":926:1168   */\n      swap3\n      swap2\n      pop\n      pop\n      jump\t// out\n        /* \"#utility.yul\":1174:1300   */\n    tag_29:\n        /* \"#utility.yul\":1211:1218   */\n      0x00\n        /* \"#utility.yul\":1251:1293   */\n      0xffffffffffffffffffffffffffffffffffffffff\n        /* \"#utility.yul\":1244:1249   */\n      dup3\n        /* \"#utility.yul\":1240:1294   */\n      and\n        /* \"#utility.yul\":1229:1294   */\n      swap1\n      pop\n        /* \"#utility.yul\":1174:1300   */\n      swap2\n      swap1\n      pop\n      jump\t// out\n        /* \"#utility.yul\":1306:1402   */\n    tag_30:\n        /* \"#utility.yul\":1343:1350   */\n      0x00\n        /* \"#utility.yul\":1372:1396   */\n      tag_55\n        /* \"#utility.yul\":1390:1395   */\n      dup3\n        /* \"#utility.yul\":1372:1396   */\n      tag_29\n      jump\t// in\n    tag_55:\n        /* \"#utility.yul\":1361:1396   */\n      swap1\n      pop\n        /* \"#utility.yul\":1306:1402   */\n      swap2\n      swap1\n      pop\n      jump\t// out\n        /* \"#utility.yul\":1408:1526   */\n    tag_31:\n        /* \"#utility.yul\":1495:1519   */\n      tag_57\n        /* \"#utility.yul\":1513:1518   */\n      dup2\n        /* \"#utility.yul\":1495:1519   */\n      tag_30\n      jump\t// in\n    tag_57:\n        /* \"#utility.yul\":1490:1493   */\n      dup3\n        /* \"#utility.yul\":1483:1520   */\n      mstore\n        /* \"#utility.yul\":1408:1526   */\n      pop\n      pop\n      jump\t// out\n        /* \"#utility.yul\":1532:1754   */\n    tag_18:\n        /* \"#utility.yul\":1625:1629   */\n      0x00\n        /* \"#utility.yul\":1663:1665   */\n      0x20\n        /* \"#utility.yul\":1652:1661   */\n      dup3\n        /* \"#utility.yul\":1648:1666   */\n      add\n        /* \"#utility.yul\":1640:1666   */\n      swap1\n      pop\n        /* \"#utility.yul\":1676:1747   */\n      tag_59\n        /* \"#utility.yul\":1744:1745   */\n      0x00\n        /* \"#utility.yul\":1733:1742   */\n      dup4\n        /* \"#utility.yul\":1729:1746   */\n      add\n        /* \"#utility.yul\":1720:1726   */\n      dup5\n        /* \"#utility.yul\":1676:1747   */\n      tag_31\n      jump\t// in\n    tag_59:\n        /* \"#utility.yul\":1532:1754   */\n      swap3\n      swap2\n      pop\n      pop\n      jump\t// out\n        /* \"#utility.yul\":1841:1958   */\n    tag_33:\n        /* \"#utility.yul\":1950:1951   */\n      0x00\n        /* \"#utility.yul\":1947:1948   */\n      dup1\n        /* \"#utility.yul\":1940:1952   */\n      revert\n        /* \"#utility.yul\":2087:2209   */\n    tag_35:\n        /* \"#utility.yul\":2160:2184   */\n      tag_64\n        /* \"#utility.yul\":2178:2183   */\n      dup2\n        /* \"#utility.yul\":2160:2184   */\n      tag_23\n      jump\t// in\n    tag_64:\n        /* \"#utility.yul\":2153:2158   */\n      dup2\n        /* \"#utility.yul\":2150:2185   */\n      eq\n        /* \"#utility.yul\":2140:2203   */\n      tag_65\n      jumpi\n        /* \"#utility.yul\":2199:2200   */\n      0x00\n        /* \"#utility.yul\":2196:2197   */\n      dup1\n        /* \"#utility.yul\":2189:2201   */\n      revert\n        /* \"#utility.yul\":2140:2203   */\n    tag_65:\n        /* \"#utility.yul\":2087:2209   */\n      pop\n      jump\t// out\n        /* \"#utility.yul\":2215:2358   */\n    tag_36:\n        /* \"#utility.yul\":2272:2277   */\n      0x00\n        /* \"#utility.yul\":2303:2309   */\n      dup2\n        /* \"#utility.yul\":2297:2310   */\n      mload\n        /* \"#utility.yul\":2288:2310   */\n      swap1\n      pop\n        /* \"#utility.yul\":2319:2352   */\n      tag_67\n        /* \"#utility.yul\":2346:2351   */\n      dup2\n        /* \"#utility.yul\":2319:2352   */\n      tag_35\n      jump\t// in\n    tag_67:\n        /* \"#utility.yul\":2215:2358   */\n      swap3\n      swap2\n      pop\n      pop\n      jump\t// out\n        /* \"#utility.yul\":2364:2715   */\n    tag_22:\n        /* \"#utility.yul\":2434:2440   */\n      0x00\n        /* \"#utility.yul\":2483:2485   */\n      0x20\n        /* \"#utility.yul\":2471:2480   */\n      dup3\n        /* \"#utility.yul\":2462:2469   */\n      dup5\n        /* \"#utility.yul\":2458:2481   */\n      sub\n        /* \"#utility.yul\":2454:2486   */\n      slt\n        /* \"#utility.yul\":2451:2570   */\n      iszero\n      tag_69\n      jumpi\n        /* \"#utility.yul\":2489:2568   */\n      tag_70\n      tag_33\n      jump\t// in\n    tag_70:\n        /* \"#utility.yul\":2451:2570   */\n    tag_69:\n        /* \"#utility.yul\":2609:2610   */\n      0x00\n        /* \"#utility.yul\":2634:2698   */\n      tag_71\n        /* \"#utility.yul\":2690:2697   */\n      dup5\n        /* \"#utility.yul\":2681:2687   */\n      dup3\n        /* \"#utility.yul\":2670:2679   */\n      dup6\n        /* \"#utility.yul\":2666:2688   */\n      add\n        /* \"#utility.yul\":2634:2698   */\n      tag_36\n      jump\t// in\n    tag_71:\n        /* \"#utility.yul\":2624:2698   */\n      swap2\n      pop\n        /* \"#utility.yul\":2580:2708   */\n      pop\n        /* \"#utility.yul\":2364:2715   */\n      swap3\n      swap2\n      pop\n      pop\n      jump\t// out\n    stop\n\n    sub_0: assembly {\n            /* \"level0/solidity/MappingExample.sol\":27:201  contract MappingExample {... */\n          mstore(0x40, 0x80)\n          callvalue\n          dup1\n          iszero\n          tag_1\n          jumpi\n          0x00\n          dup1\n          revert\n        tag_1:\n          pop\n          dataSize(sub_0)\n          dup1\n          dataOffset(sub_0)\n          0x00\n          codecopy\n          0x00\n          return\n        stop\n\n        sub_0: assembly {\n                /* \"level0/solidity/MappingExample.sol\":27:201  contract MappingExample {... */\n              mstore(0x40, 0x80)\n              callvalue\n              dup1\n              iszero\n              tag_1\n              jumpi\n              0x00\n              dup1\n              revert\n            tag_1:\n              pop\n              jumpi(tag_2, lt(calldatasize, 0x04))\n              shr(0xe0, calldataload(0x00))\n              dup1\n              0x27e235e3\n              eq\n              tag_3\n              jumpi\n              dup1\n              0x82ab890a\n              eq\n              tag_4\n              jumpi\n            tag_2:\n              0x00\n              dup1\n              revert\n                /* \"level0/solidity/MappingExample.sol\":62:102  mapping(address => uint) public balances */\n            tag_3:\n              tag_5\n              0x04\n              dup1\n              calldatasize\n              sub\n              dup2\n              add\n              swap1\n              tag_6\n              swap2\n              swap1\n              tag_7\n              jump\t// in\n            tag_6:\n              tag_8\n              jump\t// in\n            tag_5:\n              mload(0x40)\n              tag_9\n              swap2\n              swap1\n              tag_10\n              jump\t// in\n            tag_9:\n              mload(0x40)\n              dup1\n              swap2\n              sub\n              swap1\n              return\n                /* \"level0/solidity/MappingExample.sol\":109:199  function update(uint newBalance) public {... */\n            tag_4:\n              tag_11\n              0x04\n              dup1\n              calldatasize\n              sub\n              dup2\n              add\n              swap1\n              tag_12\n              swap2\n              swap1\n              tag_13\n              jump\t// in\n            tag_12:\n              tag_14\n              jump\t// in\n            tag_11:\n              stop\n                /* \"level0/solidity/MappingExample.sol\":62:102  mapping(address => uint) public balances */\n            tag_8:\n              mstore(0x20, 0x00)\n              dup1\n              0x00\n              mstore\n              keccak256(0x00, 0x40)\n              0x00\n              swap2\n              pop\n              swap1\n              pop\n              sload\n              dup2\n              jump\t// out\n                /* \"level0/solidity/MappingExample.sol\":109:199  function update(uint newBalance) public {... */\n            tag_14:\n                /* \"level0/solidity/MappingExample.sol\":182:192  newBalance */\n              dup1\n                /* \"level0/solidity/MappingExample.sol\":159:167  balances */\n              0x00\n                /* \"level0/solidity/MappingExample.sol\":159:179  balances[msg.sender] */\n              dup1\n                /* \"level0/solidity/MappingExample.sol\":168:178  msg.sender */\n              caller\n                /* \"level0/solidity/MappingExample.sol\":159:179  balances[msg.sender] */\n              0xffffffffffffffffffffffffffffffffffffffff\n              and\n              0xffffffffffffffffffffffffffffffffffffffff\n              and\n              dup2\n              mstore\n              0x20\n              add\n              swap1\n              dup2\n              mstore\n              0x20\n              add\n              0x00\n              keccak256\n                /* \"level0/solidity/MappingExample.sol\":159:192  balances[msg.sender] = newBalance */\n              dup2\n              swap1\n              sstore\n              pop\n                /* \"level0/solidity/MappingExample.sol\":109:199  function update(uint newBalance) public {... */\n              pop\n              jump\t// out\n                /* \"#utility.yul\":88:205   */\n            tag_17:\n                /* \"#utility.yul\":197:198   */\n              0x00\n                /* \"#utility.yul\":194:195   */\n              dup1\n                /* \"#utility.yul\":187:199   */\n              revert\n                /* \"#utility.yul\":334:460   */\n            tag_19:\n                /* \"#utility.yul\":371:378   */\n              0x00\n                /* \"#utility.yul\":411:453   */\n              0xffffffffffffffffffffffffffffffffffffffff\n                /* \"#utility.yul\":404:409   */\n              dup3\n                /* \"#utility.yul\":400:454   */\n              and\n                /* \"#utility.yul\":389:454   */\n              swap1\n              pop\n                /* \"#utility.yul\":334:460   */\n              swap2\n              swap1\n              pop\n              jump\t// out\n                /* \"#utility.yul\":466:562   */\n            tag_20:\n                /* \"#utility.yul\":503:510   */\n              0x00\n                /* \"#utility.yul\":532:556   */\n              tag_33\n                /* \"#utility.yul\":550:555   */\n              dup3\n                /* \"#utility.yul\":532:556   */\n              tag_19\n              jump\t// in\n            tag_33:\n                /* \"#utility.yul\":521:556   */\n              swap1\n              pop\n                /* \"#utility.yul\":466:562   */\n              swap2\n              swap1\n              pop\n              jump\t// out\n                /* \"#utility.yul\":568:690   */\n            tag_21:\n                /* \"#utility.yul\":641:665   */\n              tag_35\n                /* \"#utility.yul\":659:664   */\n              dup2\n                /* \"#utility.yul\":641:665   */\n              tag_20\n              jump\t// in\n            tag_35:\n                /* \"#utility.yul\":634:639   */\n              dup2\n                /* \"#utility.yul\":631:666   */\n              eq\n                /* \"#utility.yul\":621:684   */\n              tag_36\n              jumpi\n                /* \"#utility.yul\":680:681   */\n              0x00\n                /* \"#utility.yul\":677:678   */\n              dup1\n                /* \"#utility.yul\":670:682   */\n              revert\n                /* \"#utility.yul\":621:684   */\n            tag_36:\n                /* \"#utility.yul\":568:690   */\n              pop\n              jump\t// out\n                /* \"#utility.yul\":696:835   */\n            tag_22:\n                /* \"#utility.yul\":742:747   */\n              0x00\n                /* \"#utility.yul\":780:786   */\n              dup2\n                /* \"#utility.yul\":767:787   */\n              calldataload\n                /* \"#utility.yul\":758:787   */\n              swap1\n              pop\n                /* \"#utility.yul\":796:829   */\n              tag_38\n                /* \"#utility.yul\":823:828   */\n              dup2\n                /* \"#utility.yul\":796:829   */\n              tag_21\n              jump\t// in\n            tag_38:\n                /* \"#utility.yul\":696:835   */\n              swap3\n              swap2\n              pop\n              pop\n              jump\t// out\n                /* \"#utility.yul\":841:1170   */\n            tag_7:\n                /* \"#utility.yul\":900:906   */\n              0x00\n                /* \"#utility.yul\":949:951   */\n              0x20\n                /* \"#utility.yul\":937:946   */\n              dup3\n                /* \"#utility.yul\":928:935   */\n              dup5\n                /* \"#utility.yul\":924:947   */\n              sub\n                /* \"#utility.yul\":920:952   */\n              slt\n                /* \"#utility.yul\":917:1036   */\n              iszero\n              tag_40\n              jumpi\n                /* \"#utility.yul\":955:1034   */\n              tag_41\n              tag_17\n              jump\t// in\n            tag_41:\n                /* \"#utility.yul\":917:1036   */\n            tag_40:\n                /* \"#utility.yul\":1075:1076   */\n              0x00\n                /* \"#utility.yul\":1100:1153   */\n              tag_42\n                /* \"#utility.yul\":1145:1152   */\n              dup5\n                /* \"#utility.yul\":1136:1142   */\n              dup3\n                /* \"#utility.yul\":1125:1134   */\n              dup6\n                /* \"#utility.yul\":1121:1143   */\n              add\n                /* \"#utility.yul\":1100:1153   */\n              tag_22\n              jump\t// in\n            tag_42:\n                /* \"#utility.yul\":1090:1153   */\n              swap2\n              pop\n                /* \"#utility.yul\":1046:1163   */\n              pop\n                /* \"#utility.yul\":841:1170   */\n              swap3\n              swap2\n              pop\n              pop\n              jump\t// out\n                /* \"#utility.yul\":1176:1253   */\n            tag_23:\n                /* \"#utility.yul\":1213:1220   */\n              0x00\n                /* \"#utility.yul\":1242:1247   */\n              dup2\n                /* \"#utility.yul\":1231:1247   */\n              swap1\n              pop\n                /* \"#utility.yul\":1176:1253   */\n              swap2\n              swap1\n              pop\n              jump\t// out\n                /* \"#utility.yul\":1259:1377   */\n            tag_24:\n                /* \"#utility.yul\":1346:1370   */\n              tag_45\n                /* \"#utility.yul\":1364:1369   */\n              dup2\n                /* \"#utility.yul\":1346:1370   */\n              tag_23\n              jump\t// in\n            tag_45:\n                /* \"#utility.yul\":1341:1344   */\n              dup3\n                /* \"#utility.yul\":1334:1371   */\n              mstore\n                /* \"#utility.yul\":1259:1377   */\n              pop\n              pop\n              jump\t// out\n                /* \"#utility.yul\":1383:1605   */\n            tag_10:\n                /* \"#utility.yul\":1476:1480   */\n              0x00\n                /* \"#utility.yul\":1514:1516   */\n              0x20\n                /* \"#utility.yul\":1503:1512   */\n              dup3\n                /* \"#utility.yul\":1499:1517   */\n              add\n                /* \"#utility.yul\":1491:1517   */\n              swap1\n              pop\n                /* \"#utility.yul\":1527:1598   */\n              tag_47\n                /* \"#utility.yul\":1595:1596   */\n              0x00\n                /* \"#utility.yul\":1584:1593   */\n              dup4\n                /* \"#utility.yul\":1580:1597   */\n              add\n                /* \"#utility.yul\":1571:1577   */\n              dup5\n                /* \"#utility.yul\":1527:1598   */\n              tag_24\n              jump\t// in\n            tag_47:\n                /* \"#utility.yul\":1383:1605   */\n              swap3\n              swap2\n              pop\n              pop\n              jump\t// out\n                /* \"#utility.yul\":1611:1733   */\n            tag_25:\n                /* \"#utility.yul\":1684:1708   */\n              tag_49\n                /* \"#utility.yul\":1702:1707   */\n              dup2\n                /* \"#utility.yul\":1684:1708   */\n              tag_23\n              jump\t// in\n            tag_49:\n                /* \"#utility.yul\":1677:1682   */\n              dup2\n                /* \"#utility.yul\":1674:1709   */\n              eq\n                /* \"#utility.yul\":1664:1727   */\n              tag_50\n              jumpi\n                /* \"#utility.yul\":1723:1724   */\n              0x00\n                /* \"#utility.yul\":1720:1721   */\n              dup1\n                /* \"#utility.yul\":1713:1725   */\n              revert\n                /* \"#utility.yul\":1664:1727   */\n            tag_50:\n                /* \"#utility.yul\":1611:1733   */\n              pop\n              jump\t// out\n                /* \"#utility.yul\":1739:1878   */\n            tag_26:\n                /* \"#utility.yul\":1785:1790   */\n              0x00\n                /* \"#utility.yul\":1823:1829   */\n              dup2\n                /* \"#utility.yul\":1810:1830   */\n              calldataload\n                /* \"#utility.yul\":1801:1830   */\n              swap1\n              pop\n                /* \"#utility.yul\":1839:1872   */\n              tag_52\n                /* \"#utility.yul\":1866:1871   */\n              dup2\n                /* \"#utility.yul\":1839:1872   */\n              tag_25\n              jump\t// in\n            tag_52:\n                /* \"#utility.yul\":1739:1878   */\n              swap3\n              swap2\n              pop\n              pop\n              jump\t// out\n                /* \"#utility.yul\":1884:2213   */\n            tag_13:\n                /* \"#utility.yul\":1943:1949   */\n              0x00\n                /* \"#utility.yul\":1992:1994   */\n              0x20\n                /* \"#utility.yul\":1980:1989   */\n              dup3\n                /* \"#utility.yul\":1971:1978   */\n              dup5\n                /* \"#utility.yul\":1967:1990   */\n              sub\n                /* \"#utility.yul\":1963:1995   */\n              slt\n                /* \"#utility.yul\":1960:2079   */\n              iszero\n              tag_54\n              jumpi\n                /* \"#utility.yul\":1998:2077   */\n              tag_55\n              tag_17\n              jump\t// in\n            tag_55:\n                /* \"#utility.yul\":1960:2079   */\n            tag_54:\n                /* \"#utility.yul\":2118:2119   */\n              0x00\n                /* \"#utility.yul\":2143:2196   */\n              tag_56\n                /* \"#utility.yul\":2188:2195   */\n              dup5\n                /* \"#utility.yul\":2179:2185   */\n              dup3\n                /* \"#utility.yul\":2168:2177   */\n              dup6\n                /* \"#utility.yul\":2164:2186   */\n              add\n                /* \"#utility.yul\":2143:2196   */\n              tag_26\n              jump\t// in\n            tag_56:\n                /* \"#utility.yul\":2133:2196   */\n              swap2\n              pop\n                /* \"#utility.yul\":2089:2206   */\n              pop\n                /* \"#utility.yul\":1884:2213   */\n              swap3\n              swap2\n              pop\n              pop\n              jump\t// out\n\n            auxdata: 0xa26469706673582212202231bf183ef12e4bad3aacde82d64d8b7420145248cbb44b552d1762cc71f20264736f6c63430008140033\n        }\n    }\n\n    auxdata: 0xa26469706673582212202b6f9b9a93a40158c04c30b8fb07a1c36a758b9c0625cf317daa6048ca12481464736f6c63430008140033\n}\n",
				"bytecode": {
					"linkReferences": {},
					"object": "608060405234801561000f575f80fd5b506105188061001d5f395ff3fe608060405234801561000f575f80fd5b5060043610610029575f3560e01c806326121ff01461002d575b5f80fd5b61003561004b565b604051610042919061017f565b60405180910390f35b5f806040516100599061015a565b604051809103905ff080158015610072573d5f803e3d5ffd5b5090508073ffffffffffffffffffffffffffffffffffffffff166382ab890a60646040518263ffffffff1660e01b81526004016100af91906101da565b5f604051808303815f87803b1580156100c6575f80fd5b505af11580156100d8573d5f803e3d5ffd5b505050508073ffffffffffffffffffffffffffffffffffffffff166327e235e3306040518263ffffffff1660e01b81526004016101159190610232565b602060405180830381865afa158015610130573d5f803e3d5ffd5b505050506040513d601f19601f820116820180604052508101906101549190610279565b91505090565b61023e806102a583390190565b5f819050919050565b61017981610167565b82525050565b5f6020820190506101925f830184610170565b92915050565b5f819050919050565b5f819050919050565b5f6101c46101bf6101ba84610198565b6101a1565b610167565b9050919050565b6101d4816101aa565b82525050565b5f6020820190506101ed5f8301846101cb565b92915050565b5f73ffffffffffffffffffffffffffffffffffffffff82169050919050565b5f61021c826101f3565b9050919050565b61022c81610212565b82525050565b5f6020820190506102455f830184610223565b92915050565b5f80fd5b61025881610167565b8114610262575f80fd5b50565b5f815190506102738161024f565b92915050565b5f6020828403121561028e5761028d61024b565b5b5f61029b84828501610265565b9150509291505056fe608060405234801561000f575f80fd5b506102218061001d5f395ff3fe608060405234801561000f575f80fd5b5060043610610034575f3560e01c806327e235e31461003857806382ab890a14610068575b5f80fd5b610052600480360381019061004d919061013a565b610084565b60405161005f919061017d565b60405180910390f35b610082600480360381019061007d91906101c0565b610098565b005b5f602052805f5260405f205f915090505481565b805f803373ffffffffffffffffffffffffffffffffffffffff1673ffffffffffffffffffffffffffffffffffffffff1681526020019081526020015f208190555050565b5f80fd5b5f73ffffffffffffffffffffffffffffffffffffffff82169050919050565b5f610109826100e0565b9050919050565b610119816100ff565b8114610123575f80fd5b50565b5f8135905061013481610110565b92915050565b5f6020828403121561014f5761014e6100dc565b5b5f61015c84828501610126565b91505092915050565b5f819050919050565b61017781610165565b82525050565b5f6020820190506101905f83018461016e565b92915050565b61019f81610165565b81146101a9575f80fd5b50565b5f813590506101ba81610196565b92915050565b5f602082840312156101d5576101d46100dc565b5b5f6101e2848285016101ac565b9150509291505056fea26469706673582212202231bf183ef12e4bad3aacde82d64d8b7420145248cbb44b552d1762cc71f20264736f6c63430008140033a26469706673582212202b6f9b9a93a40158c04c30b8fb07a1c36a758b9c0625cf317daa6048ca12481464736f6c63430008140033",
					"opcodes": "PUSH1 0x80 PUSH1 0x40 MSTORE CALLVALUE DUP1 ISZERO PUSH2 0xF JUMPI PUSH0 DUP1 REVERT JUMPDEST POP PUSH2 0x518 DUP1 PUSH2 0x1D PUSH0 CODECOPY PUSH0 RETURN INVALID PUSH1 0x80 PUSH1 0x40 MSTORE CALLVALUE DUP1 ISZERO PUSH2 0xF JUMPI PUSH0 DUP1 REVERT JUMPDEST POP PUSH1 0x4 CALLDATASIZE LT PUSH2 0x29 JUMPI PUSH0 CALLDATALOAD PUSH1 0xE0 SHR DUP1 PUSH4 0x26121FF0 EQ PUSH2 0x2D JUMPI JUMPDEST PUSH0 DUP1 REVERT JUMPDEST PUSH2 0x35 PUSH2 0x4B JUMP JUMPDEST PUSH1 0x40 MLOAD PUSH2 0x42 SWAP2 SWAP1 PUSH2 0x17F JUMP JUMPDEST PUSH1 0x40 MLOAD DUP1 SWAP2 SUB SWAP1 RETURN JUMPDEST PUSH0 DUP1 PUSH1 0x40 MLOAD PUSH2 0x59 SWAP1 PUSH2 0x15A JUMP JUMPDEST PUSH1 0x40 MLOAD DUP1 SWAP2 SUB SWAP1 PUSH0 CREATE DUP1 ISZERO DUP1 ISZERO PUSH2 0x72 JUMPI RETURNDATASIZE PUSH0 DUP1 RETURNDATACOPY RETURNDATASIZE PUSH0 REVERT JUMPDEST POP SWAP1 POP DUP1 PUSH20 0xFFFFFFFFFFFFFFFFFFFFFFFFFFFFFFFFFFFFFFFF AND PUSH4 0x82AB890A PUSH1 0x64 PUSH1 0x40 MLOAD DUP3 PUSH4 0xFFFFFFFF AND PUSH1 0xE0 SHL DUP2 MSTORE PUSH1 0x4 ADD PUSH2 0xAF SWAP2 SWAP1 PUSH2 0x1DA JUMP JUMPDEST PUSH0 PUSH1 0x40 MLOAD DUP1 DUP4 SUB DUP2 PUSH0 DUP8 DUP1 EXTCODESIZE ISZERO DUP1 ISZERO PUSH2 0xC6 JUMPI PUSH0 DUP1 REVERT JUMPDEST POP GAS CALL ISZERO DUP1 ISZERO PUSH2 0xD8 JUMPI RETURNDATASIZE PUSH0 DUP1 RETURNDATACOPY RETURNDATASIZE PUSH0 REVERT JUMPDEST POP POP POP POP DUP1 PUSH20 0xFFFFFFFFFFFFFFFFFFFFFFFFFFFFFFFFFFFFFFFF AND PUSH4 0x27E235E3 ADDRESS PUSH1 0x40 MLOAD DUP3 PUSH4 0xFFFFFFFF AND PUSH1 0xE0 SHL DUP2 MSTORE PUSH1 0x4 ADD PUSH2 0x115 SWAP2 SWAP1 PUSH2 0x232 JUMP JUMPDEST PUSH1 0x20 PUSH1 0x40 MLOAD DUP1 DUP4 SUB DUP2 DUP7 GAS STATICCALL ISZERO DUP1 ISZERO PUSH2 0x130 JUMPI RETURNDATASIZE PUSH0 DUP1 RETURNDATACOPY RETURNDATASIZE PUSH0 REVERT JUMPDEST POP POP POP POP PUSH1 0x40 MLOAD RETURNDATASIZE PUSH1 0x1F NOT PUSH1 0x1F DUP3 ADD AND DUP3 ADD DUP1 PUSH1 0x40 MSTORE POP DUP2 ADD SWAP1 PUSH2 0x154 SWAP2 SWAP1 PUSH2 0x279 JUMP JUMPDEST SWAP2 POP POP SWAP1 JUMP JUMPDEST PUSH2 0x23E DUP1 PUSH2 0x2A5 DUP4 CODECOPY ADD SWAP1 JUMP JUMPDEST PUSH0 DUP2 SWAP1 POP SWAP2 SWAP1 POP JUMP JUMPDEST PUSH2 0x179 DUP2 PUSH2 0x167 JUMP JUMPDEST DUP3 MSTORE POP POP JUMP JUMPDEST PUSH0 PUSH1 0x20 DUP3 ADD SWAP1 POP PUSH2 0x192 PUSH0 DUP4 ADD DUP5 PUSH2 0x170 JUMP JUMPDEST SWAP3 SWAP2 POP POP JUMP JUMPDEST PUSH0 DUP2 SWAP1 POP SWAP2 SWAP1 POP JUMP JUMPDEST PUSH0 DUP2 SWAP1 POP SWAP2 SWAP1 POP JUMP JUMPDEST PUSH0 PUSH2 0x1C4 PUSH2 0x1BF PUSH2 0x1BA DUP5 PUSH2 0x198 JUMP JUMPDEST PUSH2 0x1A1 JUMP JUMPDEST PUSH2 0x167 JUMP JUMPDEST SWAP1 POP SWAP2 SWAP1 POP JUMP JUMPDEST PUSH2 0x1D4 DUP2 PUSH2 0x1AA JUMP JUMPDEST DUP3 MSTORE POP POP JUMP JUMPDEST PUSH0 PUSH1 0x20 DUP3 ADD SWAP1 POP PUSH2 0x1ED PUSH0 DUP4 ADD DUP5 PUSH2 0x1CB JUMP JUMPDEST SWAP3 SWAP2 POP POP JUMP JUMPDEST PUSH0 PUSH20 0xFFFFFFFFFFFFFFFFFFFFFFFFFFFFFFFFFFFFFFFF DUP3 AND SWAP1 POP SWAP2 SWAP1 POP JUMP JUMPDEST PUSH0 PUSH2 0x21C DUP3 PUSH2 0x1F3 JUMP JUMPDEST SWAP1 POP SWAP2 SWAP1 POP JUMP JUMPDEST PUSH2 0x22C DUP2 PUSH2 0x212 JUMP JUMPDEST DUP3 MSTORE POP POP JUMP JUMPDEST PUSH0 PUSH1 0x20 DUP3 ADD SWAP1 POP PUSH2 0x245 PUSH0 DUP4 ADD DUP5 PUSH2 0x223 JUMP JUMPDEST SWAP3 SWAP2 POP POP JUMP JUMPDEST PUSH0 DUP1 REVERT JUMPDEST PUSH2 0x258 DUP2 PUSH2 0x167 JUMP JUMPDEST DUP2 EQ PUSH2 0x262 JUMPI PUSH0 DUP1 REVERT JUMPDEST POP JUMP JUMPDEST PUSH0 DUP2 MLOAD SWAP1 POP PUSH2 0x273 DUP2 PUSH2 0x24F JUMP JUMPDEST SWAP3 SWAP2 POP POP JUMP JUMPDEST PUSH0 PUSH1 0x20 DUP3 DUP5 SUB SLT ISZERO PUSH2 0x28E JUMPI PUSH2 0x28D PUSH2 0x24B JUMP JUMPDEST JUMPDEST PUSH0 PUSH2 0x29B DUP5 DUP3 DUP6 ADD PUSH2 0x265 JUMP JUMPDEST SWAP2 POP POP SWAP3 SWAP2 POP POP JUMP INVALID PUSH1 0x80 PUSH1 0x40 MSTORE CALLVALUE DUP1 ISZERO PUSH2 0xF JUMPI PUSH0 DUP1 REVERT JUMPDEST POP PUSH2 0x221 DUP1 PUSH2 0x1D PUSH0 CODECOPY PUSH0 RETURN INVALID PUSH1 0x80 PUSH1 0x40 MSTORE CALLVALUE DUP1 ISZERO PUSH2 0xF JUMPI PUSH0 DUP1 REVERT JUMPDEST POP PUSH1 0x4 CALLDATASIZE LT PUSH2 0x34 JUMPI PUSH0 CALLDATALOAD PUSH1 0xE0 SHR DUP1 PUSH4 0x27E235E3 EQ PUSH2 0x38 JUMPI DUP1 PUSH4 0x82AB890A EQ PUSH2 0x68 JUMPI JUMPDEST PUSH0 DUP1 REVERT JUMPDEST PUSH2 0x52 PUSH1 0x4 DUP1 CALLDATASIZE SUB DUP2 ADD SWAP1 PUSH2 0x4D SWAP2 SWAP1 PUSH2 0x13A JUMP JUMPDEST PUSH2 0x84 JUMP JUMPDEST PUSH1 0x40 MLOAD PUSH2 0x5F SWAP2 SWAP1 PUSH2 0x17D JUMP JUMPDEST PUSH1 0x40 MLOAD DUP1 SWAP2 SUB SWAP1 RETURN JUMPDEST PUSH2 0x82 PUSH1 0x4 DUP1 CALLDATASIZE SUB DUP2 ADD SWAP1 PUSH2 0x7D SWAP2 SWAP1 PUSH2 0x1C0 JUMP JUMPDEST PUSH2 0x98 JUMP JUMPDEST STOP JUMPDEST PUSH0 PUSH1 0x20 MSTORE DUP1 PUSH0 MSTORE PUSH1 0x40 PUSH0 KECCAK256 PUSH0 SWAP2 POP SWAP1 POP SLOAD DUP2 JUMP JUMPDEST DUP1 PUSH0 DUP1 CALLER PUSH20 0xFFFFFFFFFFFFFFFFFFFFFFFFFFFFFFFFFFFFFFFF AND PUSH20 0xFFFFFFFFFFFFFFFFFFFFFFFFFFFFFFFFFFFFFFFF AND DUP2 MSTORE PUSH1 0x20 ADD SWAP1 DUP2 MSTORE PUSH1 0x20 ADD PUSH0 KECCAK256 DUP2 SWAP1 SSTORE POP POP JUMP JUMPDEST PUSH0 DUP1 REVERT JUMPDEST PUSH0 PUSH20 0xFFFFFFFFFFFFFFFFFFFFFFFFFFFFFFFFFFFFFFFF DUP3 AND SWAP1 POP SWAP2 SWAP1 POP JUMP JUMPDEST PUSH0 PUSH2 0x109 DUP3 PUSH2 0xE0 JUMP JUMPDEST SWAP1 POP SWAP2 SWAP1 POP JUMP JUMPDEST PUSH2 0x119 DUP2 PUSH2 0xFF JUMP JUMPDEST DUP2 EQ PUSH2 0x123 JUMPI PUSH0 DUP1 REVERT JUMPDEST POP JUMP JUMPDEST PUSH0 DUP2 CALLDATALOAD SWAP1 POP PUSH2 0x134 DUP2 PUSH2 0x110 JUMP JUMPDEST SWAP3 SWAP2 POP POP JUMP JUMPDEST PUSH0 PUSH1 0x20 DUP3 DUP5 SUB SLT ISZERO PUSH2 0x14F JUMPI PUSH2 0x14E PUSH2 0xDC JUMP JUMPDEST JUMPDEST PUSH0 PUSH2 0x15C DUP5 DUP3 DUP6 ADD PUSH2 0x126 JUMP JUMPDEST SWAP2 POP POP SWAP3 SWAP2 POP POP JUMP JUMPDEST PUSH0 DUP2 SWAP1 POP SWAP2 SWAP1 POP JUMP JUMPDEST PUSH2 0x177 DUP2 PUSH2 0x165 JUMP JUMPDEST DUP3 MSTORE POP POP JUMP JUMPDEST PUSH0 PUSH1 0x20 DUP3 ADD SWAP1 POP PUSH2 0x190 PUSH0 DUP4 ADD DUP5 PUSH2 0x16E JUMP JUMPDEST SWAP3 SWAP2 POP POP JUMP JUMPDEST PUSH2 0x19F DUP2 PUSH2 0x165 JUMP JUMPDEST DUP2 EQ PUSH2 0x1A9 JUMPI PUSH0 DUP1 REVERT JUMPDEST POP JUMP JUMPDEST PUSH0 DUP2 CALLDATALOAD SWAP1 POP PUSH2 0x1BA DUP2 PUSH2 0x196 JUMP JUMPDEST SWAP3 SWAP2 POP POP JUMP JUMPDEST PUSH0 PUSH1 0x20 DUP3 DUP5 SUB SLT ISZERO PUSH2 0x1D5 JUMPI PUSH2 0x1D4 PUSH2 0xDC JUMP JUMPDEST JUMPDEST PUSH0 PUSH2 0x1E2 DUP5 DUP3 DUP6 ADD PUSH2 0x1AC JUMP JUMPDEST SWAP2 POP POP SWAP3 SWAP2 POP POP JUMP INVALID LOG2 PUSH5 0x6970667358 0x22 SLT KECCAK256 0x22 BALANCE 0xBF XOR RETURNDATACOPY CALL 0x2E 0x4B 0xAD GASPRICE 0xAC 0xDE DUP3 0xD6 0x4D DUP12 PUSH21 0x20145248CBB44B552D1762CC71F20264736F6C6343 STOP ADDMOD EQ STOP CALLER LOG2 PUSH5 0x6970667358 0x22 SLT KECCAK256 0x2B PUSH16 0x9B9A93A40158C04C30B8FB07A1C36A75 DUP12 SWAP13 MOD 0x25 0xCF BALANCE PUSH30 0xAA6048CA12481464736F6C63430008140033000000000000000000000000 "
				},
				"gasEstimates": {
					"creation": {
						"codeDepositCost": "260800",
						"executionCost": "298",
						"totalCost": "261098"
					},
					"external": {
						"f()": "infinite"
					}
				},
				"methodIdentifiers": {
					"f()": "26121ff0"
				}
			},
			"storageLayout": {
				"storage": [],
				"types": null
			},
			"userdoc": {
				"kind": "user",
				"methods": {},
				"version": 1
			}
		}
	}
}