{
	"level0/solidity/ControlStructures.sol": {
		"ControlTest": {
			"abi": [
				{
					"inputs": [],
					"name": "testFor",
					"outputs": [
						{
							"internalType": "uint256",
							"name": "",
							"type": "uint256"
						},
						{
							"internalType": "uint256",
							"name": "",
							"type": "uint256"
						}
					],
					"stateMutability": "pure",
					"type": "function"
				},
				{
					"inputs": [],
					"name": "testWhile",
					"outputs": [
						{
							"internalType": "uint256",
							"name": "",
							"type": "uint256"
						}
					],
					"stateMutability": "pure",
					"type": "function"
				}
			],
			"devdoc": {
				"kind": "dev",
				"methods": {},
				"version": 1
			},
			"evm": {
				"assembly": "    /* \"level0/solidity/ControlStructures.sol\":27:772  contract ControlTest{... */\n  mstore(0x40, 0x80)\n  callvalue\n  dup1\n  iszero\n  tag_1\n  jumpi\n  0x00\n  dup1\n  revert\ntag_1:\n  pop\n  dataSize(sub_0)\n  dup1\n  dataOffset(sub_0)\n  0x00\n  codecopy\n  0x00\n  return\nstop\n\nsub_0: assembly {\n        /* \"level0/solidity/ControlStructures.sol\":27:772  contract ControlTest{... */\n      mstore(0x40, 0x80)\n      callvalue\n      dup1\n      iszero\n      tag_1\n      jumpi\n      0x00\n      dup1\n      revert\n    tag_1:\n      pop\n      jumpi(tag_2, lt(calldatasize, 0x04))\n      shr(0xe0, calldataload(0x00))\n      dup1\n      0xd65d8b16\n      eq\n      tag_3\n      jumpi\n      dup1\n      0xf01ff72d\n      eq\n      tag_4\n      jumpi\n    tag_2:\n      0x00\n      dup1\n      revert\n        /* \"level0/solidity/ControlStructures.sol\":433:769  function testFor() public  pure returns(uint, uint){... */\n    tag_3:\n      tag_5\n      tag_6\n      jump\t// in\n    tag_5:\n      mload(0x40)\n      tag_7\n      swap3\n      swap2\n      swap1\n      tag_8\n      jump\t// in\n    tag_7:\n      mload(0x40)\n      dup1\n      swap2\n      sub\n      swap1\n      return\n        /* \"level0/solidity/ControlStructures.sol\":54:427  function testWhile() public  pure returns (uint){... */\n    tag_4:\n      tag_9\n      tag_10\n      jump\t// in\n    tag_9:\n      mload(0x40)\n      tag_11\n      swap2\n      swap1\n      tag_12\n      jump\t// in\n    tag_11:\n      mload(0x40)\n      dup1\n      swap2\n      sub\n      swap1\n      return\n        /* \"level0/solidity/ControlStructures.sol\":433:769  function testFor() public  pure returns(uint, uint){... */\n    tag_6:\n        /* \"level0/solidity/ControlStructures.sol\":473:477  uint */\n      0x00\n        /* \"level0/solidity/ControlStructures.sol\":479:483  uint */\n      dup1\n        /* \"level0/solidity/ControlStructures.sol\":494:507  uint sumOfOdd */\n      0x00\n        /* \"level0/solidity/ControlStructures.sol\":520:534  uint sumofEven */\n      dup1\n        /* \"level0/solidity/ControlStructures.sol\":553:559  uint i */\n      0x00\n        /* \"level0/solidity/ControlStructures.sol\":548:725  for (uint i=0; i < 10; i++){... */\n    tag_14:\n        /* \"level0/solidity/ControlStructures.sol\":567:569  10 */\n      0x0a\n        /* \"level0/solidity/ControlStructures.sol\":563:564  i */\n      dup2\n        /* \"level0/solidity/ControlStructures.sol\":563:569  i < 10 */\n      lt\n        /* \"level0/solidity/ControlStructures.sol\":548:725  for (uint i=0; i < 10; i++){... */\n      iszero\n      tag_15\n      jumpi\n        /* \"level0/solidity/ControlStructures.sol\":601:602  0 */\n      0x00\n        /* \"level0/solidity/ControlStructures.sol\":596:597  2 */\n      0x02\n        /* \"level0/solidity/ControlStructures.sol\":592:593  i */\n      dup3\n        /* \"level0/solidity/ControlStructures.sol\":592:597  i % 2 */\n      tag_17\n      swap2\n      swap1\n      tag_18\n      jump\t// in\n    tag_17:\n        /* \"level0/solidity/ControlStructures.sol\":592:602  i % 2 == 0 */\n      sub\n        /* \"level0/solidity/ControlStructures.sol\":589:715  if(i % 2 == 0){... */\n      tag_19\n      jumpi\n        /* \"level0/solidity/ControlStructures.sol\":634:635  i */\n      dup1\n        /* \"level0/solidity/ControlStructures.sol\":621:635  sumofEven += i */\n      dup3\n      tag_20\n      swap2\n      swap1\n      tag_21\n      jump\t// in\n    tag_20:\n      swap2\n      pop\n        /* \"level0/solidity/ControlStructures.sol\":589:715  if(i % 2 == 0){... */\n      jump(tag_22)\n    tag_19:\n        /* \"level0/solidity/ControlStructures.sol\":699:700  i */\n      dup1\n        /* \"level0/solidity/ControlStructures.sol\":688:700  sumOfOdd +=i */\n      dup4\n      tag_23\n      swap2\n      swap1\n      tag_21\n      jump\t// in\n    tag_23:\n      swap3\n      pop\n        /* \"level0/solidity/ControlStructures.sol\":589:715  if(i % 2 == 0){... */\n    tag_22:\n        /* \"level0/solidity/ControlStructures.sol\":571:574  i++ */\n      dup1\n      dup1\n      tag_24\n      swap1\n      tag_25\n      jump\t// in\n    tag_24:\n      swap2\n      pop\n      pop\n        /* \"level0/solidity/ControlStructures.sol\":548:725  for (uint i=0; i < 10; i++){... */\n      jump(tag_14)\n    tag_15:\n      pop\n        /* \"level0/solidity/ControlStructures.sol\":742:750  sumOfOdd */\n      dup2\n        /* \"level0/solidity/ControlStructures.sol\":752:761  sumofEven */\n      dup2\n        /* \"level0/solidity/ControlStructures.sol\":734:762  return (sumOfOdd, sumofEven) */\n      swap4\n      pop\n      swap4\n      pop\n      pop\n      pop\n        /* \"level0/solidity/ControlStructures.sol\":433:769  function testFor() public  pure returns(uint, uint){... */\n      swap1\n      swap2\n      jump\t// out\n        /* \"level0/solidity/ControlStructures.sol\":54:427  function testWhile() public  pure returns (uint){... */\n    tag_10:\n        /* \"level0/solidity/ControlStructures.sol\":97:101  uint */\n      0x00\n        /* \"level0/solidity/ControlStructures.sol\":113:119  uint i */\n      dup1\n        /* \"level0/solidity/ControlStructures.sol\":122:123  0 */\n      0x00\n        /* \"level0/solidity/ControlStructures.sol\":113:123  uint i = 0 */\n      swap1\n      pop\n        /* \"level0/solidity/ControlStructures.sol\":134:147  uint sumOfOdd */\n      0x00\n        /* \"level0/solidity/ControlStructures.sol\":162:395  while (true){... */\n    tag_27:\n        /* \"level0/solidity/ControlStructures.sol\":169:173  true */\n      0x01\n        /* \"level0/solidity/ControlStructures.sol\":162:395  while (true){... */\n      iszero\n      tag_28\n      jumpi\n        /* \"level0/solidity/ControlStructures.sol\":189:192  i++ */\n      dup2\n      dup1\n      tag_29\n      swap1\n      tag_25\n      jump\t// in\n    tag_29:\n      swap3\n      pop\n      pop\n        /* \"level0/solidity/ControlStructures.sol\":219:220  0 */\n      0x00\n        /* \"level0/solidity/ControlStructures.sol\":214:215  2 */\n      0x02\n        /* \"level0/solidity/ControlStructures.sol\":210:211  i */\n      dup4\n        /* \"level0/solidity/ControlStructures.sol\":210:215  i % 2 */\n      tag_30\n      swap2\n      swap1\n      tag_18\n      jump\t// in\n    tag_30:\n        /* \"level0/solidity/ControlStructures.sol\":210:220  i % 2 == 0 */\n      sub\n        /* \"level0/solidity/ControlStructures.sol\":207:278  if(i % 2 == 0){... */\n      iszero\n        /* \"level0/solidity/ControlStructures.sol\":239:247  continue */\n      tag_27\n        /* \"level0/solidity/ControlStructures.sol\":207:278  if(i % 2 == 0){... */\n      jumpi\n        /* \"level0/solidity/ControlStructures.sol\":299:301  10 */\n      0x0a\n        /* \"level0/solidity/ControlStructures.sol\":295:296  i */\n      dup3\n        /* \"level0/solidity/ControlStructures.sol\":295:301  i > 10 */\n      gt\n        /* \"level0/solidity/ControlStructures.sol\":321:326  break */\n      tag_28\n        /* \"level0/solidity/ControlStructures.sol\":292:343  if(i > 10 ){... */\n      jumpi\n        /* \"level0/solidity/ControlStructures.sol\":368:369  i */\n      dup2\n        /* \"level0/solidity/ControlStructures.sol\":357:369  sumOfOdd +=i */\n      dup2\n      tag_33\n      swap2\n      swap1\n      tag_21\n      jump\t// in\n    tag_33:\n      swap1\n      pop\n        /* \"level0/solidity/ControlStructures.sol\":162:395  while (true){... */\n      jump(tag_27)\n    tag_28:\n        /* \"level0/solidity/ControlStructures.sol\":412:420  sumOfOdd */\n      dup1\n        /* \"level0/solidity/ControlStructures.sol\":405:420  return sumOfOdd */\n      swap3\n      pop\n      pop\n      pop\n        /* \"level0/solidity/ControlStructures.sol\":54:427  function testWhile() public  pure returns (uint){... */\n      swap1\n      jump\t// out\n        /* \"#utility.yul\":7:84   */\n    tag_34:\n        /* \"#utility.yul\":44:51   */\n      0x00\n        /* \"#utility.yul\":73:78   */\n      dup2\n        /* \"#utility.yul\":62:78   */\n      swap1\n      pop\n        /* \"#utility.yul\":7:84   */\n      swap2\n      swap1\n      pop\n      jump\t// out\n        /* \"#utility.yul\":90:208   */\n    tag_35:\n        /* \"#utility.yul\":177:201   */\n      tag_41\n        /* \"#utility.yul\":195:200   */\n      dup2\n        /* \"#utility.yul\":177:201   */\n      tag_34\n      jump\t// in\n    tag_41:\n        /* \"#utility.yul\":172:175   */\n      dup3\n        /* \"#utility.yul\":165:202   */\n      mstore\n        /* \"#utility.yul\":90:208   */\n      pop\n      pop\n      jump\t// out\n        /* \"#utility.yul\":214:546   */\n    tag_8:\n        /* \"#utility.yul\":335:339   */\n      0x00\n        /* \"#utility.yul\":373:375   */\n      0x40\n        /* \"#utility.yul\":362:371   */\n      dup3\n        /* \"#utility.yul\":358:376   */\n      add\n        /* \"#utility.yul\":350:376   */\n      swap1\n      pop\n        /* \"#utility.yul\":386:457   */\n      tag_43\n        /* \"#utility.yul\":454:455   */\n      0x00\n        /* \"#utility.yul\":443:452   */\n      dup4\n        /* \"#utility.yul\":439:456   */\n      add\n        /* \"#utility.yul\":430:436   */\n      dup6\n        /* \"#utility.yul\":386:457   */\n      tag_35\n      jump\t// in\n    tag_43:\n        /* \"#utility.yul\":467:539   */\n      tag_44\n        /* \"#utility.yul\":535:537   */\n      0x20\n        /* \"#utility.yul\":524:533   */\n      dup4\n        /* \"#utility.yul\":520:538   */\n      add\n        /* \"#utility.yul\":511:517   */\n      dup5\n        /* \"#utility.yul\":467:539   */\n      tag_35\n      jump\t// in\n    tag_44:\n        /* \"#utility.yul\":214:546   */\n      swap4\n      swap3\n      pop\n      pop\n      pop\n      jump\t// out\n        /* \"#utility.yul\":552:774   */\n    tag_12:\n        /* \"#utility.yul\":645:649   */\n      0x00\n        /* \"#utility.yul\":683:685   */\n      0x20\n        /* \"#utility.yul\":672:681   */\n      dup3\n        /* \"#utility.yul\":668:686   */\n      add\n        /* \"#utility.yul\":660:686   */\n      swap1\n      pop\n        /* \"#utility.yul\":696:767   */\n      tag_46\n        /* \"#utility.yul\":764:765   */\n      0x00\n        /* \"#utility.yul\":753:762   */\n      dup4\n        /* \"#utility.yul\":749:766   */\n      add\n        /* \"#utility.yul\":740:746   */\n      dup5\n        /* \"#utility.yul\":696:767   */\n      tag_35\n      jump\t// in\n    tag_46:\n        /* \"#utility.yul\":552:774   */\n      swap3\n      swap2\n      pop\n      pop\n      jump\t// out\n        /* \"#utility.yul\":780:960   */\n    tag_36:\n        /* \"#utility.yul\":828:905   */\n      0x4e487b7100000000000000000000000000000000000000000000000000000000\n        /* \"#utility.yul\":825:826   */\n      0x00\n        /* \"#utility.yul\":818:906   */\n      mstore\n        /* \"#utility.yul\":925:929   */\n      0x12\n        /* \"#utility.yul\":922:923   */\n      0x04\n        /* \"#utility.yul\":915:930   */\n      mstore\n        /* \"#utility.yul\":949:953   */\n      0x24\n        /* \"#utility.yul\":946:947   */\n      0x00\n        /* \"#utility.yul\":939:954   */\n      revert\n        /* \"#utility.yul\":966:1142   */\n    tag_18:\n        /* \"#utility.yul\":998:999   */\n      0x00\n        /* \"#utility.yul\":1015:1035   */\n      tag_49\n        /* \"#utility.yul\":1033:1034   */\n      dup3\n        /* \"#utility.yul\":1015:1035   */\n      tag_34\n      jump\t// in\n    tag_49:\n        /* \"#utility.yul\":1010:1035   */\n      swap2\n      pop\n        /* \"#utility.yul\":1049:1069   */\n      tag_50\n        /* \"#utility.yul\":1067:1068   */\n      dup4\n        /* \"#utility.yul\":1049:1069   */\n      tag_34\n      jump\t// in\n    tag_50:\n        /* \"#utility.yul\":1044:1069   */\n      swap3\n      pop\n        /* \"#utility.yul\":1088:1089   */\n      dup3\n        /* \"#utility.yul\":1078:1113   */\n      tag_51\n      jumpi\n        /* \"#utility.yul\":1093:1111   */\n      tag_52\n      tag_36\n      jump\t// in\n    tag_52:\n        /* \"#utility.yul\":1078:1113   */\n    tag_51:\n        /* \"#utility.yul\":1134:1135   */\n      dup3\n        /* \"#utility.yul\":1131:1132   */\n      dup3\n        /* \"#utility.yul\":1127:1136   */\n      mod\n        /* \"#utility.yul\":1122:1136   */\n      swap1\n      pop\n        /* \"#utility.yul\":966:1142   */\n      swap3\n      swap2\n      pop\n      pop\n      jump\t// out\n        /* \"#utility.yul\":1148:1328   */\n    tag_37:\n        /* \"#utility.yul\":1196:1273   */\n      0x4e487b7100000000000000000000000000000000000000000000000000000000\n        /* \"#utility.yul\":1193:1194   */\n      0x00\n        /* \"#utility.yul\":1186:1274   */\n      mstore\n        /* \"#utility.yul\":1293:1297   */\n      0x11\n        /* \"#utility.yul\":1290:1291   */\n      0x04\n        /* \"#utility.yul\":1283:1298   */\n      mstore\n        /* \"#utility.yul\":1317:1321   */\n      0x24\n        /* \"#utility.yul\":1314:1315   */\n      0x00\n        /* \"#utility.yul\":1307:1322   */\n      revert\n        /* \"#utility.yul\":1334:1525   */\n    tag_21:\n        /* \"#utility.yul\":1374:1377   */\n      0x00\n        /* \"#utility.yul\":1393:1413   */\n      tag_55\n        /* \"#utility.yul\":1411:1412   */\n      dup3\n        /* \"#utility.yul\":1393:1413   */\n      tag_34\n      jump\t// in\n    tag_55:\n        /* \"#utility.yul\":1388:1413   */\n      swap2\n      pop\n        /* \"#utility.yul\":1427:1447   */\n      tag_56\n        /* \"#utility.yul\":1445:1446   */\n      dup4\n        /* \"#utility.yul\":1427:1447   */\n      tag_34\n      jump\t// in\n    tag_56:\n        /* \"#utility.yul\":1422:1447   */\n      swap3\n      pop\n        /* \"#utility.yul\":1470:1471   */\n      dup3\n        /* \"#utility.yul\":1467:1468   */\n      dup3\n        /* \"#utility.yul\":1463:1472   */\n      add\n        /* \"#utility.yul\":1456:1472   */\n      swap1\n      pop\n        /* \"#utility.yul\":1491:1494   */\n      dup1\n        /* \"#utility.yul\":1488:1489   */\n      dup3\n        /* \"#utility.yul\":1485:1495   */\n      gt\n        /* \"#utility.yul\":1482:1518   */\n      iszero\n      tag_57\n      jumpi\n        /* \"#utility.yul\":1498:1516   */\n      tag_58\n      tag_37\n      jump\t// in\n    tag_58:\n        /* \"#utility.yul\":1482:1518   */\n    tag_57:\n        /* \"#utility.yul\":1334:1525   */\n      swap3\n      swap2\n      pop\n      pop\n      jump\t// out\n        /* \"#utility.yul\":1531:1764   */\n    tag_25:\n        /* \"#utility.yul\":1570:1573   */\n      0x00\n        /* \"#utility.yul\":1593:1617   */\n      tag_60\n        /* \"#utility.yul\":1611:1616   */\n      dup3\n        /* \"#utility.yul\":1593:1617   */\n      tag_34\n      jump\t// in\n    tag_60:\n        /* \"#utility.yul\":1584:1617   */\n      swap2\n      pop\n        /* \"#utility.yul\":1639:1705   */\n      0xffffffffffffffffffffffffffffffffffffffffffffffffffffffffffffffff\n        /* \"#utility.yul\":1632:1637   */\n      dup3\n        /* \"#utility.yul\":1629:1706   */\n      sub\n        /* \"#utility.yul\":1626:1729   */\n      tag_61\n      jumpi\n        /* \"#utility.yul\":1709:1727   */\n      tag_62\n      tag_37\n      jump\t// in\n    tag_62:\n        /* \"#utility.yul\":1626:1729   */\n    tag_61:\n        /* \"#utility.yul\":1756:1757   */\n      0x01\n        /* \"#utility.yul\":1749:1754   */\n      dup3\n        /* \"#utility.yul\":1745:1758   */\n      add\n        /* \"#utility.yul\":1738:1758   */\n      swap1\n      pop\n        /* \"#utility.yul\":1531:1764   */\n      swap2\n      swap1\n      pop\n      jump\t// out\n\n    auxdata: 0xa264697066735822122000ff12b27fe86b5b60b3b28145abeb75a452e1e5413b323646c2b441d4adf18964736f6c63430008140033\n}\n",
				"bytecode": {
					"linkReferences": {},
					"object": "608060405234801561000f575f80fd5b506102be8061001d5f395ff3fe608060405234801561000f575f80fd5b5060043610610034575f3560e01c8063d65d8b1614610038578063f01ff72d14610057575b5f80fd5b610040610075565b60405161004e929190610144565b60405180910390f35b61005f6100d9565b60405161006c919061016b565b60405180910390f35b5f805f805f5b600a8110156100cc575f60028261009291906101b1565b036100aa5780826100a3919061020e565b91506100b9565b80836100b6919061020e565b92505b80806100c490610241565b91505061007b565b5081819350935050509091565b5f805f90505f5b6001156101245781806100f290610241565b9250505f60028361010391906101b1565b03156100e057600a821161012457818161011d919061020e565b90506100e0565b809250505090565b5f819050919050565b61013e8161012c565b82525050565b5f6040820190506101575f830185610135565b6101646020830184610135565b9392505050565b5f60208201905061017e5f830184610135565b92915050565b7f4e487b71000000000000000000000000000000000000000000000000000000005f52601260045260245ffd5b5f6101bb8261012c565b91506101c68361012c565b9250826101d6576101d5610184565b5b828206905092915050565b7f4e487b71000000000000000000000000000000000000000000000000000000005f52601160045260245ffd5b5f6102188261012c565b91506102238361012c565b925082820190508082111561023b5761023a6101e1565b5b92915050565b5f61024b8261012c565b91507fffffffffffffffffffffffffffffffffffffffffffffffffffffffffffffffff820361027d5761027c6101e1565b5b60018201905091905056fea264697066735822122000ff12b27fe86b5b60b3b28145abeb75a452e1e5413b323646c2b441d4adf18964736f6c63430008140033",
					"opcodes": "PUSH1 0x80 PUSH1 0x40 MSTORE CALLVALUE DUP1 ISZERO PUSH2 0xF JUMPI PUSH0 DUP1 REVERT JUMPDEST POP PUSH2 0x2BE DUP1 PUSH2 0x1D PUSH0 CODECOPY PUSH0 RETURN INVALID PUSH1 0x80 PUSH1 0x40 MSTORE CALLVALUE DUP1 ISZERO PUSH2 0xF JUMPI PUSH0 DUP1 REVERT JUMPDEST POP PUSH1 0x4 CALLDATASIZE LT PUSH2 0x34 JUMPI PUSH0 CALLDATALOAD PUSH1 0xE0 SHR DUP1 PUSH4 0xD65D8B16 EQ PUSH2 0x38 JUMPI DUP1 PUSH4 0xF01FF72D EQ PUSH2 0x57 JUMPI JUMPDEST PUSH0 DUP1 REVERT JUMPDEST PUSH2 0x40 PUSH2 0x75 JUMP JUMPDEST PUSH1 0x40 MLOAD PUSH2 0x4E SWAP3 SWAP2 SWAP1 PUSH2 0x144 JUMP JUMPDEST PUSH1 0x40 MLOAD DUP1 SWAP2 SUB SWAP1 RETURN JUMPDEST PUSH2 0x5F PUSH2 0xD9 JUMP JUMPDEST PUSH1 0x40 MLOAD PUSH2 0x6C SWAP2 SWAP1 PUSH2 0x16B JUMP JUMPDEST PUSH1 0x40 MLOAD DUP1 SWAP2 SUB SWAP1 RETURN JUMPDEST PUSH0 DUP1 PUSH0 DUP1 PUSH0 JUMPDEST PUSH1 0xA DUP2 LT ISZERO PUSH2 0xCC JUMPI PUSH0 PUSH1 0x2 DUP3 PUSH2 0x92 SWAP2 SWAP1 PUSH2 0x1B1 JUMP JUMPDEST SUB PUSH2 0xAA JUMPI DUP1 DUP3 PUSH2 0xA3 SWAP2 SWAP1 PUSH2 0x20E JUMP JUMPDEST SWAP2 POP PUSH2 0xB9 JUMP JUMPDEST DUP1 DUP4 PUSH2 0xB6 SWAP2 SWAP1 PUSH2 0x20E JUMP JUMPDEST SWAP3 POP JUMPDEST DUP1 DUP1 PUSH2 0xC4 SWAP1 PUSH2 0x241 JUMP JUMPDEST SWAP2 POP POP PUSH2 0x7B JUMP JUMPDEST POP DUP2 DUP2 SWAP4 POP SWAP4 POP POP POP SWAP1 SWAP2 JUMP JUMPDEST PUSH0 DUP1 PUSH0 SWAP1 POP PUSH0 JUMPDEST PUSH1 0x1 ISZERO PUSH2 0x124 JUMPI DUP2 DUP1 PUSH2 0xF2 SWAP1 PUSH2 0x241 JUMP JUMPDEST SWAP3 POP POP PUSH0 PUSH1 0x2 DUP4 PUSH2 0x103 SWAP2 SWAP1 PUSH2 0x1B1 JUMP JUMPDEST SUB ISZERO PUSH2 0xE0 JUMPI PUSH1 0xA DUP3 GT PUSH2 0x124 JUMPI DUP2 DUP2 PUSH2 0x11D SWAP2 SWAP1 PUSH2 0x20E JUMP JUMPDEST SWAP1 POP PUSH2 0xE0 JUMP JUMPDEST DUP1 SWAP3 POP POP POP SWAP1 JUMP JUMPDEST PUSH0 DUP2 SWAP1 POP SWAP2 SWAP1 POP JUMP JUMPDEST PUSH2 0x13E DUP2 PUSH2 0x12C JUMP JUMPDEST DUP3 MSTORE POP POP JUMP JUMPDEST PUSH0 PUSH1 0x40 DUP3 ADD SWAP1 POP PUSH2 0x157 PUSH0 DUP4 ADD DUP6 PUSH2 0x135 JUMP JUMPDEST PUSH2 0x164 PUSH1 0x20 DUP4 ADD DUP5 PUSH2 0x135 JUMP JUMPDEST SWAP4 SWAP3 POP POP POP JUMP JUMPDEST PUSH0 PUSH1 0x20 DUP3 ADD SWAP1 POP PUSH2 0x17E PUSH0 DUP4 ADD DUP5 PUSH2 0x135 JUMP JUMPDEST SWAP3 SWAP2 POP POP JUMP JUMPDEST PUSH32 0x4E487B7100000000000000000000000000000000000000000000000000000000 PUSH0 MSTORE PUSH1 0x12 PUSH1 0x4 MSTORE PUSH1 0x24 PUSH0 REVERT JUMPDEST PUSH0 PUSH2 0x1BB DUP3 PUSH2 0x12C JUMP JUMPDEST SWAP2 POP PUSH2 0x1C6 DUP4 PUSH2 0x12C JUMP JUMPDEST SWAP3 POP DUP3 PUSH2 0x1D6 JUMPI PUSH2 0x1D5 PUSH2 0x184 JUMP JUMPDEST JUMPDEST DUP3 DUP3 MOD SWAP1 POP SWAP3 SWAP2 POP POP JUMP JUMPDEST PUSH32 0x4E487B7100000000000000000000000000000000000000000000000000000000 PUSH0 MSTORE PUSH1 0x11 PUSH1 0x4 MSTORE PUSH1 0x24 PUSH0 REVERT JUMPDEST PUSH0 PUSH2 0x218 DUP3 PUSH2 0x12C JUMP JUMPDEST SWAP2 POP PUSH2 0x223 DUP4 PUSH2 0x12C JUMP JUMPDEST SWAP3 POP DUP3 DUP3 ADD SWAP1 POP DUP1 DUP3 GT ISZERO PUSH2 0x23B JUMPI PUSH2 0x23A PUSH2 0x1E1 JUMP JUMPDEST JUMPDEST SWAP3 SWAP2 POP POP JUMP JUMPDEST PUSH0 PUSH2 0x24B DUP3 PUSH2 0x12C JUMP JUMPDEST SWAP2 POP PUSH32 0xFFFFFFFFFFFFFFFFFFFFFFFFFFFFFFFFFFFFFFFFFFFFFFFFFFFFFFFFFFFFFFFF DUP3 SUB PUSH2 0x27D JUMPI PUSH2 0x27C PUSH2 0x1E1 JUMP JUMPDEST JUMPDEST PUSH1 0x1 DUP3 ADD SWAP1 POP SWAP2 SWAP1 POP JUMP INVALID LOG2 PUSH5 0x6970667358 0x22 SLT KECCAK256 STOP SELFDESTRUCT SLT 0xB2 PUSH32 0xE86B5B60B3B28145ABEB75A452E1E5413B323646C2B441D4ADF18964736F6C63 NUMBER STOP ADDMOD EQ STOP CALLER "
				},
				"gasEstimates": {
					"creation": {
						"codeDepositCost": "140400",
						"executionCost": "181",
						"totalCost": "140581"
					},
					"external": {
						"testFor()": "infinite",
						"testWhile()": "infinite"
					}
				},
				"methodIdentifiers": {
					"testFor()": "d65d8b16",
					"testWhile()": "f01ff72d"
				}
			},
			"storageLayout": {
				"storage": [],
				"types": null
			},
			"userdoc": {
				"kind": "user",
				"methods": {},
				"version": 1
			}
		}
	}
}