{
	"data": {
		"bytecode": {
			"linkReferences": {},
			"object": "608060405234801561000f575f80fd5b506101ea8061001d5f395ff3fe608060405234801561000f575f80fd5b5060043610610034575f3560e01c80632735acb714610038578063b3de648b14610068575b5f80fd5b610052600480360381019061004d9190610123565b610098565b60405161005f9190610170565b60405180910390f35b610082600480360381019061007d9190610189565b6100ae565b60405161008f9190610170565b60405180910390f35b5f816100a4575f6100a6565b825b905092915050565b5f819050919050565b5f80fd5b5f819050919050565b6100cd816100bb565b81146100d7575f80fd5b50565b5f813590506100e8816100c4565b92915050565b5f8115159050919050565b610102816100ee565b811461010c575f80fd5b50565b5f8135905061011d816100f9565b92915050565b5f8060408385031215610139576101386100b7565b5b5f610146858286016100da565b92505060206101578582860161010f565b9150509250929050565b61016a816100bb565b82525050565b5f6020820190506101835f830184610161565b92915050565b5f6020828403121561019e5761019d6100b7565b5b5f6101ab848285016100da565b9150509291505056fea2646970667358221220bd1bf942ba36b85232f5ee30ac0c2bd5e93fa8df7675d918432313b6977a7d6564736f6c63430008140033",
			"opcodes": "PUSH1 0x80 PUSH1 0x40 MSTORE CALLVALUE DUP1 ISZERO PUSH2 0xF JUMPI PUSH0 DUP1 REVERT JUMPDEST POP PUSH2 0x1EA DUP1 PUSH2 0x1D PUSH0 CODECOPY PUSH0 RETURN INVALID PUSH1 0x80 PUSH1 0x40 MSTORE CALLVALUE DUP1 ISZERO PUSH2 0xF JUMPI PUSH0 DUP1 REVERT JUMPDEST POP PUSH1 0x4 CALLDATASIZE LT PUSH2 0x34 JUMPI PUSH0 CALLDATALOAD PUSH1 0xE0 SHR DUP1 PUSH4 0x2735ACB7 EQ PUSH2 0x38 JUMPI DUP1 PUSH4 0xB3DE648B EQ PUSH2 0x68 JUMPI JUMPDEST PUSH0 DUP1 REVERT JUMPDEST PUSH2 0x52 PUSH1 0x4 DUP1 CALLDATASIZE SUB DUP2 ADD SWAP1 PUSH2 0x4D SWAP2 SWAP1 PUSH2 0x123 JUMP JUMPDEST PUSH2 0x98 JUMP JUMPDEST PUSH1 0x40 MLOAD PUSH2 0x5F SWAP2 SWAP1 PUSH2 0x170 JUMP JUMPDEST PUSH1 0x40 MLOAD DUP1 SWAP2 SUB SWAP1 RETURN JUMPDEST PUSH2 0x82 PUSH1 0x4 DUP1 CALLDATASIZE SUB DUP2 ADD SWAP1 PUSH2 0x7D SWAP2 SWAP1 PUSH2 0x189 JUMP JUMPDEST PUSH2 0xAE JUMP JUMPDEST PUSH1 0x40 MLOAD PUSH2 0x8F SWAP2 SWAP1 PUSH2 0x170 JUMP JUMPDEST PUSH1 0x40 MLOAD DUP1 SWAP2 SUB SWAP1 RETURN JUMPDEST PUSH0 DUP2 PUSH2 0xA4 JUMPI PUSH0 PUSH2 0xA6 JUMP JUMPDEST DUP3 JUMPDEST SWAP1 POP SWAP3 SWAP2 POP POP JUMP JUMPDEST PUSH0 DUP2 SWAP1 POP SWAP2 SWAP1 POP JUMP JUMPDEST PUSH0 DUP1 REVERT JUMPDEST PUSH0 DUP2 SWAP1 POP SWAP2 SWAP1 POP JUMP JUMPDEST PUSH2 0xCD DUP2 PUSH2 0xBB JUMP JUMPDEST DUP2 EQ PUSH2 0xD7 JUMPI PUSH0 DUP1 REVERT JUMPDEST POP JUMP JUMPDEST PUSH0 DUP2 CALLDATALOAD SWAP1 POP PUSH2 0xE8 DUP2 PUSH2 0xC4 JUMP JUMPDEST SWAP3 SWAP2 POP POP JUMP JUMPDEST PUSH0 DUP2 ISZERO ISZERO SWAP1 POP SWAP2 SWAP1 POP JUMP JUMPDEST PUSH2 0x102 DUP2 PUSH2 0xEE JUMP JUMPDEST DUP2 EQ PUSH2 0x10C JUMPI PUSH0 DUP1 REVERT JUMPDEST POP JUMP JUMPDEST PUSH0 DUP2 CALLDATALOAD SWAP1 POP PUSH2 0x11D DUP2 PUSH2 0xF9 JUMP JUMPDEST SWAP3 SWAP2 POP POP JUMP JUMPDEST PUSH0 DUP1 PUSH1 0x40 DUP4 DUP6 SUB SLT ISZERO PUSH2 0x139 JUMPI PUSH2 0x138 PUSH2 0xB7 JUMP JUMPDEST JUMPDEST PUSH0 PUSH2 0x146 DUP6 DUP3 DUP7 ADD PUSH2 0xDA JUMP JUMPDEST SWAP3 POP POP PUSH1 0x20 PUSH2 0x157 DUP6 DUP3 DUP7 ADD PUSH2 0x10F JUMP JUMPDEST SWAP2 POP POP SWAP3 POP SWAP3 SWAP1 POP JUMP JUMPDEST PUSH2 0x16A DUP2 PUSH2 0xBB JUMP JUMPDEST DUP3 MSTORE POP POP JUMP JUMPDEST PUSH0 PUSH1 0x20 DUP3 ADD SWAP1 POP PUSH2 0x183 PUSH0 DUP4 ADD DUP5 PUSH2 0x161 JUMP JUMPDEST SWAP3 SWAP2 POP POP JUMP JUMPDEST PUSH0 PUSH1 0x20 DUP3 DUP5 SUB SLT ISZERO PUSH2 0x19E JUMPI PUSH2 0x19D PUSH2 0xB7 JUMP JUMPDEST JUMPDEST PUSH0 PUSH2 0x1AB DUP5 DUP3 DUP6 ADD PUSH2 0xDA JUMP JUMPDEST SWAP2 POP POP SWAP3 SWAP2 POP POP JUMP INVALID LOG2 PUSH5 0x6970667358 0x22 SLT KECCAK256 0xBD SHL 0xF9 TIMESTAMP 0xBA CALLDATASIZE 0xB8 MSTORE ORIGIN CREATE2 0xEE ADDRESS 0xAC 0xC 0x2B 0xD5 0xE9 EXTCODEHASH 0xA8 0xDF PUSH23 0x75D918432313B6977A7D6564736F6C6343000814003300 "
		},
		"gasEstimates": {
			"creation": {
				"codeDepositCost": "98000",
				"executionCost": "145",
				"totalCost": "98145"
			},
			"external": {
				"f(uint256)": "infinite",
				"f(uint256,bool)": "infinite"
			}
		},
		"methodIdentifiers": {
			"f(uint256)": "b3de648b",
			"f(uint256,bool)": "2735acb7"
		}
	},
	"abi": [
		{
			"inputs": [
				{
					"internalType": "uint256",
					"name": "_in",
					"type": "uint256"
				},
				{
					"internalType": "bool",
					"name": "_flag",
					"type": "bool"
				}
			],
			"name": "f",
			"outputs": [
				{
					"internalType": "uint256",
					"name": "",
					"type": "uint256"
				}
			],
			"stateMutability": "pure",
			"type": "function"
		},
		{
			"inputs": [
				{
					"internalType": "uint256",
					"name": "_in",
					"type": "uint256"
				}
			],
			"name": "f",
			"outputs": [
				{
					"internalType": "uint256",
					"name": "",
					"type": "uint256"
				}
			],
			"stateMutability": "pure",
			"type": "function"
		}
	]
}