{
	"level0/solidity_basic/Enum.sol": {
		"Enum": {
			"abi": [
				{
					"inputs": [],
					"name": "cancel",
					"outputs": [],
					"stateMutability": "nonpayable",
					"type": "function"
				},
				{
					"inputs": [],
					"name": "get",
					"outputs": [
						{
							"internalType": "enum Enum.Status",
							"name": "",
							"type": "uint8"
						}
					],
					"stateMutability": "view",
					"type": "function"
				},
				{
					"inputs": [],
					"name": "reset",
					"outputs": [],
					"stateMutability": "nonpayable",
					"type": "function"
				},
				{
					"inputs": [
						{
							"internalType": "enum Enum.Status",
							"name": "_status",
							"type": "uint8"
						}
					],
					"name": "set",
					"outputs": [],
					"stateMutability": "nonpayable",
					"type": "function"
				},
				{
					"inputs": [],
					"name": "status",
					"outputs": [
						{
							"internalType": "enum Enum.Status",
							"name": "",
							"type": "uint8"
						}
					],
					"stateMutability": "view",
					"type": "function"
				}
			],
			"devdoc": {
				"kind": "dev",
				"methods": {},
				"version": 1
			},
			"evm": {
				"assembly": "    /* \"level0/solidity_basic/Enum.sol\":208:1071  contract Enum {... */\n  mstore(0x40, 0x80)\n  callvalue\n  dup1\n  iszero\n  tag_1\n  jumpi\n  0x00\n  dup1\n  revert\ntag_1:\n  pop\n  dataSize(sub_0)\n  dup1\n  dataOffset(sub_0)\n  0x00\n  codecopy\n  0x00\n  return\nstop\n\nsub_0: assembly {\n        /* \"level0/solidity_basic/Enum.sol\":208:1071  contract Enum {... */\n      mstore(0x40, 0x80)\n      callvalue\n      dup1\n      iszero\n      tag_1\n      jumpi\n      0x00\n      dup1\n      revert\n    tag_1:\n      pop\n      jumpi(tag_2, lt(calldatasize, 0x04))\n      shr(0xe0, calldataload(0x00))\n      dup1\n      0x200d2ed2\n      eq\n      tag_3\n      jumpi\n      dup1\n      0x24b8ba5f\n      eq\n      tag_4\n      jumpi\n      dup1\n      0x6d4ce63c\n      eq\n      tag_5\n      jumpi\n      dup1\n      0xd826f88f\n      eq\n      tag_6\n      jumpi\n      dup1\n      0xea8a1af0\n      eq\n      tag_7\n      jumpi\n    tag_2:\n      0x00\n      dup1\n      revert\n        /* \"level0/solidity_basic/Enum.sol\":487:507  Status public status */\n    tag_3:\n      tag_8\n      tag_9\n      jump\t// in\n    tag_8:\n      mload(0x40)\n      tag_10\n      swap2\n      swap1\n      tag_11\n      jump\t// in\n    tag_10:\n      mload(0x40)\n      dup1\n      swap2\n      sub\n      swap1\n      return\n        /* \"level0/solidity_basic/Enum.sol\":762:831  function set(Status _status) public {... */\n    tag_4:\n      tag_12\n      0x04\n      dup1\n      calldatasize\n      sub\n      dup2\n      add\n      swap1\n      tag_13\n      swap2\n      swap1\n      tag_14\n      jump\t// in\n    tag_13:\n      tag_15\n      jump\t// in\n    tag_12:\n      stop\n        /* \"level0/solidity_basic/Enum.sol\":634:708  function get() public view returns (Status) {... */\n    tag_5:\n      tag_16\n      tag_17\n      jump\t// in\n    tag_16:\n      mload(0x40)\n      tag_18\n      swap2\n      swap1\n      tag_11\n      jump\t// in\n    tag_18:\n      mload(0x40)\n      dup1\n      swap2\n      sub\n      swap1\n      return\n        /* \"level0/solidity_basic/Enum.sol\":1012:1066  function reset() public {... */\n    tag_6:\n      tag_19\n      tag_20\n      jump\t// in\n    tag_19:\n      stop\n        /* \"level0/solidity_basic/Enum.sol\":888:954  function cancel() public {... */\n    tag_7:\n      tag_21\n      tag_22\n      jump\t// in\n    tag_21:\n      stop\n        /* \"level0/solidity_basic/Enum.sol\":487:507  Status public status */\n    tag_9:\n      0x00\n      dup1\n      sload\n      swap1\n      0x0100\n      exp\n      swap1\n      div\n      0xff\n      and\n      dup2\n      jump\t// out\n        /* \"level0/solidity_basic/Enum.sol\":762:831  function set(Status _status) public {... */\n    tag_15:\n        /* \"level0/solidity_basic/Enum.sol\":817:824  _status */\n      dup1\n        /* \"level0/solidity_basic/Enum.sol\":808:814  status */\n      0x00\n      dup1\n        /* \"level0/solidity_basic/Enum.sol\":808:824  status = _status */\n      0x0100\n      exp\n      dup2\n      sload\n      dup2\n      0xff\n      mul\n      not\n      and\n      swap1\n      dup4\n      0x04\n      dup2\n      gt\n      iszero\n      tag_24\n      jumpi\n      tag_25\n      tag_26\n      jump\t// in\n    tag_25:\n    tag_24:\n      mul\n      or\n      swap1\n      sstore\n      pop\n        /* \"level0/solidity_basic/Enum.sol\":762:831  function set(Status _status) public {... */\n      pop\n      jump\t// out\n        /* \"level0/solidity_basic/Enum.sol\":634:708  function get() public view returns (Status) {... */\n    tag_17:\n        /* \"level0/solidity_basic/Enum.sol\":670:676  Status */\n      0x00\n        /* \"level0/solidity_basic/Enum.sol\":695:701  status */\n      dup1\n      0x00\n      swap1\n      sload\n      swap1\n      0x0100\n      exp\n      swap1\n      div\n      0xff\n      and\n        /* \"level0/solidity_basic/Enum.sol\":688:701  return status */\n      swap1\n      pop\n        /* \"level0/solidity_basic/Enum.sol\":634:708  function get() public view returns (Status) {... */\n      swap1\n      jump\t// out\n        /* \"level0/solidity_basic/Enum.sol\":1012:1066  function reset() public {... */\n    tag_20:\n        /* \"level0/solidity_basic/Enum.sol\":1053:1059  status */\n      0x00\n      dup1\n        /* \"level0/solidity_basic/Enum.sol\":1046:1059  delete status */\n      0x0100\n      exp\n      dup2\n      sload\n      swap1\n      0xff\n      mul\n      not\n      and\n      swap1\n      sstore\n        /* \"level0/solidity_basic/Enum.sol\":1012:1066  function reset() public {... */\n      jump\t// out\n        /* \"level0/solidity_basic/Enum.sol\":888:954  function cancel() public {... */\n    tag_22:\n        /* \"level0/solidity_basic/Enum.sol\":932:947  Status.Canceled */\n      0x04\n        /* \"level0/solidity_basic/Enum.sol\":923:929  status */\n      0x00\n      dup1\n        /* \"level0/solidity_basic/Enum.sol\":923:947  status = Status.Canceled */\n      0x0100\n      exp\n      dup2\n      sload\n      dup2\n      0xff\n      mul\n      not\n      and\n      swap1\n      dup4\n      0x04\n      dup2\n      gt\n      iszero\n      tag_30\n      jumpi\n      tag_31\n      tag_26\n      jump\t// in\n    tag_31:\n    tag_30:\n      mul\n      or\n      swap1\n      sstore\n      pop\n        /* \"level0/solidity_basic/Enum.sol\":888:954  function cancel() public {... */\n      jump\t// out\n        /* \"#utility.yul\":7:187   */\n    tag_26:\n        /* \"#utility.yul\":55:132   */\n      0x4e487b7100000000000000000000000000000000000000000000000000000000\n        /* \"#utility.yul\":52:53   */\n      0x00\n        /* \"#utility.yul\":45:133   */\n      mstore\n        /* \"#utility.yul\":152:156   */\n      0x21\n        /* \"#utility.yul\":149:150   */\n      0x04\n        /* \"#utility.yul\":142:157   */\n      mstore\n        /* \"#utility.yul\":176:180   */\n      0x24\n        /* \"#utility.yul\":173:174   */\n      0x00\n        /* \"#utility.yul\":166:181   */\n      revert\n        /* \"#utility.yul\":193:306   */\n    tag_32:\n        /* \"#utility.yul\":274:275   */\n      0x05\n        /* \"#utility.yul\":267:272   */\n      dup2\n        /* \"#utility.yul\":264:276   */\n      lt\n        /* \"#utility.yul\":254:300   */\n      tag_44\n      jumpi\n        /* \"#utility.yul\":280:298   */\n      tag_45\n      tag_26\n      jump\t// in\n    tag_45:\n        /* \"#utility.yul\":254:300   */\n    tag_44:\n        /* \"#utility.yul\":193:306   */\n      pop\n      jump\t// out\n        /* \"#utility.yul\":312:439   */\n    tag_33:\n        /* \"#utility.yul\":357:364   */\n      0x00\n        /* \"#utility.yul\":386:391   */\n      dup2\n        /* \"#utility.yul\":375:391   */\n      swap1\n      pop\n        /* \"#utility.yul\":392:433   */\n      tag_47\n        /* \"#utility.yul\":427:432   */\n      dup3\n        /* \"#utility.yul\":392:433   */\n      tag_32\n      jump\t// in\n    tag_47:\n        /* \"#utility.yul\":312:439   */\n      swap2\n      swap1\n      pop\n      jump\t// out\n        /* \"#utility.yul\":445:572   */\n    tag_34:\n        /* \"#utility.yul\":501:510   */\n      0x00\n        /* \"#utility.yul\":534:566   */\n      tag_49\n        /* \"#utility.yul\":560:565   */\n      dup3\n        /* \"#utility.yul\":534:566   */\n      tag_33\n      jump\t// in\n    tag_49:\n        /* \"#utility.yul\":521:566   */\n      swap1\n      pop\n        /* \"#utility.yul\":445:572   */\n      swap2\n      swap1\n      pop\n      jump\t// out\n        /* \"#utility.yul\":578:721   */\n    tag_35:\n        /* \"#utility.yul\":671:714   */\n      tag_51\n        /* \"#utility.yul\":708:713   */\n      dup2\n        /* \"#utility.yul\":671:714   */\n      tag_34\n      jump\t// in\n    tag_51:\n        /* \"#utility.yul\":666:669   */\n      dup3\n        /* \"#utility.yul\":659:715   */\n      mstore\n        /* \"#utility.yul\":578:721   */\n      pop\n      pop\n      jump\t// out\n        /* \"#utility.yul\":727:961   */\n    tag_11:\n        /* \"#utility.yul\":826:830   */\n      0x00\n        /* \"#utility.yul\":864:866   */\n      0x20\n        /* \"#utility.yul\":853:862   */\n      dup3\n        /* \"#utility.yul\":849:867   */\n      add\n        /* \"#utility.yul\":841:867   */\n      swap1\n      pop\n        /* \"#utility.yul\":877:954   */\n      tag_53\n        /* \"#utility.yul\":951:952   */\n      0x00\n        /* \"#utility.yul\":940:949   */\n      dup4\n        /* \"#utility.yul\":936:953   */\n      add\n        /* \"#utility.yul\":927:933   */\n      dup5\n        /* \"#utility.yul\":877:954   */\n      tag_35\n      jump\t// in\n    tag_53:\n        /* \"#utility.yul\":727:961   */\n      swap3\n      swap2\n      pop\n      pop\n      jump\t// out\n        /* \"#utility.yul\":1048:1165   */\n    tag_37:\n        /* \"#utility.yul\":1157:1158   */\n      0x00\n        /* \"#utility.yul\":1154:1155   */\n      dup1\n        /* \"#utility.yul\":1147:1159   */\n      revert\n        /* \"#utility.yul\":1294:1401   */\n    tag_39:\n        /* \"#utility.yul\":1375:1376   */\n      0x05\n        /* \"#utility.yul\":1368:1373   */\n      dup2\n        /* \"#utility.yul\":1365:1377   */\n      lt\n        /* \"#utility.yul\":1355:1395   */\n      tag_58\n      jumpi\n        /* \"#utility.yul\":1391:1392   */\n      0x00\n        /* \"#utility.yul\":1388:1389   */\n      dup1\n        /* \"#utility.yul\":1381:1393   */\n      revert\n        /* \"#utility.yul\":1355:1395   */\n    tag_58:\n        /* \"#utility.yul\":1294:1401   */\n      pop\n      jump\t// out\n        /* \"#utility.yul\":1407:1562   */\n    tag_40:\n        /* \"#utility.yul\":1461:1466   */\n      0x00\n        /* \"#utility.yul\":1499:1505   */\n      dup2\n        /* \"#utility.yul\":1486:1506   */\n      calldataload\n        /* \"#utility.yul\":1477:1506   */\n      swap1\n      pop\n        /* \"#utility.yul\":1515:1556   */\n      tag_60\n        /* \"#utility.yul\":1550:1555   */\n      dup2\n        /* \"#utility.yul\":1515:1556   */\n      tag_39\n      jump\t// in\n    tag_60:\n        /* \"#utility.yul\":1407:1562   */\n      swap3\n      swap2\n      pop\n      pop\n      jump\t// out\n        /* \"#utility.yul\":1568:1913   */\n    tag_14:\n        /* \"#utility.yul\":1635:1641   */\n      0x00\n        /* \"#utility.yul\":1684:1686   */\n      0x20\n        /* \"#utility.yul\":1672:1681   */\n      dup3\n        /* \"#utility.yul\":1663:1670   */\n      dup5\n        /* \"#utility.yul\":1659:1682   */\n      sub\n        /* \"#utility.yul\":1655:1687   */\n      slt\n        /* \"#utility.yul\":1652:1771   */\n      iszero\n      tag_62\n      jumpi\n        /* \"#utility.yul\":1690:1769   */\n      tag_63\n      tag_37\n      jump\t// in\n    tag_63:\n        /* \"#utility.yul\":1652:1771   */\n    tag_62:\n        /* \"#utility.yul\":1810:1811   */\n      0x00\n        /* \"#utility.yul\":1835:1896   */\n      tag_64\n        /* \"#utility.yul\":1888:1895   */\n      dup5\n        /* \"#utility.yul\":1879:1885   */\n      dup3\n        /* \"#utility.yul\":1868:1877   */\n      dup6\n        /* \"#utility.yul\":1864:1886   */\n      add\n        /* \"#utility.yul\":1835:1896   */\n      tag_40\n      jump\t// in\n    tag_64:\n        /* \"#utility.yul\":1825:1896   */\n      swap2\n      pop\n        /* \"#utility.yul\":1781:1906   */\n      pop\n        /* \"#utility.yul\":1568:1913   */\n      swap3\n      swap2\n      pop\n      pop\n      jump\t// out\n\n    auxdata: 0xa2646970667358221220d45912da90f60c6ca270c523a52d66964cf6831f6875ae9f146ca54c57c45ed764736f6c63430008140033\n}\n",
				"bytecode": {
					"linkReferences": {},
					"object": "608060405234801561000f575f80fd5b506102658061001d5f395ff3fe608060405234801561000f575f80fd5b5060043610610055575f3560e01c8063200d2ed21461005957806324b8ba5f146100775780636d4ce63c14610093578063d826f88f146100b1578063ea8a1af0146100bb575b5f80fd5b6100616100c5565b60405161006e91906101c4565b60405180910390f35b610091600480360381019061008c9190610204565b6100d5565b005b61009b610100565b6040516100a891906101c4565b60405180910390f35b6100b9610114565b005b6100c3610126565b005b5f8054906101000a900460ff1681565b805f806101000a81548160ff021916908360048111156100f8576100f7610151565b5b021790555050565b5f805f9054906101000a900460ff16905090565b5f806101000a81549060ff0219169055565b60045f806101000a81548160ff0219169083600481111561014a57610149610151565b5b0217905550565b7f4e487b71000000000000000000000000000000000000000000000000000000005f52602160045260245ffd5b6005811061018f5761018e610151565b5b50565b5f81905061019f8261017e565b919050565b5f6101ae82610192565b9050919050565b6101be816101a4565b82525050565b5f6020820190506101d75f8301846101b5565b92915050565b5f80fd5b600581106101ed575f80fd5b50565b5f813590506101fe816101e1565b92915050565b5f60208284031215610219576102186101dd565b5b5f610226848285016101f0565b9150509291505056fea2646970667358221220d45912da90f60c6ca270c523a52d66964cf6831f6875ae9f146ca54c57c45ed764736f6c63430008140033",
					"opcodes": "PUSH1 0x80 PUSH1 0x40 MSTORE CALLVALUE DUP1 ISZERO PUSH2 0xF JUMPI PUSH0 DUP1 REVERT JUMPDEST POP PUSH2 0x265 DUP1 PUSH2 0x1D PUSH0 CODECOPY PUSH0 RETURN INVALID PUSH1 0x80 PUSH1 0x40 MSTORE CALLVALUE DUP1 ISZERO PUSH2 0xF JUMPI PUSH0 DUP1 REVERT JUMPDEST POP PUSH1 0x4 CALLDATASIZE LT PUSH2 0x55 JUMPI PUSH0 CALLDATALOAD PUSH1 0xE0 SHR DUP1 PUSH4 0x200D2ED2 EQ PUSH2 0x59 JUMPI DUP1 PUSH4 0x24B8BA5F EQ PUSH2 0x77 JUMPI DUP1 PUSH4 0x6D4CE63C EQ PUSH2 0x93 JUMPI DUP1 PUSH4 0xD826F88F EQ PUSH2 0xB1 JUMPI DUP1 PUSH4 0xEA8A1AF0 EQ PUSH2 0xBB JUMPI JUMPDEST PUSH0 DUP1 REVERT JUMPDEST PUSH2 0x61 PUSH2 0xC5 JUMP JUMPDEST PUSH1 0x40 MLOAD PUSH2 0x6E SWAP2 SWAP1 PUSH2 0x1C4 JUMP JUMPDEST PUSH1 0x40 MLOAD DUP1 SWAP2 SUB SWAP1 RETURN JUMPDEST PUSH2 0x91 PUSH1 0x4 DUP1 CALLDATASIZE SUB DUP2 ADD SWAP1 PUSH2 0x8C SWAP2 SWAP1 PUSH2 0x204 JUMP JUMPDEST PUSH2 0xD5 JUMP JUMPDEST STOP JUMPDEST PUSH2 0x9B PUSH2 0x100 JUMP JUMPDEST PUSH1 0x40 MLOAD PUSH2 0xA8 SWAP2 SWAP1 PUSH2 0x1C4 JUMP JUMPDEST PUSH1 0x40 MLOAD DUP1 SWAP2 SUB SWAP1 RETURN JUMPDEST PUSH2 0xB9 PUSH2 0x114 JUMP JUMPDEST STOP JUMPDEST PUSH2 0xC3 PUSH2 0x126 JUMP JUMPDEST STOP JUMPDEST PUSH0 DUP1 SLOAD SWAP1 PUSH2 0x100 EXP SWAP1 DIV PUSH1 0xFF AND DUP2 JUMP JUMPDEST DUP1 PUSH0 DUP1 PUSH2 0x100 EXP DUP2 SLOAD DUP2 PUSH1 0xFF MUL NOT AND SWAP1 DUP4 PUSH1 0x4 DUP2 GT ISZERO PUSH2 0xF8 JUMPI PUSH2 0xF7 PUSH2 0x151 JUMP JUMPDEST JUMPDEST MUL OR SWAP1 SSTORE POP POP JUMP JUMPDEST PUSH0 DUP1 PUSH0 SWAP1 SLOAD SWAP1 PUSH2 0x100 EXP SWAP1 DIV PUSH1 0xFF AND SWAP1 POP SWAP1 JUMP JUMPDEST PUSH0 DUP1 PUSH2 0x100 EXP DUP2 SLOAD SWAP1 PUSH1 0xFF MUL NOT AND SWAP1 SSTORE JUMP JUMPDEST PUSH1 0x4 PUSH0 DUP1 PUSH2 0x100 EXP DUP2 SLOAD DUP2 PUSH1 0xFF MUL NOT AND SWAP1 DUP4 PUSH1 0x4 DUP2 GT ISZERO PUSH2 0x14A JUMPI PUSH2 0x149 PUSH2 0x151 JUMP JUMPDEST JUMPDEST MUL OR SWAP1 SSTORE POP JUMP JUMPDEST PUSH32 0x4E487B7100000000000000000000000000000000000000000000000000000000 PUSH0 MSTORE PUSH1 0x21 PUSH1 0x4 MSTORE PUSH1 0x24 PUSH0 REVERT JUMPDEST PUSH1 0x5 DUP2 LT PUSH2 0x18F JUMPI PUSH2 0x18E PUSH2 0x151 JUMP JUMPDEST JUMPDEST POP JUMP JUMPDEST PUSH0 DUP2 SWAP1 POP PUSH2 0x19F DUP3 PUSH2 0x17E JUMP JUMPDEST SWAP2 SWAP1 POP JUMP JUMPDEST PUSH0 PUSH2 0x1AE DUP3 PUSH2 0x192 JUMP JUMPDEST SWAP1 POP SWAP2 SWAP1 POP JUMP JUMPDEST PUSH2 0x1BE DUP2 PUSH2 0x1A4 JUMP JUMPDEST DUP3 MSTORE POP POP JUMP JUMPDEST PUSH0 PUSH1 0x20 DUP3 ADD SWAP1 POP PUSH2 0x1D7 PUSH0 DUP4 ADD DUP5 PUSH2 0x1B5 JUMP JUMPDEST SWAP3 SWAP2 POP POP JUMP JUMPDEST PUSH0 DUP1 REVERT JUMPDEST PUSH1 0x5 DUP2 LT PUSH2 0x1ED JUMPI PUSH0 DUP1 REVERT JUMPDEST POP JUMP JUMPDEST PUSH0 DUP2 CALLDATALOAD SWAP1 POP PUSH2 0x1FE DUP2 PUSH2 0x1E1 JUMP JUMPDEST SWAP3 SWAP2 POP POP JUMP JUMPDEST PUSH0 PUSH1 0x20 DUP3 DUP5 SUB SLT ISZERO PUSH2 0x219 JUMPI PUSH2 0x218 PUSH2 0x1DD JUMP JUMPDEST JUMPDEST PUSH0 PUSH2 0x226 DUP5 DUP3 DUP6 ADD PUSH2 0x1F0 JUMP JUMPDEST SWAP2 POP POP SWAP3 SWAP2 POP POP JUMP INVALID LOG2 PUSH5 0x6970667358 0x22 SLT KECCAK256 0xD4 MSIZE SLT 0xDA SWAP1 0xF6 0xC PUSH13 0xA270C523A52D66964CF6831F68 PUSH22 0xAE9F146CA54C57C45ED764736F6C6343000814003300 "
				},
				"gasEstimates": {
					"creation": {
						"codeDepositCost": "122600",
						"executionCost": "169",
						"totalCost": "122769"
					},
					"external": {
						"cancel()": "24495",
						"get()": "2583",
						"reset()": "24428",
						"set(uint8)": "24645",
						"status()": "2529"
					}
				},
				"methodIdentifiers": {
					"cancel()": "ea8a1af0",
					"get()": "6d4ce63c",
					"reset()": "d826f88f",
					"set(uint8)": "24b8ba5f",
					"status()": "200d2ed2"
				}
			},
			"storageLayout": {
				"storage": [
					{
						"astId": 11,
						"contract": "level0/solidity_basic/Enum.sol:Enum",
						"label": "status",
						"offset": 0,
						"slot": "0",
						"type": "t_enum(Status)8"
					}
				],
				"types": {
					"t_enum(Status)8": {
						"encoding": "inplace",
						"label": "enum Enum.Status",
						"numberOfBytes": "1"
					}
				}
			},
			"userdoc": {
				"kind": "user",
				"methods": {},
				"notice": "Enum Solidity supports enumerables and they are useful to model choice and keep track of state. Enums can be declared outside of a contract.",
				"version": 1
			}
		}
	}
}