{
	"level0/solidity_basic/TryCatchExample1.sol": {
		"TryCatchExample": {
			"abi": [
				{
					"inputs": [],
					"stateMutability": "nonpayable",
					"type": "constructor"
				},
				{
					"inputs": [],
					"name": "tryCatchTest",
					"outputs": [
						{
							"internalType": "uint256",
							"name": "",
							"type": "uint256"
						},
						{
							"internalType": "string",
							"name": "",
							"type": "string"
						}
					],
					"stateMutability": "view",
					"type": "function"
				},
				{
					"inputs": [],
					"name": "tryCatchWithRevert",
					"outputs": [
						{
							"internalType": "string",
							"name": "",
							"type": "string"
						}
					],
					"stateMutability": "view",
					"type": "function"
				}
			],
			"devdoc": {
				"kind": "dev",
				"methods": {},
				"version": 1
			},
			"evm": {
				"assembly": "    /* \"level0/solidity_basic/TryCatchExample1.sol\":260:956  contract TryCatchExample{... */\n  mstore(0x40, 0x80)\n    /* \"level0/solidity_basic/TryCatchExample1.sol\":330:401  constructor(){... */\n  callvalue\n  dup1\n  iszero\n  tag_1\n  jumpi\n  0x00\n  dup1\n  revert\ntag_1:\n  pop\n    /* \"level0/solidity_basic/TryCatchExample1.sol\":372:394  new ExternalContract() */\n  mload(0x40)\n  tag_4\n  swap1\n  tag_5\n  jump\t// in\ntag_4:\n  mload(0x40)\n  dup1\n  swap2\n  sub\n  swap1\n  0x00\n  create\n  dup1\n  iszero\n  dup1\n  iszero\n  tag_6\n  jumpi\n  returndatasize\n  0x00\n  dup1\n  returndatacopy\n  revert(0x00, returndatasize)\ntag_6:\n  pop\n    /* \"level0/solidity_basic/TryCatchExample1.sol\":353:369  externalContract */\n  0x00\n  dup1\n    /* \"level0/solidity_basic/TryCatchExample1.sol\":353:394  externalContract = new ExternalContract() */\n  0x0100\n  exp\n  dup2\n  sload\n  dup2\n  0xffffffffffffffffffffffffffffffffffffffff\n  mul\n  not\n  and\n  swap1\n  dup4\n  0xffffffffffffffffffffffffffffffffffffffff\n  and\n  mul\n  or\n  swap1\n  sstore\n  pop\n    /* \"level0/solidity_basic/TryCatchExample1.sol\":260:956  contract TryCatchExample{... */\n  jump(tag_7)\ntag_5:\n  dataSize(sub_1)\n  dup1\n  dataOffset(sub_1)\n  dup4\n  codecopy\n  add\n  swap1\n  jump\t// out\ntag_7:\n  dataSize(sub_0)\n  dup1\n  dataOffset(sub_0)\n  0x00\n  codecopy\n  0x00\n  return\nstop\n\nsub_0: assembly {\n        /* \"level0/solidity_basic/TryCatchExample1.sol\":260:956  contract TryCatchExample{... */\n      mstore(0x40, 0x80)\n      callvalue\n      dup1\n      iszero\n      tag_1\n      jumpi\n      0x00\n      dup1\n      revert\n    tag_1:\n      pop\n      jumpi(tag_2, lt(calldatasize, 0x04))\n      shr(0xe0, calldataload(0x00))\n      dup1\n      0x9bf5863b\n      eq\n      tag_3\n      jumpi\n      dup1\n      0xd0e20648\n      eq\n      tag_4\n      jumpi\n    tag_2:\n      0x00\n      dup1\n      revert\n        /* \"level0/solidity_basic/TryCatchExample1.sol\":407:653  function tryCatchTest() public view returns (uint, string memory) {... */\n    tag_3:\n      tag_5\n      tag_6\n      jump\t// in\n    tag_5:\n      mload(0x40)\n      tag_7\n      swap3\n      swap2\n      swap1\n      tag_8\n      jump\t// in\n    tag_7:\n      mload(0x40)\n      dup1\n      swap2\n      sub\n      swap1\n      return\n        /* \"level0/solidity_basic/TryCatchExample1.sol\":659:954  function tryCatchWithRevert() public view returns (string memory) {... */\n    tag_4:\n      tag_9\n      tag_10\n      jump\t// in\n    tag_9:\n      mload(0x40)\n      tag_11\n      swap2\n      swap1\n      tag_12\n      jump\t// in\n    tag_11:\n      mload(0x40)\n      dup1\n      swap2\n      sub\n      swap1\n      return\n        /* \"level0/solidity_basic/TryCatchExample1.sol\":407:653  function tryCatchTest() public view returns (uint, string memory) {... */\n    tag_6:\n        /* \"level0/solidity_basic/TryCatchExample1.sol\":452:456  uint */\n      0x00\n        /* \"level0/solidity_basic/TryCatchExample1.sol\":458:471  string memory */\n      0x60\n        /* \"level0/solidity_basic/TryCatchExample1.sol\":488:504  externalContract */\n      0x00\n      dup1\n      sload\n      swap1\n      0x0100\n      exp\n      swap1\n      div\n      0xffffffffffffffffffffffffffffffffffffffff\n      and\n        /* \"level0/solidity_basic/TryCatchExample1.sol\":488:513  externalContract.getValue */\n      0xffffffffffffffffffffffffffffffffffffffff\n      and\n      0x20965255\n        /* \"level0/solidity_basic/TryCatchExample1.sol\":488:515  externalContract.getValue() */\n      mload(0x40)\n      dup2\n      0xffffffff\n      and\n      0xe0\n      shl\n      dup2\n      mstore\n      0x04\n      add\n      0x20\n      mload(0x40)\n      dup1\n      dup4\n      sub\n      dup2\n      dup7\n      gas\n      staticcall\n      swap3\n      pop\n      pop\n      pop\n      dup1\n      iszero\n      tag_14\n      jumpi\n      pop\n      mload(0x40)\n      returndatasize\n      not(0x1f)\n      0x1f\n      dup3\n      add\n      and\n      dup3\n      add\n      dup1\n      0x40\n      mstore\n      pop\n      dup2\n      add\n      swap1\n      tag_15\n      swap2\n      swap1\n      tag_16\n      jump\t// in\n    tag_15:\n      0x01\n    tag_14:\n        /* \"level0/solidity_basic/TryCatchExample1.sol\":484:646  try externalContract.getValue() returns (uint value){... */\n      tag_17\n      jumpi\n        /* \"level0/solidity_basic/TryCatchExample1.sol\":622:623  0 */\n      0x00\n        /* \"level0/solidity_basic/TryCatchExample1.sol\":614:634  return (0, \"Failed\") */\n      mload(0x40)\n      dup1\n      0x40\n      add\n      0x40\n      mstore\n      dup1\n      0x06\n      dup2\n      mstore\n      0x20\n      add\n      0x4661696c65640000000000000000000000000000000000000000000000000000\n      dup2\n      mstore\n      pop\n      swap2\n      pop\n      swap2\n      pop\n      jump(tag_13)\n        /* \"level0/solidity_basic/TryCatchExample1.sol\":484:646  try externalContract.getValue() returns (uint value){... */\n    tag_17:\n        /* \"level0/solidity_basic/TryCatchExample1.sol\":562:567  value */\n      dup1\n        /* \"level0/solidity_basic/TryCatchExample1.sol\":554:578  return (value, \"Sucess\") */\n      mload(0x40)\n      dup1\n      0x40\n      add\n      0x40\n      mstore\n      dup1\n      0x06\n      dup2\n      mstore\n      0x20\n      add\n      0x5375636573730000000000000000000000000000000000000000000000000000\n      dup2\n      mstore\n      pop\n      swap3\n      pop\n      swap3\n      pop\n      pop\n        /* \"level0/solidity_basic/TryCatchExample1.sol\":407:653  function tryCatchTest() public view returns (uint, string memory) {... */\n    tag_13:\n      swap1\n      swap2\n      jump\t// out\n        /* \"level0/solidity_basic/TryCatchExample1.sol\":659:954  function tryCatchWithRevert() public view returns (string memory) {... */\n    tag_10:\n        /* \"level0/solidity_basic/TryCatchExample1.sol\":710:723  string memory */\n      0x60\n        /* \"level0/solidity_basic/TryCatchExample1.sol\":739:755  externalContract */\n      0x00\n      dup1\n      sload\n      swap1\n      0x0100\n      exp\n      swap1\n      div\n      0xffffffffffffffffffffffffffffffffffffffff\n      and\n        /* \"level0/solidity_basic/TryCatchExample1.sol\":739:766  externalContract.willRevert */\n      0xffffffffffffffffffffffffffffffffffffffff\n      and\n      0x73ee93b3\n        /* \"level0/solidity_basic/TryCatchExample1.sol\":739:768  externalContract.willRevert() */\n      mload(0x40)\n      dup2\n      0xffffffff\n      and\n      0xe0\n      shl\n      dup2\n      mstore\n      0x04\n      add\n      0x00\n      mload(0x40)\n      dup1\n      dup4\n      sub\n      dup2\n      dup7\n      dup1\n      extcodesize\n      iszero\n      dup1\n      iszero\n      tag_23\n      jumpi\n      0x00\n      dup1\n      revert\n    tag_23:\n      pop\n      gas\n      staticcall\n      swap3\n      pop\n      pop\n      pop\n      dup1\n      iszero\n      tag_24\n      jumpi\n      pop\n      0x01\n    tag_24:\n        /* \"level0/solidity_basic/TryCatchExample1.sol\":735:948  try externalContract.willRevert(){... */\n      tag_25\n      jumpi\n      tag_29\n      tag_30\n      jump\t// in\n    tag_29:\n      dup1\n      0x08c379a0\n      sub\n      tag_28\n      jumpi\n      pop\n      tag_31\n      tag_32\n      jump\t// in\n    tag_31:\n      dup1\n      tag_33\n      jumpi\n      pop\n      jump(tag_27)\n    tag_33:\n        /* \"level0/solidity_basic/TryCatchExample1.sol\":880:886  reason */\n      dup1\n        /* \"level0/solidity_basic/TryCatchExample1.sol\":873:886  return reason */\n      swap2\n      pop\n      pop\n      jump(tag_22)\n        /* \"level0/solidity_basic/TryCatchExample1.sol\":735:948  try externalContract.willRevert(){... */\n    tag_28:\n      pop\n    tag_27:\n        /* \"level0/solidity_basic/TryCatchExample1.sol\":916:937  return \"unknow error\" */\n      mload(0x40)\n      dup1\n      0x40\n      add\n      0x40\n      mstore\n      dup1\n      0x0c\n      dup2\n      mstore\n      0x20\n      add\n      0x756e6b6e6f77206572726f720000000000000000000000000000000000000000\n      dup2\n      mstore\n      pop\n      swap1\n      pop\n      jump(tag_22)\n        /* \"level0/solidity_basic/TryCatchExample1.sol\":735:948  try externalContract.willRevert(){... */\n    tag_25:\n        /* \"level0/solidity_basic/TryCatchExample1.sol\":784:814  return \"This will not execute\" */\n      mload(0x40)\n      dup1\n      0x40\n      add\n      0x40\n      mstore\n      dup1\n      0x15\n      dup2\n      mstore\n      0x20\n      add\n      0x546869732077696c6c206e6f7420657865637574650000000000000000000000\n      dup2\n      mstore\n      pop\n      swap1\n      pop\n        /* \"level0/solidity_basic/TryCatchExample1.sol\":659:954  function tryCatchWithRevert() public view returns (string memory) {... */\n    tag_22:\n      swap1\n      jump\t// out\n        /* \"#utility.yul\":7:84   */\n    tag_35:\n        /* \"#utility.yul\":44:51   */\n      0x00\n        /* \"#utility.yul\":73:78   */\n      dup2\n        /* \"#utility.yul\":62:78   */\n      swap1\n      pop\n        /* \"#utility.yul\":7:84   */\n      swap2\n      swap1\n      pop\n      jump\t// out\n        /* \"#utility.yul\":90:208   */\n    tag_36:\n        /* \"#utility.yul\":177:201   */\n      tag_53\n        /* \"#utility.yul\":195:200   */\n      dup2\n        /* \"#utility.yul\":177:201   */\n      tag_35\n      jump\t// in\n    tag_53:\n        /* \"#utility.yul\":172:175   */\n      dup3\n        /* \"#utility.yul\":165:202   */\n      mstore\n        /* \"#utility.yul\":90:208   */\n      pop\n      pop\n      jump\t// out\n        /* \"#utility.yul\":214:313   */\n    tag_37:\n        /* \"#utility.yul\":266:272   */\n      0x00\n        /* \"#utility.yul\":300:305   */\n      dup2\n        /* \"#utility.yul\":294:306   */\n      mload\n        /* \"#utility.yul\":284:306   */\n      swap1\n      pop\n        /* \"#utility.yul\":214:313   */\n      swap2\n      swap1\n      pop\n      jump\t// out\n        /* \"#utility.yul\":319:488   */\n    tag_38:\n        /* \"#utility.yul\":403:414   */\n      0x00\n        /* \"#utility.yul\":437:443   */\n      dup3\n        /* \"#utility.yul\":432:435   */\n      dup3\n        /* \"#utility.yul\":425:444   */\n      mstore\n        /* \"#utility.yul\":477:481   */\n      0x20\n        /* \"#utility.yul\":472:475   */\n      dup3\n        /* \"#utility.yul\":468:482   */\n      add\n        /* \"#utility.yul\":453:482   */\n      swap1\n      pop\n        /* \"#utility.yul\":319:488   */\n      swap3\n      swap2\n      pop\n      pop\n      jump\t// out\n        /* \"#utility.yul\":494:740   */\n    tag_39:\n        /* \"#utility.yul\":575:576   */\n      0x00\n        /* \"#utility.yul\":585:698   */\n    tag_57:\n        /* \"#utility.yul\":599:605   */\n      dup4\n        /* \"#utility.yul\":596:597   */\n      dup2\n        /* \"#utility.yul\":593:606   */\n      lt\n        /* \"#utility.yul\":585:698   */\n      iszero\n      tag_59\n      jumpi\n        /* \"#utility.yul\":684:685   */\n      dup1\n        /* \"#utility.yul\":679:682   */\n      dup3\n        /* \"#utility.yul\":675:686   */\n      add\n        /* \"#utility.yul\":669:687   */\n      mload\n        /* \"#utility.yul\":665:666   */\n      dup2\n        /* \"#utility.yul\":660:663   */\n      dup5\n        /* \"#utility.yul\":656:667   */\n      add\n        /* \"#utility.yul\":649:688   */\n      mstore\n        /* \"#utility.yul\":621:623   */\n      0x20\n        /* \"#utility.yul\":618:619   */\n      dup2\n        /* \"#utility.yul\":614:624   */\n      add\n        /* \"#utility.yul\":609:624   */\n      swap1\n      pop\n        /* \"#utility.yul\":585:698   */\n      jump(tag_57)\n    tag_59:\n        /* \"#utility.yul\":732:733   */\n      0x00\n        /* \"#utility.yul\":723:729   */\n      dup5\n        /* \"#utility.yul\":718:721   */\n      dup5\n        /* \"#utility.yul\":714:730   */\n      add\n        /* \"#utility.yul\":707:734   */\n      mstore\n        /* \"#utility.yul\":556:740   */\n      pop\n        /* \"#utility.yul\":494:740   */\n      pop\n      pop\n      pop\n      jump\t// out\n        /* \"#utility.yul\":746:848   */\n    tag_40:\n        /* \"#utility.yul\":787:793   */\n      0x00\n        /* \"#utility.yul\":838:840   */\n      0x1f\n        /* \"#utility.yul\":834:841   */\n      not\n        /* \"#utility.yul\":829:831   */\n      0x1f\n        /* \"#utility.yul\":822:827   */\n      dup4\n        /* \"#utility.yul\":818:832   */\n      add\n        /* \"#utility.yul\":814:842   */\n      and\n        /* \"#utility.yul\":804:842   */\n      swap1\n      pop\n        /* \"#utility.yul\":746:848   */\n      swap2\n      swap1\n      pop\n      jump\t// out\n        /* \"#utility.yul\":854:1231   */\n    tag_41:\n        /* \"#utility.yul\":942:945   */\n      0x00\n        /* \"#utility.yul\":970:1009   */\n      tag_62\n        /* \"#utility.yul\":1003:1008   */\n      dup3\n        /* \"#utility.yul\":970:1009   */\n      tag_37\n      jump\t// in\n    tag_62:\n        /* \"#utility.yul\":1025:1096   */\n      tag_63\n        /* \"#utility.yul\":1089:1095   */\n      dup2\n        /* \"#utility.yul\":1084:1087   */\n      dup6\n        /* \"#utility.yul\":1025:1096   */\n      tag_38\n      jump\t// in\n    tag_63:\n        /* \"#utility.yul\":1018:1096   */\n      swap4\n      pop\n        /* \"#utility.yul\":1105:1170   */\n      tag_64\n        /* \"#utility.yul\":1163:1169   */\n      dup2\n        /* \"#utility.yul\":1158:1161   */\n      dup6\n        /* \"#utility.yul\":1151:1155   */\n      0x20\n        /* \"#utility.yul\":1144:1149   */\n      dup7\n        /* \"#utility.yul\":1140:1156   */\n      add\n        /* \"#utility.yul\":1105:1170   */\n      tag_39\n      jump\t// in\n    tag_64:\n        /* \"#utility.yul\":1195:1224   */\n      tag_65\n        /* \"#utility.yul\":1217:1223   */\n      dup2\n        /* \"#utility.yul\":1195:1224   */\n      tag_40\n      jump\t// in\n    tag_65:\n        /* \"#utility.yul\":1190:1193   */\n      dup5\n        /* \"#utility.yul\":1186:1225   */\n      add\n        /* \"#utility.yul\":1179:1225   */\n      swap2\n      pop\n        /* \"#utility.yul\":946:1231   */\n      pop\n        /* \"#utility.yul\":854:1231   */\n      swap3\n      swap2\n      pop\n      pop\n      jump\t// out\n        /* \"#utility.yul\":1237:1660   */\n    tag_8:\n        /* \"#utility.yul\":1378:1382   */\n      0x00\n        /* \"#utility.yul\":1416:1418   */\n      0x40\n        /* \"#utility.yul\":1405:1414   */\n      dup3\n        /* \"#utility.yul\":1401:1419   */\n      add\n        /* \"#utility.yul\":1393:1419   */\n      swap1\n      pop\n        /* \"#utility.yul\":1429:1500   */\n      tag_67\n        /* \"#utility.yul\":1497:1498   */\n      0x00\n        /* \"#utility.yul\":1486:1495   */\n      dup4\n        /* \"#utility.yul\":1482:1499   */\n      add\n        /* \"#utility.yul\":1473:1479   */\n      dup6\n        /* \"#utility.yul\":1429:1500   */\n      tag_36\n      jump\t// in\n    tag_67:\n        /* \"#utility.yul\":1547:1556   */\n      dup2\n        /* \"#utility.yul\":1541:1545   */\n      dup2\n        /* \"#utility.yul\":1537:1557   */\n      sub\n        /* \"#utility.yul\":1532:1534   */\n      0x20\n        /* \"#utility.yul\":1521:1530   */\n      dup4\n        /* \"#utility.yul\":1517:1535   */\n      add\n        /* \"#utility.yul\":1510:1558   */\n      mstore\n        /* \"#utility.yul\":1575:1653   */\n      tag_68\n        /* \"#utility.yul\":1648:1652   */\n      dup2\n        /* \"#utility.yul\":1639:1645   */\n      dup5\n        /* \"#utility.yul\":1575:1653   */\n      tag_41\n      jump\t// in\n    tag_68:\n        /* \"#utility.yul\":1567:1653   */\n      swap1\n      pop\n        /* \"#utility.yul\":1237:1660   */\n      swap4\n      swap3\n      pop\n      pop\n      pop\n      jump\t// out\n        /* \"#utility.yul\":1666:1979   */\n    tag_12:\n        /* \"#utility.yul\":1779:1783   */\n      0x00\n        /* \"#utility.yul\":1817:1819   */\n      0x20\n        /* \"#utility.yul\":1806:1815   */\n      dup3\n        /* \"#utility.yul\":1802:1820   */\n      add\n        /* \"#utility.yul\":1794:1820   */\n      swap1\n      pop\n        /* \"#utility.yul\":1866:1875   */\n      dup2\n        /* \"#utility.yul\":1860:1864   */\n      dup2\n        /* \"#utility.yul\":1856:1876   */\n      sub\n        /* \"#utility.yul\":1852:1853   */\n      0x00\n        /* \"#utility.yul\":1841:1850   */\n      dup4\n        /* \"#utility.yul\":1837:1854   */\n      add\n        /* \"#utility.yul\":1830:1877   */\n      mstore\n        /* \"#utility.yul\":1894:1972   */\n      tag_70\n        /* \"#utility.yul\":1967:1971   */\n      dup2\n        /* \"#utility.yul\":1958:1964   */\n      dup5\n        /* \"#utility.yul\":1894:1972   */\n      tag_41\n      jump\t// in\n    tag_70:\n        /* \"#utility.yul\":1886:1972   */\n      swap1\n      pop\n        /* \"#utility.yul\":1666:1979   */\n      swap3\n      swap2\n      pop\n      pop\n      jump\t// out\n        /* \"#utility.yul\":1985:2060   */\n    tag_42:\n        /* \"#utility.yul\":2018:2024   */\n      0x00\n        /* \"#utility.yul\":2051:2053   */\n      0x40\n        /* \"#utility.yul\":2045:2054   */\n      mload\n        /* \"#utility.yul\":2035:2054   */\n      swap1\n      pop\n        /* \"#utility.yul\":1985:2060   */\n      swap1\n      jump\t// out\n        /* \"#utility.yul\":2066:2183   */\n    tag_43:\n        /* \"#utility.yul\":2175:2176   */\n      0x00\n        /* \"#utility.yul\":2172:2173   */\n      dup1\n        /* \"#utility.yul\":2165:2177   */\n      revert\n        /* \"#utility.yul\":2312:2434   */\n    tag_45:\n        /* \"#utility.yul\":2385:2409   */\n      tag_75\n        /* \"#utility.yul\":2403:2408   */\n      dup2\n        /* \"#utility.yul\":2385:2409   */\n      tag_35\n      jump\t// in\n    tag_75:\n        /* \"#utility.yul\":2378:2383   */\n      dup2\n        /* \"#utility.yul\":2375:2410   */\n      eq\n        /* \"#utility.yul\":2365:2428   */\n      tag_76\n      jumpi\n        /* \"#utility.yul\":2424:2425   */\n      0x00\n        /* \"#utility.yul\":2421:2422   */\n      dup1\n        /* \"#utility.yul\":2414:2426   */\n      revert\n        /* \"#utility.yul\":2365:2428   */\n    tag_76:\n        /* \"#utility.yul\":2312:2434   */\n      pop\n      jump\t// out\n        /* \"#utility.yul\":2440:2583   */\n    tag_46:\n        /* \"#utility.yul\":2497:2502   */\n      0x00\n        /* \"#utility.yul\":2528:2534   */\n      dup2\n        /* \"#utility.yul\":2522:2535   */\n      mload\n        /* \"#utility.yul\":2513:2535   */\n      swap1\n      pop\n        /* \"#utility.yul\":2544:2577   */\n      tag_78\n        /* \"#utility.yul\":2571:2576   */\n      dup2\n        /* \"#utility.yul\":2544:2577   */\n      tag_45\n      jump\t// in\n    tag_78:\n        /* \"#utility.yul\":2440:2583   */\n      swap3\n      swap2\n      pop\n      pop\n      jump\t// out\n        /* \"#utility.yul\":2589:2940   */\n    tag_16:\n        /* \"#utility.yul\":2659:2665   */\n      0x00\n        /* \"#utility.yul\":2708:2710   */\n      0x20\n        /* \"#utility.yul\":2696:2705   */\n      dup3\n        /* \"#utility.yul\":2687:2694   */\n      dup5\n        /* \"#utility.yul\":2683:2706   */\n      sub\n        /* \"#utility.yul\":2679:2711   */\n      slt\n        /* \"#utility.yul\":2676:2795   */\n      iszero\n      tag_80\n      jumpi\n        /* \"#utility.yul\":2714:2793   */\n      tag_81\n      tag_43\n      jump\t// in\n    tag_81:\n        /* \"#utility.yul\":2676:2795   */\n    tag_80:\n        /* \"#utility.yul\":2834:2835   */\n      0x00\n        /* \"#utility.yul\":2859:2923   */\n      tag_82\n        /* \"#utility.yul\":2915:2922   */\n      dup5\n        /* \"#utility.yul\":2906:2912   */\n      dup3\n        /* \"#utility.yul\":2895:2904   */\n      dup6\n        /* \"#utility.yul\":2891:2913   */\n      add\n        /* \"#utility.yul\":2859:2923   */\n      tag_46\n      jump\t// in\n    tag_82:\n        /* \"#utility.yul\":2849:2923   */\n      swap2\n      pop\n        /* \"#utility.yul\":2805:2933   */\n      pop\n        /* \"#utility.yul\":2589:2940   */\n      swap3\n      swap2\n      pop\n      pop\n      jump\t// out\n        /* \"#utility.yul\":2946:3052   */\n    tag_47:\n        /* \"#utility.yul\":2990:2998   */\n      0x00\n        /* \"#utility.yul\":3039:3044   */\n      dup2\n        /* \"#utility.yul\":3034:3037   */\n      0xe0\n        /* \"#utility.yul\":3030:3045   */\n      shr\n        /* \"#utility.yul\":3009:3045   */\n      swap1\n      pop\n        /* \"#utility.yul\":2946:3052   */\n      swap2\n      swap1\n      pop\n      jump\t// out\n        /* \"#utility.yul\":3058:3241   */\n    tag_30:\n        /* \"#utility.yul\":3093:3096   */\n      0x00\n        /* \"#utility.yul\":3131:3132   */\n      0x03\n        /* \"#utility.yul\":3113:3129   */\n      returndatasize\n        /* \"#utility.yul\":3110:3133   */\n      gt\n        /* \"#utility.yul\":3107:3235   */\n      iszero\n      tag_85\n      jumpi\n        /* \"#utility.yul\":3169:3170   */\n      0x04\n        /* \"#utility.yul\":3166:3167   */\n      0x00\n        /* \"#utility.yul\":3163:3164   */\n      dup1\n        /* \"#utility.yul\":3148:3171   */\n      returndatacopy\n        /* \"#utility.yul\":3191:3225   */\n      tag_86\n        /* \"#utility.yul\":3222:3223   */\n      0x00\n        /* \"#utility.yul\":3216:3224   */\n      mload\n        /* \"#utility.yul\":3191:3225   */\n      tag_47\n      jump\t// in\n    tag_86:\n        /* \"#utility.yul\":3184:3225   */\n      swap1\n      pop\n        /* \"#utility.yul\":3107:3235   */\n    tag_85:\n        /* \"#utility.yul\":3058:3241   */\n      swap1\n      jump\t// out\n        /* \"#utility.yul\":3247:3427   */\n    tag_48:\n        /* \"#utility.yul\":3295:3372   */\n      0x4e487b7100000000000000000000000000000000000000000000000000000000\n        /* \"#utility.yul\":3292:3293   */\n      0x00\n        /* \"#utility.yul\":3285:3373   */\n      mstore\n        /* \"#utility.yul\":3392:3396   */\n      0x41\n        /* \"#utility.yul\":3389:3390   */\n      0x04\n        /* \"#utility.yul\":3382:3397   */\n      mstore\n        /* \"#utility.yul\":3416:3420   */\n      0x24\n        /* \"#utility.yul\":3413:3414   */\n      0x00\n        /* \"#utility.yul\":3406:3421   */\n      revert\n        /* \"#utility.yul\":3433:3714   */\n    tag_49:\n        /* \"#utility.yul\":3516:3543   */\n      tag_89\n        /* \"#utility.yul\":3538:3542   */\n      dup3\n        /* \"#utility.yul\":3516:3543   */\n      tag_40\n      jump\t// in\n    tag_89:\n        /* \"#utility.yul\":3508:3514   */\n      dup2\n        /* \"#utility.yul\":3504:3544   */\n      add\n        /* \"#utility.yul\":3646:3652   */\n      dup2\n        /* \"#utility.yul\":3634:3644   */\n      dup2\n        /* \"#utility.yul\":3631:3653   */\n      lt\n        /* \"#utility.yul\":3610:3628   */\n      0xffffffffffffffff\n        /* \"#utility.yul\":3598:3608   */\n      dup3\n        /* \"#utility.yul\":3595:3629   */\n      gt\n        /* \"#utility.yul\":3592:3654   */\n      or\n        /* \"#utility.yul\":3589:3677   */\n      iszero\n      tag_90\n      jumpi\n        /* \"#utility.yul\":3657:3675   */\n      tag_91\n      tag_48\n      jump\t// in\n    tag_91:\n        /* \"#utility.yul\":3589:3677   */\n    tag_90:\n        /* \"#utility.yul\":3697:3707   */\n      dup1\n        /* \"#utility.yul\":3693:3695   */\n      0x40\n        /* \"#utility.yul\":3686:3708   */\n      mstore\n        /* \"#utility.yul\":3476:3714   */\n      pop\n        /* \"#utility.yul\":3433:3714   */\n      pop\n      pop\n      jump\t// out\n        /* \"#utility.yul\":3720:4431   */\n    tag_32:\n        /* \"#utility.yul\":3759:3762   */\n      0x00\n        /* \"#utility.yul\":3797:3801   */\n      0x44\n        /* \"#utility.yul\":3779:3795   */\n      returndatasize\n        /* \"#utility.yul\":3776:3802   */\n      lt\n        /* \"#utility.yul\":3805:3810   */\n      tag_92\n        /* \"#utility.yul\":3773:3812   */\n      jumpi\n        /* \"#utility.yul\":3834:3854   */\n      tag_94\n      tag_42\n      jump\t// in\n    tag_94:\n        /* \"#utility.yul\":3909:3910   */\n      0x04\n        /* \"#utility.yul\":3891:3907   */\n      returndatasize\n        /* \"#utility.yul\":3887:3911   */\n      sub\n        /* \"#utility.yul\":3884:3885   */\n      0x04\n        /* \"#utility.yul\":3878:3882   */\n      dup3\n        /* \"#utility.yul\":3863:3912   */\n      returndatacopy\n        /* \"#utility.yul\":3942:3946   */\n      dup1\n        /* \"#utility.yul\":3936:3947   */\n      mload\n        /* \"#utility.yul\":4041:4057   */\n      returndatasize\n        /* \"#utility.yul\":4034:4038   */\n      0x24\n        /* \"#utility.yul\":4026:4032   */\n      dup3\n        /* \"#utility.yul\":4022:4039   */\n      add\n        /* \"#utility.yul\":4019:4058   */\n      gt\n        /* \"#utility.yul\":3986:4004   */\n      0xffffffffffffffff\n        /* \"#utility.yul\":3978:3984   */\n      dup3\n        /* \"#utility.yul\":3975:4005   */\n      gt\n        /* \"#utility.yul\":3959:4072   */\n      or\n        /* \"#utility.yul\":3956:4102   */\n      iszero\n      tag_95\n      jumpi\n        /* \"#utility.yul\":4087:4092   */\n      pop\n      pop\n      jump(tag_92)\n        /* \"#utility.yul\":3956:4102   */\n    tag_95:\n        /* \"#utility.yul\":4133:4139   */\n      dup1\n        /* \"#utility.yul\":4127:4131   */\n      dup3\n        /* \"#utility.yul\":4123:4140   */\n      add\n        /* \"#utility.yul\":4169:4172   */\n      dup1\n        /* \"#utility.yul\":4163:4173   */\n      mload\n        /* \"#utility.yul\":4196:4214   */\n      0xffffffffffffffff\n        /* \"#utility.yul\":4188:4194   */\n      dup2\n        /* \"#utility.yul\":4185:4215   */\n      gt\n        /* \"#utility.yul\":4182:4225   */\n      iszero\n      tag_96\n      jumpi\n        /* \"#utility.yul\":4218:4223   */\n      pop\n      pop\n      pop\n      pop\n      jump(tag_92)\n        /* \"#utility.yul\":4182:4225   */\n    tag_96:\n        /* \"#utility.yul\":4266:4272   */\n      dup1\n        /* \"#utility.yul\":4259:4263   */\n      0x20\n        /* \"#utility.yul\":4254:4257   */\n      dup4\n        /* \"#utility.yul\":4250:4264   */\n      add\n        /* \"#utility.yul\":4246:4273   */\n      add\n        /* \"#utility.yul\":4325:4326   */\n      0x04\n        /* \"#utility.yul\":4307:4323   */\n      returndatasize\n        /* \"#utility.yul\":4303:4327   */\n      sub\n        /* \"#utility.yul\":4297:4301   */\n      dup6\n        /* \"#utility.yul\":4293:4328   */\n      add\n        /* \"#utility.yul\":4288:4291   */\n      dup2\n        /* \"#utility.yul\":4285:4329   */\n      gt\n        /* \"#utility.yul\":4282:4339   */\n      iszero\n      tag_97\n      jumpi\n        /* \"#utility.yul\":4332:4337   */\n      pop\n      pop\n      pop\n      pop\n      pop\n      jump(tag_92)\n        /* \"#utility.yul\":4282:4339   */\n    tag_97:\n        /* \"#utility.yul\":4349:4406   */\n      tag_98\n        /* \"#utility.yul\":4397:4403   */\n      dup3\n        /* \"#utility.yul\":4391:4395   */\n      0x20\n        /* \"#utility.yul\":4387:4404   */\n      add\n        /* \"#utility.yul\":4379:4385   */\n      dup6\n        /* \"#utility.yul\":4375:4405   */\n      add\n        /* \"#utility.yul\":4369:4373   */\n      dup7\n        /* \"#utility.yul\":4349:4406   */\n      tag_49\n      jump\t// in\n    tag_98:\n        /* \"#utility.yul\":4422:4425   */\n      dup3\n        /* \"#utility.yul\":4415:4425   */\n      swap6\n      pop\n        /* \"#utility.yul\":3763:4431   */\n      pop\n      pop\n      pop\n      pop\n      pop\n        /* \"#utility.yul\":3720:4431   */\n    tag_92:\n      swap1\n      jump\t// out\n\n    auxdata: 0xa2646970667358221220cf1ca161cf2f5984283148b7f116cbdf96ebcde00f4c4fedc68ff6692f1070c864736f6c63430008140033\n}\n\nsub_1: assembly {\n        /* \"level0/solidity_basic/TryCatchExample1.sol\":58:258  contract ExternalContract{... */\n      mstore(0x40, 0x80)\n      callvalue\n      dup1\n      iszero\n      tag_1\n      jumpi\n      0x00\n      dup1\n      revert\n    tag_1:\n      pop\n      dataSize(sub_0)\n      dup1\n      dataOffset(sub_0)\n      0x00\n      codecopy\n      0x00\n      return\n    stop\n\n    sub_0: assembly {\n            /* \"level0/solidity_basic/TryCatchExample1.sol\":58:258  contract ExternalContract{... */\n          mstore(0x40, 0x80)\n          callvalue\n          dup1\n          iszero\n          tag_1\n          jumpi\n          0x00\n          dup1\n          revert\n        tag_1:\n          pop\n          jumpi(tag_2, lt(calldatasize, 0x04))\n          shr(0xe0, calldataload(0x00))\n          dup1\n          0x20965255\n          eq\n          tag_3\n          jumpi\n          dup1\n          0x73ee93b3\n          eq\n          tag_4\n          jumpi\n        tag_2:\n          0x00\n          dup1\n          revert\n            /* \"level0/solidity_basic/TryCatchExample1.sol\":89:162  function getValue() public  pure returns (uint){... */\n        tag_3:\n          tag_5\n          tag_6\n          jump\t// in\n        tag_5:\n          mload(0x40)\n          tag_7\n          swap2\n          swap1\n          tag_8\n          jump\t// in\n        tag_7:\n          mload(0x40)\n          dup1\n          swap2\n          sub\n          swap1\n          return\n            /* \"level0/solidity_basic/TryCatchExample1.sol\":168:255  function willRevert() public  pure{... */\n        tag_4:\n          tag_9\n          tag_10\n          jump\t// in\n        tag_9:\n          stop\n            /* \"level0/solidity_basic/TryCatchExample1.sol\":89:162  function getValue() public  pure returns (uint){... */\n        tag_6:\n            /* \"level0/solidity_basic/TryCatchExample1.sol\":131:135  uint */\n          0x00\n            /* \"level0/solidity_basic/TryCatchExample1.sol\":153:155  42 */\n          0x2a\n            /* \"level0/solidity_basic/TryCatchExample1.sol\":146:155  return 42 */\n          swap1\n          pop\n            /* \"level0/solidity_basic/TryCatchExample1.sol\":89:162  function getValue() public  pure returns (uint){... */\n          swap1\n          jump\t// out\n            /* \"level0/solidity_basic/TryCatchExample1.sol\":168:255  function willRevert() public  pure{... */\n        tag_10:\n            /* \"level0/solidity_basic/TryCatchExample1.sol\":212:248  revert(\"this function always fails\") */\n          mload(0x40)\n          0x08c379a000000000000000000000000000000000000000000000000000000000\n          dup2\n          mstore\n          0x04\n          add\n          tag_13\n          swap1\n          tag_14\n          jump\t// in\n        tag_13:\n          mload(0x40)\n          dup1\n          swap2\n          sub\n          swap1\n          revert\n            /* \"#utility.yul\":7:84   */\n        tag_15:\n            /* \"#utility.yul\":44:51   */\n          0x00\n            /* \"#utility.yul\":73:78   */\n          dup2\n            /* \"#utility.yul\":62:78   */\n          swap1\n          pop\n            /* \"#utility.yul\":7:84   */\n          swap2\n          swap1\n          pop\n          jump\t// out\n            /* \"#utility.yul\":90:208   */\n        tag_16:\n            /* \"#utility.yul\":177:201   */\n          tag_23\n            /* \"#utility.yul\":195:200   */\n          dup2\n            /* \"#utility.yul\":177:201   */\n          tag_15\n          jump\t// in\n        tag_23:\n            /* \"#utility.yul\":172:175   */\n          dup3\n            /* \"#utility.yul\":165:202   */\n          mstore\n            /* \"#utility.yul\":90:208   */\n          pop\n          pop\n          jump\t// out\n            /* \"#utility.yul\":214:436   */\n        tag_8:\n            /* \"#utility.yul\":307:311   */\n          0x00\n            /* \"#utility.yul\":345:347   */\n          0x20\n            /* \"#utility.yul\":334:343   */\n          dup3\n            /* \"#utility.yul\":330:348   */\n          add\n            /* \"#utility.yul\":322:348   */\n          swap1\n          pop\n            /* \"#utility.yul\":358:429   */\n          tag_25\n            /* \"#utility.yul\":426:427   */\n          0x00\n            /* \"#utility.yul\":415:424   */\n          dup4\n            /* \"#utility.yul\":411:428   */\n          add\n            /* \"#utility.yul\":402:408   */\n          dup5\n            /* \"#utility.yul\":358:429   */\n          tag_16\n          jump\t// in\n        tag_25:\n            /* \"#utility.yul\":214:436   */\n          swap3\n          swap2\n          pop\n          pop\n          jump\t// out\n            /* \"#utility.yul\":442:611   */\n        tag_17:\n            /* \"#utility.yul\":526:537   */\n          0x00\n            /* \"#utility.yul\":560:566   */\n          dup3\n            /* \"#utility.yul\":555:558   */\n          dup3\n            /* \"#utility.yul\":548:567   */\n          mstore\n            /* \"#utility.yul\":600:604   */\n          0x20\n            /* \"#utility.yul\":595:598   */\n          dup3\n            /* \"#utility.yul\":591:605   */\n          add\n            /* \"#utility.yul\":576:605   */\n          swap1\n          pop\n            /* \"#utility.yul\":442:611   */\n          swap3\n          swap2\n          pop\n          pop\n          jump\t// out\n            /* \"#utility.yul\":617:793   */\n        tag_18:\n            /* \"#utility.yul\":757:785   */\n          0x746869732066756e6374696f6e20616c77617973206661696c73000000000000\n            /* \"#utility.yul\":753:754   */\n          0x00\n            /* \"#utility.yul\":745:751   */\n          dup3\n            /* \"#utility.yul\":741:755   */\n          add\n            /* \"#utility.yul\":734:786   */\n          mstore\n            /* \"#utility.yul\":617:793   */\n          pop\n          jump\t// out\n            /* \"#utility.yul\":799:1165   */\n        tag_19:\n            /* \"#utility.yul\":941:944   */\n          0x00\n            /* \"#utility.yul\":962:1029   */\n          tag_29\n            /* \"#utility.yul\":1026:1028   */\n          0x1a\n            /* \"#utility.yul\":1021:1024   */\n          dup4\n            /* \"#utility.yul\":962:1029   */\n          tag_17\n          jump\t// in\n        tag_29:\n            /* \"#utility.yul\":955:1029   */\n          swap2\n          pop\n            /* \"#utility.yul\":1038:1131   */\n          tag_30\n            /* \"#utility.yul\":1127:1130   */\n          dup3\n            /* \"#utility.yul\":1038:1131   */\n          tag_18\n          jump\t// in\n        tag_30:\n            /* \"#utility.yul\":1156:1158   */\n          0x20\n            /* \"#utility.yul\":1151:1154   */\n          dup3\n            /* \"#utility.yul\":1147:1159   */\n          add\n            /* \"#utility.yul\":1140:1159   */\n          swap1\n          pop\n            /* \"#utility.yul\":799:1165   */\n          swap2\n          swap1\n          pop\n          jump\t// out\n            /* \"#utility.yul\":1171:1590   */\n        tag_14:\n            /* \"#utility.yul\":1337:1341   */\n          0x00\n            /* \"#utility.yul\":1375:1377   */\n          0x20\n            /* \"#utility.yul\":1364:1373   */\n          dup3\n            /* \"#utility.yul\":1360:1378   */\n          add\n            /* \"#utility.yul\":1352:1378   */\n          swap1\n          pop\n            /* \"#utility.yul\":1424:1433   */\n          dup2\n            /* \"#utility.yul\":1418:1422   */\n          dup2\n            /* \"#utility.yul\":1414:1434   */\n          sub\n            /* \"#utility.yul\":1410:1411   */\n          0x00\n            /* \"#utility.yul\":1399:1408   */\n          dup4\n            /* \"#utility.yul\":1395:1412   */\n          add\n            /* \"#utility.yul\":1388:1435   */\n          mstore\n            /* \"#utility.yul\":1452:1583   */\n          tag_32\n            /* \"#utility.yul\":1578:1582   */\n          dup2\n            /* \"#utility.yul\":1452:1583   */\n          tag_19\n          jump\t// in\n        tag_32:\n            /* \"#utility.yul\":1444:1583   */\n          swap1\n          pop\n            /* \"#utility.yul\":1171:1590   */\n          swap2\n          swap1\n          pop\n          jump\t// out\n\n        auxdata: 0xa2646970667358221220c80d43473f9cc9fcbfa15eb8df773d7f997f2700c1bf72da987ebfa73fada1a464736f6c63430008140033\n    }\n}\n",
				"bytecode": {
					"linkReferences": {},
					"object": "608060405234801561000f575f80fd5b5060405161001c90610079565b604051809103905ff080158015610035573d5f803e3d5ffd5b505f806101000a81548173ffffffffffffffffffffffffffffffffffffffff021916908373ffffffffffffffffffffffffffffffffffffffff160217905550610086565b61019f806105dc83390190565b610549806100935f395ff3fe608060405234801561000f575f80fd5b5060043610610034575f3560e01c80639bf5863b14610038578063d0e2064814610057575b5f80fd5b610040610075565b60405161004e92919061034b565b60405180910390f35b61005f610184565b60405161006c9190610379565b60405180910390f35b5f60605f8054906101000a900473ffffffffffffffffffffffffffffffffffffffff1673ffffffffffffffffffffffffffffffffffffffff1663209652556040518163ffffffff1660e01b8152600401602060405180830381865afa9250505080156100ff57506040513d601f19601f820116820180604052508101906100fc91906103d0565b60015b610143575f6040518060400160405280600681526020017f4661696c6564000000000000000000000000000000000000000000000000000081525091509150610180565b806040518060400160405280600681526020017f537563657373000000000000000000000000000000000000000000000000000081525092509250505b9091565b60605f8054906101000a900473ffffffffffffffffffffffffffffffffffffffff1673ffffffffffffffffffffffffffffffffffffffff166373ee93b36040518163ffffffff1660e01b81526004015f6040518083038186803b1580156101e9575f80fd5b505afa9250505080156101fa575060015b61026d57610206610407565b806308c379a00361022e575061021a610484565b806102255750610230565b809150506102a6565b505b6040518060400160405280600c81526020017f756e6b6e6f77206572726f72000000000000000000000000000000000000000081525090506102a6565b6040518060400160405280601581526020017f546869732077696c6c206e6f742065786563757465000000000000000000000081525090505b90565b5f819050919050565b6102bb816102a9565b82525050565b5f81519050919050565b5f82825260208201905092915050565b5f5b838110156102f85780820151818401526020810190506102dd565b5f8484015250505050565b5f601f19601f8301169050919050565b5f61031d826102c1565b61032781856102cb565b93506103378185602086016102db565b61034081610303565b840191505092915050565b5f60408201905061035e5f8301856102b2565b81810360208301526103708184610313565b90509392505050565b5f6020820190508181035f8301526103918184610313565b905092915050565b5f604051905090565b5f80fd5b6103af816102a9565b81146103b9575f80fd5b50565b5f815190506103ca816103a6565b92915050565b5f602082840312156103e5576103e46103a2565b5b5f6103f2848285016103bc565b91505092915050565b5f8160e01c9050919050565b5f60033d11156104235760045f803e6104205f516103fb565b90505b90565b7f4e487b71000000000000000000000000000000000000000000000000000000005f52604160045260245ffd5b61045c82610303565b810181811067ffffffffffffffff8211171561047b5761047a610426565b5b80604052505050565b5f60443d1061051057610495610399565b60043d036004823e80513d602482011167ffffffffffffffff821117156104bd575050610510565b808201805167ffffffffffffffff8111156104db5750505050610510565b80602083010160043d0385018111156104f8575050505050610510565b61050782602001850186610453565b82955050505050505b9056fea2646970667358221220cf1ca161cf2f5984283148b7f116cbdf96ebcde00f4c4fedc68ff6692f1070c864736f6c63430008140033608060405234801561000f575f80fd5b506101828061001d5f395ff3fe608060405234801561000f575f80fd5b5060043610610034575f3560e01c8063209652551461003857806373ee93b314610056575b5f80fd5b610040610060565b60405161004d91906100bb565b60405180910390f35b61005e610068565b005b5f602a905090565b6040517f08c379a000000000000000000000000000000000000000000000000000000000815260040161009a9061012e565b60405180910390fd5b5f819050919050565b6100b5816100a3565b82525050565b5f6020820190506100ce5f8301846100ac565b92915050565b5f82825260208201905092915050565b7f746869732066756e6374696f6e20616c77617973206661696c730000000000005f82015250565b5f610118601a836100d4565b9150610123826100e4565b602082019050919050565b5f6020820190508181035f8301526101458161010c565b905091905056fea2646970667358221220c80d43473f9cc9fcbfa15eb8df773d7f997f2700c1bf72da987ebfa73fada1a464736f6c63430008140033",
					"opcodes": "PUSH1 0x80 PUSH1 0x40 MSTORE CALLVALUE DUP1 ISZERO PUSH2 0xF JUMPI PUSH0 DUP1 REVERT JUMPDEST POP PUSH1 0x40 MLOAD PUSH2 0x1C SWAP1 PUSH2 0x79 JUMP JUMPDEST PUSH1 0x40 MLOAD DUP1 SWAP2 SUB SWAP1 PUSH0 CREATE DUP1 ISZERO DUP1 ISZERO PUSH2 0x35 JUMPI RETURNDATASIZE PUSH0 DUP1 RETURNDATACOPY RETURNDATASIZE PUSH0 REVERT JUMPDEST POP PUSH0 DUP1 PUSH2 0x100 EXP DUP2 SLOAD DUP2 PUSH20 0xFFFFFFFFFFFFFFFFFFFFFFFFFFFFFFFFFFFFFFFF MUL NOT AND SWAP1 DUP4 PUSH20 0xFFFFFFFFFFFFFFFFFFFFFFFFFFFFFFFFFFFFFFFF AND MUL OR SWAP1 SSTORE POP PUSH2 0x86 JUMP JUMPDEST PUSH2 0x19F DUP1 PUSH2 0x5DC DUP4 CODECOPY ADD SWAP1 JUMP JUMPDEST PUSH2 0x549 DUP1 PUSH2 0x93 PUSH0 CODECOPY PUSH0 RETURN INVALID PUSH1 0x80 PUSH1 0x40 MSTORE CALLVALUE DUP1 ISZERO PUSH2 0xF JUMPI PUSH0 DUP1 REVERT JUMPDEST POP PUSH1 0x4 CALLDATASIZE LT PUSH2 0x34 JUMPI PUSH0 CALLDATALOAD PUSH1 0xE0 SHR DUP1 PUSH4 0x9BF5863B EQ PUSH2 0x38 JUMPI DUP1 PUSH4 0xD0E20648 EQ PUSH2 0x57 JUMPI JUMPDEST PUSH0 DUP1 REVERT JUMPDEST PUSH2 0x40 PUSH2 0x75 JUMP JUMPDEST PUSH1 0x40 MLOAD PUSH2 0x4E SWAP3 SWAP2 SWAP1 PUSH2 0x34B JUMP JUMPDEST PUSH1 0x40 MLOAD DUP1 SWAP2 SUB SWAP1 RETURN JUMPDEST PUSH2 0x5F PUSH2 0x184 JUMP JUMPDEST PUSH1 0x40 MLOAD PUSH2 0x6C SWAP2 SWAP1 PUSH2 0x379 JUMP JUMPDEST PUSH1 0x40 MLOAD DUP1 SWAP2 SUB SWAP1 RETURN JUMPDEST PUSH0 PUSH1 0x60 PUSH0 DUP1 SLOAD SWAP1 PUSH2 0x100 EXP SWAP1 DIV PUSH20 0xFFFFFFFFFFFFFFFFFFFFFFFFFFFFFFFFFFFFFFFF AND PUSH20 0xFFFFFFFFFFFFFFFFFFFFFFFFFFFFFFFFFFFFFFFF AND PUSH4 0x20965255 PUSH1 0x40 MLOAD DUP2 PUSH4 0xFFFFFFFF AND PUSH1 0xE0 SHL DUP2 MSTORE PUSH1 0x4 ADD PUSH1 0x20 PUSH1 0x40 MLOAD DUP1 DUP4 SUB DUP2 DUP7 GAS STATICCALL SWAP3 POP POP POP DUP1 ISZERO PUSH2 0xFF JUMPI POP PUSH1 0x40 MLOAD RETURNDATASIZE PUSH1 0x1F NOT PUSH1 0x1F DUP3 ADD AND DUP3 ADD DUP1 PUSH1 0x40 MSTORE POP DUP2 ADD SWAP1 PUSH2 0xFC SWAP2 SWAP1 PUSH2 0x3D0 JUMP JUMPDEST PUSH1 0x1 JUMPDEST PUSH2 0x143 JUMPI PUSH0 PUSH1 0x40 MLOAD DUP1 PUSH1 0x40 ADD PUSH1 0x40 MSTORE DUP1 PUSH1 0x6 DUP2 MSTORE PUSH1 0x20 ADD PUSH32 0x4661696C65640000000000000000000000000000000000000000000000000000 DUP2 MSTORE POP SWAP2 POP SWAP2 POP PUSH2 0x180 JUMP JUMPDEST DUP1 PUSH1 0x40 MLOAD DUP1 PUSH1 0x40 ADD PUSH1 0x40 MSTORE DUP1 PUSH1 0x6 DUP2 MSTORE PUSH1 0x20 ADD PUSH32 0x5375636573730000000000000000000000000000000000000000000000000000 DUP2 MSTORE POP SWAP3 POP SWAP3 POP POP JUMPDEST SWAP1 SWAP2 JUMP JUMPDEST PUSH1 0x60 PUSH0 DUP1 SLOAD SWAP1 PUSH2 0x100 EXP SWAP1 DIV PUSH20 0xFFFFFFFFFFFFFFFFFFFFFFFFFFFFFFFFFFFFFFFF AND PUSH20 0xFFFFFFFFFFFFFFFFFFFFFFFFFFFFFFFFFFFFFFFF AND PUSH4 0x73EE93B3 PUSH1 0x40 MLOAD DUP2 PUSH4 0xFFFFFFFF AND PUSH1 0xE0 SHL DUP2 MSTORE PUSH1 0x4 ADD PUSH0 PUSH1 0x40 MLOAD DUP1 DUP4 SUB DUP2 DUP7 DUP1 EXTCODESIZE ISZERO DUP1 ISZERO PUSH2 0x1E9 JUMPI PUSH0 DUP1 REVERT JUMPDEST POP GAS STATICCALL SWAP3 POP POP POP DUP1 ISZERO PUSH2 0x1FA JUMPI POP PUSH1 0x1 JUMPDEST PUSH2 0x26D JUMPI PUSH2 0x206 PUSH2 0x407 JUMP JUMPDEST DUP1 PUSH4 0x8C379A0 SUB PUSH2 0x22E JUMPI POP PUSH2 0x21A PUSH2 0x484 JUMP JUMPDEST DUP1 PUSH2 0x225 JUMPI POP PUSH2 0x230 JUMP JUMPDEST DUP1 SWAP2 POP POP PUSH2 0x2A6 JUMP JUMPDEST POP JUMPDEST PUSH1 0x40 MLOAD DUP1 PUSH1 0x40 ADD PUSH1 0x40 MSTORE DUP1 PUSH1 0xC DUP2 MSTORE PUSH1 0x20 ADD PUSH32 0x756E6B6E6F77206572726F720000000000000000000000000000000000000000 DUP2 MSTORE POP SWAP1 POP PUSH2 0x2A6 JUMP JUMPDEST PUSH1 0x40 MLOAD DUP1 PUSH1 0x40 ADD PUSH1 0x40 MSTORE DUP1 PUSH1 0x15 DUP2 MSTORE PUSH1 0x20 ADD PUSH32 0x546869732077696C6C206E6F7420657865637574650000000000000000000000 DUP2 MSTORE POP SWAP1 POP JUMPDEST SWAP1 JUMP JUMPDEST PUSH0 DUP2 SWAP1 POP SWAP2 SWAP1 POP JUMP JUMPDEST PUSH2 0x2BB DUP2 PUSH2 0x2A9 JUMP JUMPDEST DUP3 MSTORE POP POP JUMP JUMPDEST PUSH0 DUP2 MLOAD SWAP1 POP SWAP2 SWAP1 POP JUMP JUMPDEST PUSH0 DUP3 DUP3 MSTORE PUSH1 0x20 DUP3 ADD SWAP1 POP SWAP3 SWAP2 POP POP JUMP JUMPDEST PUSH0 JUMPDEST DUP4 DUP2 LT ISZERO PUSH2 0x2F8 JUMPI DUP1 DUP3 ADD MLOAD DUP2 DUP5 ADD MSTORE PUSH1 0x20 DUP2 ADD SWAP1 POP PUSH2 0x2DD JUMP JUMPDEST PUSH0 DUP5 DUP5 ADD MSTORE POP POP POP POP JUMP JUMPDEST PUSH0 PUSH1 0x1F NOT PUSH1 0x1F DUP4 ADD AND SWAP1 POP SWAP2 SWAP1 POP JUMP JUMPDEST PUSH0 PUSH2 0x31D DUP3 PUSH2 0x2C1 JUMP JUMPDEST PUSH2 0x327 DUP2 DUP6 PUSH2 0x2CB JUMP JUMPDEST SWAP4 POP PUSH2 0x337 DUP2 DUP6 PUSH1 0x20 DUP7 ADD PUSH2 0x2DB JUMP JUMPDEST PUSH2 0x340 DUP2 PUSH2 0x303 JUMP JUMPDEST DUP5 ADD SWAP2 POP POP SWAP3 SWAP2 POP POP JUMP JUMPDEST PUSH0 PUSH1 0x40 DUP3 ADD SWAP1 POP PUSH2 0x35E PUSH0 DUP4 ADD DUP6 PUSH2 0x2B2 JUMP JUMPDEST DUP2 DUP2 SUB PUSH1 0x20 DUP4 ADD MSTORE PUSH2 0x370 DUP2 DUP5 PUSH2 0x313 JUMP JUMPDEST SWAP1 POP SWAP4 SWAP3 POP POP POP JUMP JUMPDEST PUSH0 PUSH1 0x20 DUP3 ADD SWAP1 POP DUP2 DUP2 SUB PUSH0 DUP4 ADD MSTORE PUSH2 0x391 DUP2 DUP5 PUSH2 0x313 JUMP JUMPDEST SWAP1 POP SWAP3 SWAP2 POP POP JUMP JUMPDEST PUSH0 PUSH1 0x40 MLOAD SWAP1 POP SWAP1 JUMP JUMPDEST PUSH0 DUP1 REVERT JUMPDEST PUSH2 0x3AF DUP2 PUSH2 0x2A9 JUMP JUMPDEST DUP2 EQ PUSH2 0x3B9 JUMPI PUSH0 DUP1 REVERT JUMPDEST POP JUMP JUMPDEST PUSH0 DUP2 MLOAD SWAP1 POP PUSH2 0x3CA DUP2 PUSH2 0x3A6 JUMP JUMPDEST SWAP3 SWAP2 POP POP JUMP JUMPDEST PUSH0 PUSH1 0x20 DUP3 DUP5 SUB SLT ISZERO PUSH2 0x3E5 JUMPI PUSH2 0x3E4 PUSH2 0x3A2 JUMP JUMPDEST JUMPDEST PUSH0 PUSH2 0x3F2 DUP5 DUP3 DUP6 ADD PUSH2 0x3BC JUMP JUMPDEST SWAP2 POP POP SWAP3 SWAP2 POP POP JUMP JUMPDEST PUSH0 DUP2 PUSH1 0xE0 SHR SWAP1 POP SWAP2 SWAP1 POP JUMP JUMPDEST PUSH0 PUSH1 0x3 RETURNDATASIZE GT ISZERO PUSH2 0x423 JUMPI PUSH1 0x4 PUSH0 DUP1 RETURNDATACOPY PUSH2 0x420 PUSH0 MLOAD PUSH2 0x3FB JUMP JUMPDEST SWAP1 POP JUMPDEST SWAP1 JUMP JUMPDEST PUSH32 0x4E487B7100000000000000000000000000000000000000000000000000000000 PUSH0 MSTORE PUSH1 0x41 PUSH1 0x4 MSTORE PUSH1 0x24 PUSH0 REVERT JUMPDEST PUSH2 0x45C DUP3 PUSH2 0x303 JUMP JUMPDEST DUP2 ADD DUP2 DUP2 LT PUSH8 0xFFFFFFFFFFFFFFFF DUP3 GT OR ISZERO PUSH2 0x47B JUMPI PUSH2 0x47A PUSH2 0x426 JUMP JUMPDEST JUMPDEST DUP1 PUSH1 0x40 MSTORE POP POP POP JUMP JUMPDEST PUSH0 PUSH1 0x44 RETURNDATASIZE LT PUSH2 0x510 JUMPI PUSH2 0x495 PUSH2 0x399 JUMP JUMPDEST PUSH1 0x4 RETURNDATASIZE SUB PUSH1 0x4 DUP3 RETURNDATACOPY DUP1 MLOAD RETURNDATASIZE PUSH1 0x24 DUP3 ADD GT PUSH8 0xFFFFFFFFFFFFFFFF DUP3 GT OR ISZERO PUSH2 0x4BD JUMPI POP POP PUSH2 0x510 JUMP JUMPDEST DUP1 DUP3 ADD DUP1 MLOAD PUSH8 0xFFFFFFFFFFFFFFFF DUP2 GT ISZERO PUSH2 0x4DB JUMPI POP POP POP POP PUSH2 0x510 JUMP JUMPDEST DUP1 PUSH1 0x20 DUP4 ADD ADD PUSH1 0x4 RETURNDATASIZE SUB DUP6 ADD DUP2 GT ISZERO PUSH2 0x4F8 JUMPI POP POP POP POP POP PUSH2 0x510 JUMP JUMPDEST PUSH2 0x507 DUP3 PUSH1 0x20 ADD DUP6 ADD DUP7 PUSH2 0x453 JUMP JUMPDEST DUP3 SWAP6 POP POP POP POP POP POP JUMPDEST SWAP1 JUMP INVALID LOG2 PUSH5 0x6970667358 0x22 SLT KECCAK256 0xCF SHR LOG1 PUSH2 0xCF2F MSIZE DUP5 0x28 BALANCE BASEFEE 0xB7 CALL AND 0xCB 0xDF SWAP7 0xEB 0xCD 0xE0 0xF 0x4C 0x4F 0xED 0xC6 DUP16 0xF6 PUSH10 0x2F1070C864736F6C6343 STOP ADDMOD EQ STOP CALLER PUSH1 0x80 PUSH1 0x40 MSTORE CALLVALUE DUP1 ISZERO PUSH2 0xF JUMPI PUSH0 DUP1 REVERT JUMPDEST POP PUSH2 0x182 DUP1 PUSH2 0x1D PUSH0 CODECOPY PUSH0 RETURN INVALID PUSH1 0x80 PUSH1 0x40 MSTORE CALLVALUE DUP1 ISZERO PUSH2 0xF JUMPI PUSH0 DUP1 REVERT JUMPDEST POP PUSH1 0x4 CALLDATASIZE LT PUSH2 0x34 JUMPI PUSH0 CALLDATALOAD PUSH1 0xE0 SHR DUP1 PUSH4 0x20965255 EQ PUSH2 0x38 JUMPI DUP1 PUSH4 0x73EE93B3 EQ PUSH2 0x56 JUMPI JUMPDEST PUSH0 DUP1 REVERT JUMPDEST PUSH2 0x40 PUSH2 0x60 JUMP JUMPDEST PUSH1 0x40 MLOAD PUSH2 0x4D SWAP2 SWAP1 PUSH2 0xBB JUMP JUMPDEST PUSH1 0x40 MLOAD DUP1 SWAP2 SUB SWAP1 RETURN JUMPDEST PUSH2 0x5E PUSH2 0x68 JUMP JUMPDEST STOP JUMPDEST PUSH0 PUSH1 0x2A SWAP1 POP SWAP1 JUMP JUMPDEST PUSH1 0x40 MLOAD PUSH32 0x8C379A000000000000000000000000000000000000000000000000000000000 DUP2 MSTORE PUSH1 0x4 ADD PUSH2 0x9A SWAP1 PUSH2 0x12E JUMP JUMPDEST PUSH1 0x40 MLOAD DUP1 SWAP2 SUB SWAP1 REVERT JUMPDEST PUSH0 DUP2 SWAP1 POP SWAP2 SWAP1 POP JUMP JUMPDEST PUSH2 0xB5 DUP2 PUSH2 0xA3 JUMP JUMPDEST DUP3 MSTORE POP POP JUMP JUMPDEST PUSH0 PUSH1 0x20 DUP3 ADD SWAP1 POP PUSH2 0xCE PUSH0 DUP4 ADD DUP5 PUSH2 0xAC JUMP JUMPDEST SWAP3 SWAP2 POP POP JUMP JUMPDEST PUSH0 DUP3 DUP3 MSTORE PUSH1 0x20 DUP3 ADD SWAP1 POP SWAP3 SWAP2 POP POP JUMP JUMPDEST PUSH32 0x746869732066756E6374696F6E20616C77617973206661696C73000000000000 PUSH0 DUP3 ADD MSTORE POP JUMP JUMPDEST PUSH0 PUSH2 0x118 PUSH1 0x1A DUP4 PUSH2 0xD4 JUMP JUMPDEST SWAP2 POP PUSH2 0x123 DUP3 PUSH2 0xE4 JUMP JUMPDEST PUSH1 0x20 DUP3 ADD SWAP1 POP SWAP2 SWAP1 POP JUMP JUMPDEST PUSH0 PUSH1 0x20 DUP3 ADD SWAP1 POP DUP2 DUP2 SUB PUSH0 DUP4 ADD MSTORE PUSH2 0x145 DUP2 PUSH2 0x10C JUMP JUMPDEST SWAP1 POP SWAP2 SWAP1 POP JUMP INVALID LOG2 PUSH5 0x6970667358 0x22 SLT KECCAK256 0xC8 0xD NUMBER SELFBALANCE EXTCODEHASH SWAP13 0xC9 0xFC 0xBF LOG1 0x5E 0xB8 0xDF PUSH24 0x3D7F997F2700C1BF72DA987EBFA73FADA1A464736F6C6343 STOP ADDMOD EQ STOP CALLER "
				},
				"gasEstimates": {
					"creation": {
						"codeDepositCost": "270600",
						"executionCost": "infinite",
						"totalCost": "infinite"
					},
					"external": {
						"tryCatchTest()": "infinite",
						"tryCatchWithRevert()": "infinite"
					}
				},
				"methodIdentifiers": {
					"tryCatchTest()": "9bf5863b",
					"tryCatchWithRevert()": "d0e20648"
				}
			},
			"storageLayout": {
				"storage": [
					{
						"astId": 21,
						"contract": "level0/solidity_basic/TryCatchExample1.sol:TryCatchExample",
						"label": "externalContract",
						"offset": 0,
						"slot": "0",
						"type": "t_contract(ExternalContract)18"
					}
				],
				"types": {
					"t_contract(ExternalContract)18": {
						"encoding": "inplace",
						"label": "contract ExternalContract",
						"numberOfBytes": "20"
					}
				}
			},
			"userdoc": {
				"kind": "user",
				"methods": {},
				"version": 1
			}
		}
	}
}